{
  "_format": "hh-sol-artifact-1",
  "contractName": "BLSExpander",
  "sourceName": "contracts/VerificationGateway.sol",
  "abi": [
    {
      "inputs": [
        {
          "internalType": "bytes32",
          "name": "publicKeyHash",
          "type": "bytes32"
        },
        {
          "internalType": "uint256[2]",
          "name": "signature",
          "type": "uint256[2]"
        },
        {
          "internalType": "address[]",
          "name": "contractAddresses",
          "type": "address[]"
        },
        {
          "internalType": "bytes4[]",
          "name": "methodIDs",
          "type": "bytes4[]"
        },
        {
          "internalType": "bytes[]",
          "name": "encodedParamSets",
          "type": "bytes[]"
        }
      ],
      "name": "blsCallMultiSameCaller",
      "outputs": [],
      "stateMutability": "nonpayable",
      "type": "function"
    },
    {
      "inputs": [
        {
          "internalType": "bytes32",
          "name": "publicKeyHash",
          "type": "bytes32"
        },
        {
          "internalType": "uint256[2]",
          "name": "signature",
          "type": "uint256[2]"
        },
        {
          "internalType": "address",
          "name": "contractAddress",
          "type": "address"
        },
        {
          "internalType": "bytes4",
          "name": "methodID",
          "type": "bytes4"
        },
        {
          "internalType": "bytes[]",
          "name": "encodedParamSets",
          "type": "bytes[]"
        }
      ],
      "name": "blsCallMultiSameCallerContractFunction",
      "outputs": [],
      "stateMutability": "nonpayable",
      "type": "function"
    },
    {
      "inputs": [
        {
          "internalType": "bytes32[]",
          "name": "publicKeyHashes",
          "type": "bytes32[]"
        },
        {
          "internalType": "uint256[2]",
          "name": "signature",
          "type": "uint256[2]"
        },
        {
          "internalType": "address",
          "name": "contractAddress",
          "type": "address"
        },
        {
          "internalType": "bytes4[]",
          "name": "methodIDs",
          "type": "bytes4[]"
        },
        {
          "internalType": "bytes[]",
          "name": "encodedParamSets",
          "type": "bytes[]"
        }
      ],
      "name": "blsCallMultiSameContract",
      "outputs": [],
      "stateMutability": "nonpayable",
      "type": "function"
    },
    {
      "inputs": [
        {
          "internalType": "bytes32[]",
          "name": "publicKeyHashes",
          "type": "bytes32[]"
        },
        {
          "internalType": "uint256[2]",
          "name": "signature",
          "type": "uint256[2]"
        },
        {
          "internalType": "address",
          "name": "contractAddress",
          "type": "address"
        },
        {
          "internalType": "bytes4",
          "name": "methodID",
          "type": "bytes4"
        },
        {
          "internalType": "bytes",
          "name": "encodedParams",
          "type": "bytes"
        }
      ],
      "name": "blsCallMultiSameContractFunctionParams",
      "outputs": [],
      "stateMutability": "nonpayable",
      "type": "function"
    },
    {
      "inputs": [
        {
          "internalType": "address",
          "name": "gateway",
          "type": "address"
        }
      ],
      "name": "initialize",
      "outputs": [],
      "stateMutability": "nonpayable",
      "type": "function"
    }
  ],
  "bytecode": "0x60806040523480156100195760008061001661001f565b50505b5061008d565b632a2a7adb598160e01b8152600481016020815285602082015260005b8681101561005a57808601518160408401015260208101905061003c565b506020828760640184336000905af158600e01573d6000803e3d6000fd5b3d6001141558600a015760016000f35b505050565b611ef68061009c6000396000f3fe608060405234801561001957600080610016610ba5565b50505b50600436106100605760003560e01c806321fbaacb1461006e5780633537678b1461008a57806355bd05b5146100a6578063a580e91c146100c2578063c4d66de8146100de575b60008061006b610ba5565b50505b610088600480360381019061008391906113b8565b6100fa565b005b6100a4600480360381019061009f9190611159565b61025c565b005b6100c060048036038101906100bb9190611314565b6103ec565b005b6100dc60048036038101906100d79190611249565b610692565b005b6100f860048036038101906100f39190611127565b610981565b005b600086869050905060008167ffffffffffffffff8111801561012457600080610121610ba5565b50505b506040519080825280602002602001820160405280156101535781602001602082028036833780820191505090505b50905060005b82811015610187578a82828151811061016e57fe5b6020026020010181815250508080600101915050610159565b506000600290610195610c13565b906101000a900473ffffffffffffffffffffffffffffffffffffffff1673ffffffffffffffffffffffffffffffffffffffff1663190e322d828b8b8b8b8b8b8b6040518963ffffffff1660e01b81526004016101f8989796959493929190611a31565b6000604051808303816000878061020d610c76565b1580156102225760008061021f610ba5565b50505b505a61022c610cd9565b50505050505015801561024c573d6000803e3d6000610249610ba5565b50505b5050505050505050505050505050565b600088889050905060008167ffffffffffffffff8111801561028657600080610283610ba5565b50505b506040519080825280602002602001820160405280156102b55781602001602082028036833780820191505090505b50905060005b8281101561031757878282815181106102d057fe5b602002602001019073ffffffffffffffffffffffffffffffffffffffff16908173ffffffffffffffffffffffffffffffffffffffff168152505080806001019150506102bb565b506000600290610325610c13565b906101000a900473ffffffffffffffffffffffffffffffffffffffff1673ffffffffffffffffffffffffffffffffffffffff1663190e322d8b8b8b858b8b8b8b6040518963ffffffff1660e01b815260040161038898979695949392919061194b565b6000604051808303816000878061039d610c76565b1580156103b2576000806103af610ba5565b50505b505a6103bc610cd9565b5050505050501580156103dc573d6000803e3d60006103d9610ba5565b50505b5050505050505050505050505050565b600082829050905060008167ffffffffffffffff8111801561041657600080610413610ba5565b50505b506040519080825280602002602001820160405280156104455781602001602082028036833780820191505090505b50905060008267ffffffffffffffff8111801561046a57600080610467610ba5565b50505b506040519080825280602002602001820160405280156104995781602001602082028036833780820191505090505b50905060008367ffffffffffffffff811180156104be576000806104bb610ba5565b50505b506040519080825280602002602001820160405280156104ed5781602001602082028036833780820191505090505b50905060005b848110156105c1578883828151811061050857fe5b602002602001019073ffffffffffffffffffffffffffffffffffffffff16908173ffffffffffffffffffffffffffffffffffffffff16815250508782828151811061054f57fe5b60200260200101907bffffffffffffffffffffffffffffffffffffffffffffffffffffffff191690817bffffffffffffffffffffffffffffffffffffffffffffffffffffffff1916815250508a8482815181106105a857fe5b60200260200101818152505080806001019150506104f3565b5060006002906105cf610c13565b906101000a900473ffffffffffffffffffffffffffffffffffffffff1673ffffffffffffffffffffffffffffffffffffffff1663190e322d848b85858b8b6040518763ffffffff1660e01b815260040161062e96959493929190611aa6565b60006040518083038160008780610643610c76565b15801561065857600080610655610ba5565b50505b505a610662610cd9565b505050505050158015610682573d6000803e3d600061067f610ba5565b50505b5050505050505050505050505050565b600087879050905060008167ffffffffffffffff811180156106bc576000806106b9610ba5565b50505b506040519080825280602002602001820160405280156106eb5781602001602082028036833780820191505090505b50905060008267ffffffffffffffff811180156107105760008061070d610ba5565b50505b5060405190808252806020026020018201604052801561073f5781602001602082028036833780820191505090505b50905060008367ffffffffffffffff8111801561076457600080610761610ba5565b50505b5060405190808252806020026020018201604052801561079857816020015b60608152602001906001900390816107835790505b50905060005b848110156108af57888482815181106107b357fe5b602002602001019073ffffffffffffffffffffffffffffffffffffffff16908173ffffffffffffffffffffffffffffffffffffffff1681525050878382815181106107fa57fe5b60200260200101907bffffffffffffffffffffffffffffffffffffffffffffffffffffffff191690817bffffffffffffffffffffffffffffffffffffffffffffffffffffffff19168152505086868080601f016020809104026020016040519081016040528093929190818152602001838380828437600081840152601f19601f8201169050808301925050505050505082828151811061089757fe5b6020026020010181905250808060010191505061079e565b5060006002906108bd610c13565b906101000a900473ffffffffffffffffffffffffffffffffffffffff1673ffffffffffffffffffffffffffffffffffffffff1663190e322d8c8c8c8787876040518763ffffffff1660e01b815260040161091c969594939291906119c0565b60006040518083038160008780610931610c76565b15801561094657600080610943610ba5565b50505b505a610950610cd9565b505050505050158015610970573d6000803e3d600061096d610ba5565b50505b505050505050505050505050505050565b600060019061098e610c13565b906101000a900460ff16806109a757506109a6610b1f565b5b806109c457506000806109b8610c13565b906101000a900460ff16155b610a22576040517f08c379a000000000000000000000000000000000000000000000000000000000815260040180806020018281038252602e815260200180611ec8602e913960400191505060405180910390610a1f610ba5565b50505b600080600190610a30610c13565b906101000a900460ff161590508015610a99576001600060016101000a81610a56610c13565b8160ff02191690831515021790610a6b610dd9565b50505060016000806101000a81610a80610c13565b8160ff02191690831515021790610a95610dd9565b5050505b81600060026101000a81610aab610c13565b8173ffffffffffffffffffffffffffffffffffffffff021916908373ffffffffffffffffffffffffffffffffffffffff16021790610ae7610dd9565b5050508015610b1b5760008060016101000a81610b02610c13565b8160ff02191690831515021790610b17610dd9565b5050505b5050565b6000610b855a63996d79a5598160e01b8152602081600483336000905af158600e01573d6000803e3d6000fd5b3d6001141558600a015760016000f35b8051925060005b6040811015610b7d57600081830152602081019050610b63565b505050610b8b565b15905090565b60008082610b97610c76565b905060008111915050919050565b632a2a7adb598160e01b8152600481016020815285602082015260005b86811015610be0578086015181604084010152602081019050610bc2565b506020828760640184336000905af158600e01573d6000803e3d6000fd5b3d6001141558600a015760016000f35b505050565b6303daa959598160e01b8152836004820152602081602483336000905af158600e01573d6000803e3d6000fd5b3d6001141558600a015760016000f35b8051935060005b6040811015610c7157600081830152602081019050610c57565b505050565b638435035b598160e01b8152836004820152602081602483336000905af158600e01573d6000803e3d6000fd5b3d6001141558600a015760016000f35b8051935060005b6040811015610cd457600081830152602081019050610cba565b505050565b6385979f76598160e01b8152610d18565b600081905081831115610cfb578290505b92915050565b600081905081831015610d12578290505b92915050565b836004820152846024820152606060448201528760648201526084810160005b89811015610d53578089015181830152602081019050610d38565b506060828a60a40184336000905af158600e01573d6000803e3d6000fd5b3d6001141558600a015760016000f35b815160408301513d6000853e8c8c82606087013350600060045af15059610da88e3d610d01565b8d01610db48187610cea565b5b82811015610dcc5760008152602081019050610db5565b50839e5050505050505050565b6322bd64c0598160e01b8152836004820152846024820152600081604483336000905af158600e01573d6000803e3d6000fd5b3d6001141558600a015760016000f35b60005b6040811015610e3957600081830152602081019050610e1f565b505050565b6000610e51610e4c84611b48565b611b17565b90508082856020860282011115610e7057600080610e6d610ba5565b50505b60005b85811015610ea05781610e868882611112565b845260208401935060208301925050600181019050610e73565b5050509392505050565b600081359050610eb981611e47565b92915050565b60008083601f840112610eda57600080610ed7610ba5565b50505b8235905067ffffffffffffffff811115610efc57600080610ef9610ba5565b50505b602083019150836020820283011115610f1d57600080610f1a610ba5565b50505b9250929050565b60008083601f840112610f3f57600080610f3c610ba5565b50505b8235905067ffffffffffffffff811115610f6157600080610f5e610ba5565b50505b602083019150836020820283011115610f8257600080610f7f610ba5565b50505b9250929050565b60008083601f840112610fa457600080610fa1610ba5565b50505b8235905067ffffffffffffffff811115610fc657600080610fc3610ba5565b50505b602083019150836020820283011115610fe757600080610fe4610ba5565b50505b9250929050565b60008083601f84011261100957600080611006610ba5565b50505b8235905067ffffffffffffffff81111561102b57600080611028610ba5565b50505b60208301915083602082028301111561104c57600080611049610ba5565b50505b9250929050565b600082601f83011261106d5760008061106a610ba5565b50505b600261107a848285610e3e565b91505092915050565b60008135905061109281611e67565b92915050565b6000813590506110a781611e87565b92915050565b60008083601f8401126110c8576000806110c5610ba5565b50505b8235905067ffffffffffffffff8111156110ea576000806110e7610ba5565b50505b60208301915083600182028301111561110b57600080611108610ba5565b50505b9250929050565b60008135905061112181611ea7565b92915050565b6000602082840312156111425760008061113f610ba5565b50505b600061115084828501610eaa565b91505092915050565b60008060008060008060008060c0898b03121561117e5760008061117b610ba5565b50505b600089013567ffffffffffffffff8111156111a15760008061119e610ba5565b50505b6111ad8b828c01610f24565b985098505060206111c08b828c01611053565b96505060606111d18b828c01610eaa565b955050608089013567ffffffffffffffff8111156111f7576000806111f4610ba5565b50505b6112038b828c01610f89565b945094505060a089013567ffffffffffffffff81111561122b57600080611228610ba5565b50505b6112378b828c01610fee565b92509250509295985092959890939650565b600080600080600080600060c0888a03121561126d5760008061126a610ba5565b50505b600088013567ffffffffffffffff8111156112905760008061128d610ba5565b50505b61129c8a828b01610f24565b975097505060206112af8a828b01611053565b95505060606112c08a828b01610eaa565b94505060806112d18a828b01611098565b93505060a088013567ffffffffffffffff8111156112f7576000806112f4610ba5565b50505b6113038a828b016110ad565b925092505092959891949750929550565b60008060008060008060c0878903121561133657600080611333610ba5565b50505b600061134489828a01611083565b965050602061135589828a01611053565b955050606061136689828a01610eaa565b945050608061137789828a01611098565b93505060a087013567ffffffffffffffff81111561139d5760008061139a610ba5565b50505b6113a989828a01610fee565b92509250509295509295509295565b60008060008060008060008060c0898b0312156113dd576000806113da610ba5565b50505b60006113eb8b828c01611083565b98505060206113fc8b828c01611053565b975050606089013567ffffffffffffffff8111156114225760008061141f610ba5565b50505b61142e8b828c01610ebf565b9650965050608089013567ffffffffffffffff81111561145657600080611453610ba5565b50505b6114628b828c01610f89565b945094505060a089013567ffffffffffffffff81111561148a57600080611487610ba5565b50505b6114968b828c01610fee565b92509250509295985092959890939650565b60006114b48383611532565b60208301905092915050565b60006114cc83836118b8565b60208301905092915050565b60006114e483836118c7565b60208301905092915050565b60006114fd8484846118d6565b90509392505050565b60006115128383611903565b905092915050565b6000611526838361193c565b60208301905092915050565b61153b81611d80565b82525050565b600061154d8385611c80565b935061155882611b6e565b8060005b858110156115915761156e8284611ce0565b61157888826114a8565b975061158383611c18565b92505060018101905061155c565b5085925050509392505050565b60006115a982611bd6565b6115b38185611c80565b93506115be83611b78565b8060005b838110156115ef5781516115d688826114a8565b97506115e183611c25565b9250506001810190506115c2565b5085935050505092915050565b60006116088385611c91565b93507f07ffffffffffffffffffffffffffffffffffffffffffffffffffffffffffffff8311156116405760008061163d610ba5565b50505b602083029250611651838584611df2565b82840190509392505050565b600061166882611be1565b6116728185611c91565b935061167d83611b88565b8060005b838110156116ae57815161169588826114c0565b97506116a083611c32565b925050600181019050611681565b5085935050505092915050565b60006116c78385611ca2565b93506116d282611b98565b8060005b8581101561170b576116e88284611cf7565b6116f288826114d8565b97506116fd83611c3f565b9250506001810190506116d6565b5085925050509392505050565b600061172382611bec565b61172d8185611ca2565b935061173883611ba2565b8060005b8381101561176957815161175088826114d8565b975061175b83611c4c565b92505060018101905061173c565b5085935050505092915050565b60006117828385611cb3565b93508360208402850161179484611bb2565b8060005b878110156117da5784840389526117af8284611d0e565b6117ba8682846114f0565b95506117c584611c59565b935060208b019a505050600181019050611798565b50829750879450505050509392505050565b60006117f782611bf7565b6118018185611cb3565b93508360208202850161181385611bbc565b8060005b8581101561184f57848403895281516118308582611506565b945061183b83611c66565b925060208a01995050600181019050611817565b50829750879550505050505092915050565b61186a81611c02565b6118748184611cc4565b925061187f82611bcc565b8060005b838110156118b0578151611897878261151a565b96506118a283611c73565b925050600181019050611883565b505050505050565b6118c181611d92565b82525050565b6118d081611d9c565b82525050565b60006118e28385611ccf565b93506118ef838584611df2565b6118f883611e36565b840190509392505050565b600061190e82611c0d565b6119188185611ccf565b9350611928818560208601611e01565b61193181611e36565b840191505092915050565b61194581611de8565b82525050565b600060c0820190508181036000830152611966818a8c6115fc565b90506119756020830189611861565b8181036060830152611987818861159e565b9050818103608083015261199c8186886116bb565b905081810360a08301526119b1818486611776565b90509998505050505050505050565b600060c08201905081810360008301526119db81888a6115fc565b90506119ea6020830187611861565b81810360608301526119fc818661159e565b90508181036080830152611a108185611718565b905081810360a0830152611a2481846117ec565b9050979650505050505050565b600060c0820190508181036000830152611a4b818b61165d565b9050611a5a602083018a611861565b8181036060830152611a6d81888a611541565b90508181036080830152611a828186886116bb565b905081810360a0830152611a97818486611776565b90509998505050505050505050565b600060c0820190508181036000830152611ac0818961165d565b9050611acf6020830188611861565b8181036060830152611ae1818761159e565b90508181036080830152611af58186611718565b905081810360a0830152611b0a818486611776565b9050979650505050505050565b6000604051905081810181811067ffffffffffffffff82111715611b3e57611b3d611e34565b5b8060405250919050565b600067ffffffffffffffff821115611b6357611b62611e34565b5b602082029050919050565b6000819050919050565b6000819050602082019050919050565b6000819050602082019050919050565b6000819050919050565b6000819050602082019050919050565b6000819050919050565b6000819050602082019050919050565b6000819050919050565b600081519050919050565b600081519050919050565b600081519050919050565b600081519050919050565b600060029050919050565b600081519050919050565b6000602082019050919050565b6000602082019050919050565b6000602082019050919050565b6000602082019050919050565b6000602082019050919050565b6000602082019050919050565b6000602082019050919050565b6000602082019050919050565b600082825260208201905092915050565b600082825260208201905092915050565b600082825260208201905092915050565b600082825260208201905092915050565b600081905092915050565b600082825260208201905092915050565b6000611cef6020840184610eaa565b905092915050565b6000611d066020840184611098565b905092915050565b60008083356001602003843603038112611d3057600080611d2d610ba5565b50505b83810192508235915060208301925067ffffffffffffffff821115611d5d57600080611d5a610ba5565b50505b600182023603841315611d7857600080611d75610ba5565b50505b509250929050565b6000611d8b82611dc8565b9050919050565b6000819050919050565b60007fffffffff0000000000000000000000000000000000000000000000000000000082169050919050565b600073ffffffffffffffffffffffffffffffffffffffff82169050919050565b6000819050919050565b82818337600083830152505050565b60005b83811015611e1f578082015181840152602081019050611e04565b83811115611e2e576000848401525b50505050565bfe5b6000601f19601f8301169050919050565b611e5081611d80565b8114611e6457600080611e61610ba5565b50505b50565b611e7081611d92565b8114611e8457600080611e81610ba5565b50505b50565b611e9081611d9c565b8114611ea457600080611ea1610ba5565b50505b50565b611eb081611de8565b8114611ec457600080611ec1610ba5565b50505b5056fe496e697469616c697a61626c653a20636f6e747261637420697320616c726561647920696e697469616c697a6564",
  "linkReferences": {},
  "deployedLinkReferences": {}
}