{
  "_format": "hh-sol-artifact-1",
  "contractName": "BLSExpander",
  "sourceName": "contracts/VerificationGateway.sol",
  "abi": [
    {
      "inputs": [
        {
          "internalType": "bytes32",
          "name": "publicKeyHash",
          "type": "bytes32"
        },
        {
          "internalType": "uint256[2]",
          "name": "signature",
          "type": "uint256[2]"
        },
        {
          "internalType": "address[]",
          "name": "contractAddresses",
          "type": "address[]"
        },
        {
          "internalType": "bytes4[]",
          "name": "methodIDs",
          "type": "bytes4[]"
        },
        {
          "internalType": "bytes[]",
          "name": "encodedParamSets",
          "type": "bytes[]"
        }
      ],
      "name": "blsCallMultiSameCaller",
      "outputs": [],
      "stateMutability": "nonpayable",
      "type": "function"
    },
    {
      "inputs": [
        {
          "internalType": "bytes32",
          "name": "publicKeyHash",
          "type": "bytes32"
        },
        {
          "internalType": "uint256[2]",
          "name": "signature",
          "type": "uint256[2]"
        },
        {
          "internalType": "address",
          "name": "contractAddress",
          "type": "address"
        },
        {
          "internalType": "bytes4",
          "name": "methodID",
          "type": "bytes4"
        },
        {
          "internalType": "bytes[]",
          "name": "encodedParamSets",
          "type": "bytes[]"
        }
      ],
      "name": "blsCallMultiSameCallerContractFunction",
      "outputs": [],
      "stateMutability": "nonpayable",
      "type": "function"
    },
    {
      "inputs": [
        {
          "internalType": "bytes32[]",
          "name": "publicKeyHashes",
          "type": "bytes32[]"
        },
        {
          "internalType": "uint256[2]",
          "name": "signature",
          "type": "uint256[2]"
        },
        {
          "internalType": "address",
          "name": "contractAddress",
          "type": "address"
        },
        {
          "internalType": "bytes4[]",
          "name": "methodIDs",
          "type": "bytes4[]"
        },
        {
          "internalType": "bytes[]",
          "name": "encodedParamSets",
          "type": "bytes[]"
        }
      ],
      "name": "blsCallMultiSameContract",
      "outputs": [],
      "stateMutability": "nonpayable",
      "type": "function"
    },
    {
      "inputs": [
        {
          "internalType": "bytes32[]",
          "name": "publicKeyHashes",
          "type": "bytes32[]"
        },
        {
          "internalType": "uint256[2]",
          "name": "signature",
          "type": "uint256[2]"
        },
        {
          "internalType": "address",
          "name": "contractAddress",
          "type": "address"
        },
        {
          "internalType": "bytes4",
          "name": "methodID",
          "type": "bytes4"
        },
        {
          "internalType": "bytes",
          "name": "encodedParams",
          "type": "bytes"
        }
      ],
      "name": "blsCallMultiSameContractFunctionParams",
      "outputs": [],
      "stateMutability": "nonpayable",
      "type": "function"
    },
    {
      "inputs": [
        {
          "internalType": "address",
          "name": "gateway",
          "type": "address"
        }
      ],
      "name": "initialize",
      "outputs": [],
      "stateMutability": "nonpayable",
      "type": "function"
    }
  ],
  "bytecode": "0x608060405234801561001057600080fd5b50611998806100206000396000f3fe608060405234801561001057600080fd5b50600436106100575760003560e01c806321fbaacb1461005c5780633537678b1461007857806355bd05b514610094578063a580e91c146100b0578063c4d66de8146100cc575b600080fd5b61007660048036038101906100719190610e32565b6100e8565b005b610092600480360381019061008d9190610c24565b610214565b005b6100ae60048036038101906100a99190610da0565b61036e565b005b6100ca60048036038101906100c59190610cf0565b6105cc565b005b6100e660048036038101906100e19190610bfb565b610873565b005b600086869050905060608167ffffffffffffffff8111801561010957600080fd5b506040519080825280602002602001820160405280156101385781602001602082028036833780820191505090505b50905060005b8281101561016c578a82828151811061015357fe5b602002602001018181525050808060010191505061013e565b50600060029054906101000a900473ffffffffffffffffffffffffffffffffffffffff1673ffffffffffffffffffffffffffffffffffffffff1663190e322d828b8b8b8b8b8b8b6040518963ffffffff1660e01b81526004016101d69897969594939291906114e4565b600060405180830381600087803b1580156101f057600080fd5b505af1158015610204573d6000803e3d6000fd5b5050505050505050505050505050565b600088889050905060608167ffffffffffffffff8111801561023557600080fd5b506040519080825280602002602001820160405280156102645781602001602082028036833780820191505090505b50905060005b828110156102c6578782828151811061027f57fe5b602002602001019073ffffffffffffffffffffffffffffffffffffffff16908173ffffffffffffffffffffffffffffffffffffffff1681525050808060010191505061026a565b50600060029054906101000a900473ffffffffffffffffffffffffffffffffffffffff1673ffffffffffffffffffffffffffffffffffffffff1663190e322d8b8b8b858b8b8b8b6040518963ffffffff1660e01b81526004016103309897969594939291906113fe565b600060405180830381600087803b15801561034a57600080fd5b505af115801561035e573d6000803e3d6000fd5b5050505050505050505050505050565b600082829050905060608167ffffffffffffffff8111801561038f57600080fd5b506040519080825280602002602001820160405280156103be5781602001602082028036833780820191505090505b50905060608267ffffffffffffffff811180156103da57600080fd5b506040519080825280602002602001820160405280156104095781602001602082028036833780820191505090505b50905060608367ffffffffffffffff8111801561042557600080fd5b506040519080825280602002602001820160405280156104545781602001602082028036833780820191505090505b50905060005b84811015610528578883828151811061046f57fe5b602002602001019073ffffffffffffffffffffffffffffffffffffffff16908173ffffffffffffffffffffffffffffffffffffffff1681525050878282815181106104b657fe5b60200260200101907bffffffffffffffffffffffffffffffffffffffffffffffffffffffff191690817bffffffffffffffffffffffffffffffffffffffffffffffffffffffff1916815250508a84828151811061050f57fe5b602002602001018181525050808060010191505061045a565b50600060029054906101000a900473ffffffffffffffffffffffffffffffffffffffff1673ffffffffffffffffffffffffffffffffffffffff1663190e322d848b85858b8b6040518763ffffffff1660e01b815260040161058e96959493929190611559565b600060405180830381600087803b1580156105a857600080fd5b505af11580156105bc573d6000803e3d6000fd5b5050505050505050505050505050565b600087879050905060608167ffffffffffffffff811180156105ed57600080fd5b5060405190808252806020026020018201604052801561061c5781602001602082028036833780820191505090505b50905060608267ffffffffffffffff8111801561063857600080fd5b506040519080825280602002602001820160405280156106675781602001602082028036833780820191505090505b50905060608367ffffffffffffffff8111801561068357600080fd5b506040519080825280602002602001820160405280156106b757816020015b60608152602001906001900390816106a25790505b50905060005b848110156107ce57888482815181106106d257fe5b602002602001019073ffffffffffffffffffffffffffffffffffffffff16908173ffffffffffffffffffffffffffffffffffffffff16815250508783828151811061071957fe5b60200260200101907bffffffffffffffffffffffffffffffffffffffffffffffffffffffff191690817bffffffffffffffffffffffffffffffffffffffffffffffffffffffff19168152505086868080601f016020809104026020016040519081016040528093929190818152602001838380828437600081840152601f19601f820116905080830192505050505050508282815181106107b657fe5b602002602001018190525080806001019150506106bd565b50600060029054906101000a900473ffffffffffffffffffffffffffffffffffffffff1673ffffffffffffffffffffffffffffffffffffffff1663190e322d8c8c8c8787876040518763ffffffff1660e01b815260040161083496959493929190611473565b600060405180830381600087803b15801561084e57600080fd5b505af1158015610862573d6000803e3d6000fd5b505050505050505050505050505050565b600060019054906101000a900460ff1680610892575061089161099d565b5b806108a8575060008054906101000a900460ff16155b6108e7576040517f08c379a00000000000000000000000000000000000000000000000000000000081526004016108de906115ca565b60405180910390fd5b60008060019054906101000a900460ff161590508015610937576001600060016101000a81548160ff02191690831515021790555060016000806101000a81548160ff0219169083151502179055505b81600060026101000a81548173ffffffffffffffffffffffffffffffffffffffff021916908373ffffffffffffffffffffffffffffffffffffffff16021790555080156109995760008060016101000a81548160ff0219169083151502179055505b5050565b60006109a8306109ae565b15905090565b600080823b905060008111915050919050565b6000813590506109d081611906565b92915050565b60008083601f8401126109e857600080fd5b8235905067ffffffffffffffff811115610a0157600080fd5b602083019150836020820283011115610a1957600080fd5b9250929050565b60008083601f840112610a3257600080fd5b8235905067ffffffffffffffff811115610a4b57600080fd5b602083019150836020820283011115610a6357600080fd5b9250929050565b60008083601f840112610a7c57600080fd5b8235905067ffffffffffffffff811115610a9557600080fd5b602083019150836020820283011115610aad57600080fd5b9250929050565b60008083601f840112610ac657600080fd5b8235905067ffffffffffffffff811115610adf57600080fd5b602083019150836020820283011115610af757600080fd5b9250929050565b600082601f830112610b0f57600080fd5b6002610b22610b1d82611617565b6115ea565b91508183856020840282011115610b3857600080fd5b60005b83811015610b685781610b4e8882610be6565b845260208401935060208301925050600181019050610b3b565b5050505092915050565b600081359050610b818161191d565b92915050565b600081359050610b9681611934565b92915050565b60008083601f840112610bae57600080fd5b8235905067ffffffffffffffff811115610bc757600080fd5b602083019150836001820283011115610bdf57600080fd5b9250929050565b600081359050610bf58161194b565b92915050565b600060208284031215610c0d57600080fd5b6000610c1b848285016109c1565b91505092915050565b60008060008060008060008060c0898b031215610c4057600080fd5b600089013567ffffffffffffffff811115610c5a57600080fd5b610c668b828c01610a20565b98509850506020610c798b828c01610afe565b9650506060610c8a8b828c016109c1565b955050608089013567ffffffffffffffff811115610ca757600080fd5b610cb38b828c01610a6a565b945094505060a089013567ffffffffffffffff811115610cd257600080fd5b610cde8b828c01610ab4565b92509250509295985092959890939650565b600080600080600080600060c0888a031215610d0b57600080fd5b600088013567ffffffffffffffff811115610d2557600080fd5b610d318a828b01610a20565b97509750506020610d448a828b01610afe565b9550506060610d558a828b016109c1565b9450506080610d668a828b01610b87565b93505060a088013567ffffffffffffffff811115610d8357600080fd5b610d8f8a828b01610b9c565b925092505092959891949750929550565b60008060008060008060c08789031215610db957600080fd5b6000610dc789828a01610b72565b9650506020610dd889828a01610afe565b9550506060610de989828a016109c1565b9450506080610dfa89828a01610b87565b93505060a087013567ffffffffffffffff811115610e1757600080fd5b610e2389828a01610ab4565b92509250509295509295509295565b60008060008060008060008060c0898b031215610e4e57600080fd5b6000610e5c8b828c01610b72565b9850506020610e6d8b828c01610afe565b975050606089013567ffffffffffffffff811115610e8a57600080fd5b610e968b828c016109d6565b9650965050608089013567ffffffffffffffff811115610eb557600080fd5b610ec18b828c01610a6a565b945094505060a089013567ffffffffffffffff811115610ee057600080fd5b610eec8b828c01610ab4565b92509250509295985092959890939650565b6000610f0a8383610f88565b60208301905092915050565b6000610f228383611305565b60208301905092915050565b6000610f3a8383611314565b60208301905092915050565b6000610f53848484611323565b90509392505050565b6000610f688383611350565b905092915050565b6000610f7c83836113ef565b60208301905092915050565b610f9181611841565b82525050565b6000610fa3838561174b565b9350610fae82611639565b8060005b85811015610fe757610fc482846117bc565b610fce8882610efe565b9750610fd9836116e3565b925050600181019050610fb2565b5085925050509392505050565b6000610fff826116a1565b611009818561174b565b935061101483611643565b8060005b8381101561104557815161102c8882610efe565b9750611037836116f0565b925050600181019050611018565b5085935050505092915050565b600061105e838561175c565b93507f07ffffffffffffffffffffffffffffffffffffffffffffffffffffffffffffff83111561108d57600080fd5b60208302925061109e8385846118b3565b82840190509392505050565b60006110b5826116ac565b6110bf818561175c565b93506110ca83611653565b8060005b838110156110fb5781516110e28882610f16565b97506110ed836116fd565b9250506001810190506110ce565b5085935050505092915050565b6000611114838561176d565b935061111f82611663565b8060005b858110156111585761113582846117d3565b61113f8882610f2e565b975061114a8361170a565b925050600181019050611123565b5085925050509392505050565b6000611170826116b7565b61117a818561176d565b93506111858361166d565b8060005b838110156111b657815161119d8882610f2e565b97506111a883611717565b925050600181019050611189565b5085935050505092915050565b60006111cf838561177e565b9350836020840285016111e18461167d565b8060005b878110156112275784840389526111fc82846117ea565b611207868284610f46565b955061121284611724565b935060208b019a5050506001810190506111e5565b50829750879450505050509392505050565b6000611244826116c2565b61124e818561177e565b93508360208202850161126085611687565b8060005b8581101561129c578484038952815161127d8582610f5c565b945061128883611731565b925060208a01995050600181019050611264565b50829750879550505050505092915050565b6112b7816116cd565b6112c1818461178f565b92506112cc82611697565b8060005b838110156112fd5781516112e48782610f70565b96506112ef8361173e565b9250506001810190506112d0565b505050505050565b61130e81611853565b82525050565b61131d8161185d565b82525050565b600061132f838561179a565b935061133c8385846118b3565b611345836118f5565b840190509392505050565b600061135b826116d8565b611365818561179a565b93506113758185602086016118c2565b61137e816118f5565b840191505092915050565b6000611396602e836117ab565b91507f496e697469616c697a61626c653a20636f6e747261637420697320616c72656160008301527f647920696e697469616c697a65640000000000000000000000000000000000006020830152604082019050919050565b6113f8816118a9565b82525050565b600060c0820190508181036000830152611419818a8c611052565b905061142860208301896112ae565b818103606083015261143a8188610ff4565b9050818103608083015261144f818688611108565b905081810360a08301526114648184866111c3565b90509998505050505050505050565b600060c082019050818103600083015261148e81888a611052565b905061149d60208301876112ae565b81810360608301526114af8186610ff4565b905081810360808301526114c38185611165565b905081810360a08301526114d78184611239565b9050979650505050505050565b600060c08201905081810360008301526114fe818b6110aa565b905061150d602083018a6112ae565b818103606083015261152081888a610f97565b90508181036080830152611535818688611108565b905081810360a083015261154a8184866111c3565b90509998505050505050505050565b600060c082019050818103600083015261157381896110aa565b905061158260208301886112ae565b81810360608301526115948187610ff4565b905081810360808301526115a88186611165565b905081810360a08301526115bd8184866111c3565b9050979650505050505050565b600060208201905081810360008301526115e381611389565b9050919050565b6000604051905081810181811067ffffffffffffffff8211171561160d57600080fd5b8060405250919050565b600067ffffffffffffffff82111561162e57600080fd5b602082029050919050565b6000819050919050565b6000819050602082019050919050565b6000819050602082019050919050565b6000819050919050565b6000819050602082019050919050565b6000819050919050565b6000819050602082019050919050565b6000819050919050565b600081519050919050565b600081519050919050565b600081519050919050565b600081519050919050565b600060029050919050565b600081519050919050565b6000602082019050919050565b6000602082019050919050565b6000602082019050919050565b6000602082019050919050565b6000602082019050919050565b6000602082019050919050565b6000602082019050919050565b6000602082019050919050565b600082825260208201905092915050565b600082825260208201905092915050565b600082825260208201905092915050565b600082825260208201905092915050565b600081905092915050565b600082825260208201905092915050565b600082825260208201905092915050565b60006117cb60208401846109c1565b905092915050565b60006117e26020840184610b87565b905092915050565b6000808335600160200384360303811261180357600080fd5b83810192508235915060208301925067ffffffffffffffff82111561182757600080fd5b60018202360384131561183957600080fd5b509250929050565b600061184c82611889565b9050919050565b6000819050919050565b60007fffffffff0000000000000000000000000000000000000000000000000000000082169050919050565b600073ffffffffffffffffffffffffffffffffffffffff82169050919050565b6000819050919050565b82818337600083830152505050565b60005b838110156118e05780820151818401526020810190506118c5565b838111156118ef576000848401525b50505050565b6000601f19601f8301169050919050565b61190f81611841565b811461191a57600080fd5b50565b61192681611853565b811461193157600080fd5b50565b61193d8161185d565b811461194857600080fd5b50565b611954816118a9565b811461195f57600080fd5b5056fea26469706673582212203c961b19d0b618cfd1af51121e5fa7dceeb474a8cfe824d578787158bded6c1764736f6c63430007000033",
  "linkReferences": {},
  "deployedLinkReferences": {}
}