{
  "_format": "hh-sol-artifact-1",
  "contractName": "BLSWallet",
  "sourceName": "contracts/BLSWallet.sol",
  "abi": [
    {
      "inputs": [
        {
          "internalType": "address",
          "name": "contractAddress",
          "type": "address"
        },
        {
          "internalType": "bytes4",
          "name": "methodID",
          "type": "bytes4"
        },
        {
          "internalType": "bytes",
          "name": "encodedParams",
          "type": "bytes"
        }
      ],
      "name": "action",
      "outputs": [
        {
          "internalType": "bool",
          "name": "success",
          "type": "bool"
        }
      ],
      "stateMutability": "nonpayable",
      "type": "function"
    },
    {
      "inputs": [
        {
          "internalType": "bytes32",
          "name": "blsKeyHash",
          "type": "bytes32"
        }
      ],
      "name": "initialize",
      "outputs": [],
      "stateMutability": "nonpayable",
      "type": "function"
    },
    {
      "inputs": [],
      "name": "nonce",
      "outputs": [
        {
          "internalType": "uint256",
          "name": "",
          "type": "uint256"
        }
      ],
      "stateMutability": "view",
      "type": "function"
    },
    {
      "inputs": [],
      "name": "publicKeyHash",
      "outputs": [
        {
          "internalType": "bytes32",
          "name": "",
          "type": "bytes32"
        }
      ],
      "stateMutability": "view",
      "type": "function"
    }
  ],
  "bytecode": "0x60806040523480156100195760008061001661001f565b50505b5061008d565b632a2a7adb598160e01b8152600481016020815285602082015260005b8681101561005a57808601518160408401015260208101905061003c565b506020828760640184336000905af158600e01573d6000803e3d6000fd5b3d6001141558600a015760016000f35b505050565b610ca08061009c6000396000f3fe6080604052348015610019576000806100166104d8565b50505b50600436106100555760003560e01c80635e7e3416146100635780639498bd7114610081578063affed0e01461009d578063f51b80cf146100bb575b6000806100606104d8565b50505b61006b6100eb565b6040516100789190610a67565b60405180910390f35b61009b60048036038101906100969190610900565b6100f8565b005b6100a56102bf565b6040516100b29190610aa2565b60405180910390f35b6100d560048036038101906100d09190610887565b6102cc565b6040516100e29190610a4c565b60405180910390f35b60016100f5610546565b81565b6000600190610105610546565b906101000a900460ff168061011e575061011d610452565b5b8061013b575060008061012f610546565b906101000a900460ff16155b610199576040517f08c379a000000000000000000000000000000000000000000000000000000000815260040180806020018281038252602e815260200180610c72602e9139604001915050604051809103906101966104d8565b50505b6000806001906101a7610546565b906101000a900460ff161590508015610210576001600060016101000a816101cd610546565b8160ff021916908315150217906101e26105a9565b50505060016000806101000a816101f7610546565b8160ff0219169083151502179061020c6105a9565b5050505b816001819061021d6105a9565b5050505a61022961060e565b600060026101000a8161023a610546565b8173ffffffffffffffffffffffffffffffffffffffff021916908373ffffffffffffffffffffffffffffffffffffffff160217906102766105a9565b5050506000600281906102876105a9565b50505080156102bb5760008060016101000a816102a2610546565b8160ff021916908315150217906102b76105a9565b5050505b5050565b60026102c9610546565b81565b6000806002906102da610546565b906101000a900473ffffffffffffffffffffffffffffffffffffffff1673ffffffffffffffffffffffffffffffffffffffff165a61031661060e565b73ffffffffffffffffffffffffffffffffffffffff161461033f5760008061033c6104d8565b50505b60008383604051602001610354929190610a0d565b60405160208183030381529060405290508473ffffffffffffffffffffffffffffffffffffffff168160405161038a9190610a35565b6000604051808303816000865a61039f61066b565b5050505050509150503d80600081146103d4576040519150601f19603f3d011682016040523d82523d6000602084013e6103d9565b606091505b50508092505081610428576040517f08c379a000000000000000000000000000000000000000000000000000000000815260040161041690610a82565b604051809103906104256104d8565b50505b6002600081610435610546565b809291906001019190506104476105a9565b505050509392505050565b60006104b85a63996d79a5598160e01b8152602081600483336000905af158600e01573d6000803e3d6000fd5b3d6001141558600a015760016000f35b8051925060005b60408110156104b057600081830152602081019050610496565b5050506104be565b15905090565b600080826104ca61076b565b905060008111915050919050565b632a2a7adb598160e01b8152600481016020815285602082015260005b868110156105135780860151816040840101526020810190506104f5565b506020828760640184336000905af158600e01573d6000803e3d6000fd5b3d6001141558600a015760016000f35b505050565b6303daa959598160e01b8152836004820152602081602483336000905af158600e01573d6000803e3d6000fd5b3d6001141558600a015760016000f35b8051935060005b60408110156105a45760008183015260208101905061058a565b505050565b6322bd64c0598160e01b8152836004820152846024820152600081604483336000905af158600e01573d6000803e3d6000fd5b3d6001141558600a015760016000f35b60005b6040811015610609576000818301526020810190506105ef565b505050565b6373509064598160e01b8152602081600483336000905af158600e01573d6000803e3d6000fd5b3d6001141558600a015760016000f35b8051935060005b60408110156106665760008183015260208101905061064c565b505050565b6385979f76598160e01b81526106aa565b60008190508183111561068d578290505b92915050565b6000819050818310156106a4578290505b92915050565b836004820152846024820152606060448201528760648201526084810160005b898110156106e55780890151818301526020810190506106ca565b506060828a60a40184336000905af158600e01573d6000803e3d6000fd5b3d6001141558600a015760016000f35b815160408301513d6000853e8c8c82606087013350600060045af1505961073a8e3d610693565b8d01610746818761067c565b5b8281101561075e5760008152602081019050610747565b50839e5050505050505050565b638435035b598160e01b8152836004820152602081602483336000905af158600e01573d6000803e3d6000fd5b3d6001141558600a015760016000f35b8051935060005b60408110156107c9576000818301526020810190506107af565b505050565b60006107e16107dc84610aee565b610abd565b905082815260208101848484011115610802576000806107ff6104d8565b50505b61080d848285610bc3565b509392505050565b60008135905061082481610c11565b92915050565b60008135905061083981610c31565b92915050565b60008135905061084e81610c51565b92915050565b600082601f83011261086e5760008061086b6104d8565b50505b813561087e8482602086016107ce565b91505092915050565b6000806000606084860312156108a5576000806108a26104d8565b50505b60006108b386828701610815565b93505060206108c48682870161083f565b925050604084013567ffffffffffffffff8111156108ea576000806108e76104d8565b50505b6108f686828701610854565b9150509250925092565b60006020828403121561091b576000806109186104d8565b50505b60006109298482850161082a565b91505092915050565b61093b81610b57565b82525050565b61094a81610b63565b82525050565b61096161095c82610b6d565b610c05565b82525050565b600061097282610b1e565b61097c8185610b29565b935061098c818560208601610bd2565b80840191505092915050565b60006109a5603083610b34565b91507f424c5357616c6c65743a20616374696f6e206661696c656420746f2063616c6c60008301527f20656e636f64656446756e6374696f6e000000000000000000000000000000006020830152604082019050919050565b610a0781610bb9565b82525050565b6000610a198285610950565b600482019150610a298284610967565b91508190509392505050565b6000610a418284610967565b915081905092915050565b6000602082019050610a616000830184610932565b92915050565b6000602082019050610a7c6000830184610941565b92915050565b60006020820190508181036000830152610a9b81610998565b9050919050565b6000602082019050610ab760008301846109fe565b92915050565b6000604051905081810181811067ffffffffffffffff82111715610ae457610ae3610c0f565b5b8060405250919050565b600067ffffffffffffffff821115610b0957610b08610c0f565b5b601f19601f8301169050602081019050919050565b600081519050919050565b600081905092915050565b600082825260208201905092915050565b6000610b5082610b99565b9050919050565b60008115159050919050565b6000819050919050565b60007fffffffff0000000000000000000000000000000000000000000000000000000082169050919050565b600073ffffffffffffffffffffffffffffffffffffffff82169050919050565b6000819050919050565b82818337600083830152505050565b60005b83811015610bf0578082015181840152602081019050610bd5565b83811115610bff576000848401525b50505050565b6000819050919050565bfe5b610c1a81610b45565b8114610c2e57600080610c2b6104d8565b50505b50565b610c3a81610b63565b8114610c4e57600080610c4b6104d8565b50505b50565b610c5a81610b6d565b8114610c6e57600080610c6b6104d8565b50505b5056fe496e697469616c697a61626c653a20636f6e747261637420697320616c726561647920696e697469616c697a6564",
  "linkReferences": {},
  "deployedLinkReferences": {}
}