{
  "_format": "hh-sol-artifact-1",
  "contractName": "BLSWallet",
  "sourceName": "contracts/BLSWallet.sol",
  "abi": [
    {
      "inputs": [
        {
          "internalType": "address",
          "name": "contractAddress",
          "type": "address"
        },
        {
          "internalType": "bytes4",
          "name": "methodID",
          "type": "bytes4"
        },
        {
          "internalType": "bytes",
          "name": "encodedParams",
          "type": "bytes"
        }
      ],
      "name": "action",
      "outputs": [
        {
          "internalType": "bool",
          "name": "success",
          "type": "bool"
        }
      ],
      "stateMutability": "nonpayable",
      "type": "function"
    },
    {
      "inputs": [
        {
          "internalType": "bytes32",
          "name": "blsKeyHash",
          "type": "bytes32"
        }
      ],
      "name": "initialize",
      "outputs": [],
      "stateMutability": "nonpayable",
      "type": "function"
    },
    {
      "inputs": [],
      "name": "nonce",
      "outputs": [
        {
          "internalType": "uint256",
          "name": "",
          "type": "uint256"
        }
      ],
      "stateMutability": "view",
      "type": "function"
    },
    {
      "inputs": [],
      "name": "publicKeyHash",
      "outputs": [
        {
          "internalType": "bytes32",
          "name": "",
          "type": "bytes32"
        }
      ],
      "stateMutability": "view",
      "type": "function"
    }
  ],
  "bytecode": "0x608060405234801561001057600080fd5b50610883806100206000396000f3fe608060405234801561001057600080fd5b506004361061004c5760003560e01c80635e7e3416146100515780639498bd711461006f578063affed0e01461008b578063f51b80cf146100a9575b600080fd5b6100596100d9565b6040516100669190610648565b60405180910390f35b61008960048036038101906100849190610484565b6100df565b005b610093610218565b6040516100a091906106a3565b60405180910390f35b6100c360048036038101906100be919061041d565b61021e565b6040516100d0919061062d565b60405180910390f35b60015481565b600060019054906101000a900460ff16806100fe57506100fd610366565b5b80610114575060008054906101000a900460ff16155b610153576040517f08c379a000000000000000000000000000000000000000000000000000000000815260040161014a90610683565b60405180910390fd5b60008060019054906101000a900460ff1615905080156101a3576001600060016101000a81548160ff02191690831515021790555060016000806101000a81548160ff0219169083151502179055505b8160018190555033600060026101000a81548173ffffffffffffffffffffffffffffffffffffffff021916908373ffffffffffffffffffffffffffffffffffffffff160217905550600060028190555080156102145760008060016101000a81548160ff0219169083151502179055505b5050565b60025481565b60008060029054906101000a900473ffffffffffffffffffffffffffffffffffffffff1673ffffffffffffffffffffffffffffffffffffffff163373ffffffffffffffffffffffffffffffffffffffff161461027957600080fd5b6060838360405160200161028e9291906105ee565b60405160208183030381529060405290508473ffffffffffffffffffffffffffffffffffffffff16816040516102c49190610616565b6000604051808303816000865af19150503d8060008114610301576040519150601f19603f3d011682016040523d82523d6000602084013e610306565b606091505b5050809250508161034c576040517f08c379a000000000000000000000000000000000000000000000000000000000815260040161034390610663565b60405180910390fd5b600260008154809291906001019190505550509392505050565b600061037130610377565b15905090565b600080823b905060008111915050919050565b60008135905061039981610808565b92915050565b6000813590506103ae8161081f565b92915050565b6000813590506103c381610836565b92915050565b600082601f8301126103da57600080fd5b81356103ed6103e8826106eb565b6106be565b9150808252602083016020830185838301111561040957600080fd5b6104148382846107bc565b50505092915050565b60008060006060848603121561043257600080fd5b60006104408682870161038a565b9350506020610451868287016103b4565b925050604084013567ffffffffffffffff81111561046e57600080fd5b61047a868287016103c9565b9150509250925092565b60006020828403121561049657600080fd5b60006104a48482850161039f565b91505092915050565b6104b681610750565b82525050565b6104c58161075c565b82525050565b6104dc6104d782610766565b6107fe565b82525050565b60006104ed82610717565b6104f78185610722565b93506105078185602086016107cb565b80840191505092915050565b600061052060308361072d565b91507f424c5357616c6c65743a20616374696f6e206661696c656420746f2063616c6c60008301527f20656e636f64656446756e6374696f6e000000000000000000000000000000006020830152604082019050919050565b6000610586602e8361072d565b91507f496e697469616c697a61626c653a20636f6e747261637420697320616c72656160008301527f647920696e697469616c697a65640000000000000000000000000000000000006020830152604082019050919050565b6105e8816107b2565b82525050565b60006105fa82856104cb565b60048201915061060a82846104e2565b91508190509392505050565b600061062282846104e2565b915081905092915050565b600060208201905061064260008301846104ad565b92915050565b600060208201905061065d60008301846104bc565b92915050565b6000602082019050818103600083015261067c81610513565b9050919050565b6000602082019050818103600083015261069c81610579565b9050919050565b60006020820190506106b860008301846105df565b92915050565b6000604051905081810181811067ffffffffffffffff821117156106e157600080fd5b8060405250919050565b600067ffffffffffffffff82111561070257600080fd5b601f19601f8301169050602081019050919050565b600081519050919050565b600081905092915050565b600082825260208201905092915050565b600061074982610792565b9050919050565b60008115159050919050565b6000819050919050565b60007fffffffff0000000000000000000000000000000000000000000000000000000082169050919050565b600073ffffffffffffffffffffffffffffffffffffffff82169050919050565b6000819050919050565b82818337600083830152505050565b60005b838110156107e95780820151818401526020810190506107ce565b838111156107f8576000848401525b50505050565b6000819050919050565b6108118161073e565b811461081c57600080fd5b50565b6108288161075c565b811461083357600080fd5b50565b61083f81610766565b811461084a57600080fd5b5056fea26469706673582212201279f823f60621d7ce048c0ec5da764c0a826235c6d6608dcee3e355c5daa92a64736f6c63430007000033",
  "linkReferences": {},
  "deployedLinkReferences": {}
}