{
  "_format": "hh-sol-artifact-1",
  "contractName": "BLSWallet",
  "sourceName": "contracts/BLSWallet.sol",
  "abi": [
    {
      "inputs": [
        {
          "internalType": "address",
          "name": "aggregator",
          "type": "address"
        },
        {
          "internalType": "contract IERC20",
          "name": "token",
          "type": "address"
        }
      ],
      "stateMutability": "nonpayable",
      "type": "constructor"
    },
    {
      "anonymous": false,
      "inputs": [
        {
          "indexed": false,
          "internalType": "uint256",
          "name": "amount",
          "type": "uint256"
        },
        {
          "indexed": true,
          "internalType": "address",
          "name": "account",
          "type": "address"
        },
        {
          "indexed": false,
          "internalType": "uint256[4]",
          "name": "pubkey",
          "type": "uint256[4]"
        }
      ],
      "name": "DepositReceived",
      "type": "event"
    },
    {
      "anonymous": false,
      "inputs": [
        {
          "indexed": false,
          "internalType": "uint256",
          "name": "amount",
          "type": "uint256"
        },
        {
          "indexed": true,
          "internalType": "address",
          "name": "account",
          "type": "address"
        }
      ],
      "name": "WithdrawSent",
      "type": "event"
    },
    {
      "inputs": [
        {
          "internalType": "address",
          "name": "account",
          "type": "address"
        }
      ],
      "name": "balanceOf",
      "outputs": [
        {
          "internalType": "uint256",
          "name": "",
          "type": "uint256"
        }
      ],
      "stateMutability": "view",
      "type": "function"
    },
    {
      "inputs": [
        {
          "internalType": "uint256[4]",
          "name": "blsPubKey",
          "type": "uint256[4]"
        },
        {
          "internalType": "uint256",
          "name": "amount",
          "type": "uint256"
        }
      ],
      "name": "deposit",
      "outputs": [],
      "stateMutability": "nonpayable",
      "type": "function"
    },
    {
      "inputs": [],
      "name": "senderKeyExists",
      "outputs": [
        {
          "internalType": "bool",
          "name": "",
          "type": "bool"
        }
      ],
      "stateMutability": "pure",
      "type": "function"
    },
    {
      "inputs": [
        {
          "internalType": "address",
          "name": "recipient",
          "type": "address"
        },
        {
          "internalType": "uint256",
          "name": "amount",
          "type": "uint256"
        }
      ],
      "name": "transfer",
      "outputs": [],
      "stateMutability": "nonpayable",
      "type": "function"
    },
    {
      "inputs": [
        {
          "internalType": "uint256[2]",
          "name": "signature",
          "type": "uint256[2]"
        },
        {
          "internalType": "address[]",
          "name": "fromAccounts",
          "type": "address[]"
        },
        {
          "internalType": "uint256[2][]",
          "name": "messages",
          "type": "uint256[2][]"
        },
        {
          "internalType": "address[]",
          "name": "recipients",
          "type": "address[]"
        },
        {
          "internalType": "uint256[]",
          "name": "amounts",
          "type": "uint256[]"
        }
      ],
      "name": "transferBatch",
      "outputs": [],
      "stateMutability": "nonpayable",
      "type": "function"
    },
    {
      "inputs": [],
      "name": "withdraw",
      "outputs": [],
      "stateMutability": "nonpayable",
      "type": "function"
    }
  ],
  "bytecode": "0x608060405263feedbee5604051602001808263ffffffff1660e01b815260040191505060405160208183030381529060405280519060200120600255604051806080016040528060008152602001600081526020016000815260200160008152506003906004620000729291906200018c565b506000600960006101000a81548173ffffffffffffffffffffffffffffffffffffffff021916908373ffffffffffffffffffffffffffffffffffffffff160217905550348015620000c257600080fd5b50604051620037113803806200371183398181016040526040811015620000e857600080fd5b81019080805190602001909291908051906020019092919050505081600160006101000a81548173ffffffffffffffffffffffffffffffffffffffff021916908373ffffffffffffffffffffffffffffffffffffffff160217905550806000806101000a81548173ffffffffffffffffffffffffffffffffffffffff021916908373ffffffffffffffffffffffffffffffffffffffff1602179055505050620001f0565b8260048101928215620001be579160200282015b82811115620001bd578251825591602001919060010190620001a0565b5b509050620001cd9190620001d1565b5090565b5b80821115620001ec576000816000905550600101620001d2565b5090565b61351180620002006000396000f3fe608060405234801561001057600080fd5b50600436106100625760003560e01c806334d07dea146100675780633ccfd60b146101e95780636101e6e9146101f357806370a08231146102135780639af66c391461026b578063a9059cbb146102da575b600080fd5b6101e7600480360360c081101561007d57600080fd5b8101908080604001909192919290803590602001906401000000008111156100a457600080fd5b8201836020820111156100b657600080fd5b803590602001918460208302840111640100000000831117156100d857600080fd5b9091929391929390803590602001906401000000008111156100f957600080fd5b82018360208201111561010b57600080fd5b8035906020019184604083028401116401000000008311171561012d57600080fd5b90919293919293908035906020019064010000000081111561014e57600080fd5b82018360208201111561016057600080fd5b8035906020019184602083028401116401000000008311171561018257600080fd5b9091929391929390803590602001906401000000008111156101a357600080fd5b8201836020820111156101b557600080fd5b803590602001918460208302840111640100000000831117156101d757600080fd5b9091929391929390505050610328565b005b6101f1610a1a565b005b6101fb610c46565b60405180821515815260200191505060405180910390f35b6102556004803603602081101561022957600080fd5b81019080803573ffffffffffffffffffffffffffffffffffffffff169060200190929190505050610c4b565b6040518082815260200191505060405180910390f35b6102d8600480360360a081101561028157600080fd5b8101908080608001906004806020026040519081016040528092919082600460200280828437600081840152601f19601f820116905080830192505050505050919291929080359060200190929190505050610c94565b005b610326600480360360408110156102f057600080fd5b81019080803573ffffffffffffffffffffffffffffffffffffffff16906020019092919080359060200190929190505050610e9d565b005b600160009054906101000a900473ffffffffffffffffffffffffffffffffffffffff1673ffffffffffffffffffffffffffffffffffffffff163373ffffffffffffffffffffffffffffffffffffffff161461038257600080fd5b60606040518060400160405280601981526020017f7472616e7366657228616464726573732c75696e7432353629000000000000008152509050600089899050905080888890501461041f576040517f08c379a000000000000000000000000000000000000000000000000000000000815260040180806020018281038252602b8152602001806133bf602b913960400191505060405180910390fd5b80868690501461047a576040517f08c379a000000000000000000000000000000000000000000000000000000000815260040180806020018281038252602d815260200180613463602d913960400191505060405180910390fd5b8084849050146104d5576040517f08c379a000000000000000000000000000000000000000000000000000000000815260040180806020018281038252602a815260200180613490602a913960400191505060405180910390fd5b60608167ffffffffffffffff811180156104ee57600080fd5b5060405190808252806020026020018201604052801561052857816020015b6105156132cf565b81526020019060019003908161050d5790505b5090506000805b838110156108c657600760008e8e8481811061054757fe5b9050602002013573ffffffffffffffffffffffffffffffffffffffff1673ffffffffffffffffffffffffffffffffffffffff1673ffffffffffffffffffffffffffffffffffffffff1681526020019081526020016000206004806020026040519081016040528092919082600480156105d5576020028201915b8154815260200190600101908083116105c1575b50505050508382815181106105e657fe5b60200260200101819052506060858a8a8481811061060057fe5b9050602002013573ffffffffffffffffffffffffffffffffffffffff1689898581811061062957fe5b90506020020135604051602401808373ffffffffffffffffffffffffffffffffffffffff16815260200182815260200192505050604051602081830303815290604052906040518082805190602001908083835b602083106106a0578051825260208201915060208101905060208303925061067d565b6001836020036101000a03801982511681845116808217855250505050505090500191505060405180910390207bffffffffffffffffffffffffffffffffffffffffffffffffffffffff19166020820180517bffffffffffffffffffffffffffffffffffffffffffffffffffffffff838183161783525050505090506000818051906020012090506107306132f1565b61075b60025483604051602001808281526020019150506040516020818303038152906040526110c2565b90506107788e8e8681811061076c57fe5b90506040020182611272565b156108b6578f8f8581811061078957fe5b9050602002013573ffffffffffffffffffffffffffffffffffffffff16600960006101000a81548173ffffffffffffffffffffffffffffffffffffffff021916908373ffffffffffffffffffffffffffffffffffffffff16021790555060003073ffffffffffffffffffffffffffffffffffffffff16846040518082805190602001908083835b602083106108335780518252602082019150602081019050602083039250610810565b6001836020036101000a0380198251168184511680821785525050505050509050019150506000604051808303816000865af19150503d8060008114610895576040519150601f19603f3d011682016040523d82523d6000602084013e61089a565b606091505b50509050806108aa5760006108ad565b60015b60ff1686019550505b505050808060010191505061052f565b506000806109898f6002806020026040519081016040528092919082600260200280828437600081840152601f19601f820116905080830192505050505050858e8e808060200260200160405190810160405280939291908181526020016000905b8282101561097f578484839050604002016002806020026040519081016040528092919082600260200280828437600081840152601f19601f82011690508083019250505050505081526020019060010190610928565b50505050506112d1565b915091508080156109975750815b610a09576040517f08c379a00000000000000000000000000000000000000000000000000000000081526004018080602001828103825260208152602001807f424c5357616c6c65743a20416c6c2073696773206e6f7420766572696669656481525060200191505060405180910390fd5b505050505050505050505050505050565b6000600860003373ffffffffffffffffffffffffffffffffffffffff1673ffffffffffffffffffffffffffffffffffffffff168152602001908152602001600020549050610ae3600760003373ffffffffffffffffffffffffffffffffffffffff1673ffffffffffffffffffffffffffffffffffffffff1681526020019081526020016000206003600480602002604051908101604052809291908260048015610ad9576020028201915b815481526020019060010190808311610ac5575b5050505050611730565b6000600860003373ffffffffffffffffffffffffffffffffffffffff1673ffffffffffffffffffffffffffffffffffffffff1681526020019081526020016000208190555060008054906101000a900473ffffffffffffffffffffffffffffffffffffffff1673ffffffffffffffffffffffffffffffffffffffff1663a9059cbb33836040518363ffffffff1660e01b8152600401808373ffffffffffffffffffffffffffffffffffffffff16815260200182815260200192505050602060405180830381600087803b158015610bb957600080fd5b505af1158015610bcd573d6000803e3d6000fd5b505050506040513d6020811015610be357600080fd5b8101908080519060200190929190505050503373ffffffffffffffffffffffffffffffffffffffff167fc762785058f810bb52a40d90cf5020feb05ba04f54ffe353272d1c684cc35c9e826040518082815260200191505060405180910390a250565b600090565b6000600860008373ffffffffffffffffffffffffffffffffffffffff1673ffffffffffffffffffffffffffffffffffffffff168152602001908152602001600020549050919050565b60008054906101000a900473ffffffffffffffffffffffffffffffffffffffff1673ffffffffffffffffffffffffffffffffffffffff166323b872dd3330846040518463ffffffff1660e01b8152600401808473ffffffffffffffffffffffffffffffffffffffff1681526020018373ffffffffffffffffffffffffffffffffffffffff1681526020018281526020019350505050602060405180830381600087803b158015610d4357600080fd5b505af1158015610d57573d6000803e3d6000fd5b505050506040513d6020811015610d6d57600080fd5b81019080805190602001909291905050505081600760003373ffffffffffffffffffffffffffffffffffffffff1673ffffffffffffffffffffffffffffffffffffffff168152602001908152602001600020906004610dcd929190613313565b5080600860003373ffffffffffffffffffffffffffffffffffffffff1673ffffffffffffffffffffffffffffffffffffffff168152602001908152602001600020600082825401925050819055503373ffffffffffffffffffffffffffffffffffffffff167f029d867c88345e0034448f03ef59534dab9fb565491a5a159a038ed92aadfb6f82846040518083815260200182600460200280838360005b83811015610e86578082015181840152602081019050610e6b565b505050509050019250505060405180910390a25050565b3073ffffffffffffffffffffffffffffffffffffffff163373ffffffffffffffffffffffffffffffffffffffff161415610f7e57600073ffffffffffffffffffffffffffffffffffffffff16600960009054906101000a900473ffffffffffffffffffffffffffffffffffffffff1673ffffffffffffffffffffffffffffffffffffffff161415610f79576040517f08c379a000000000000000000000000000000000000000000000000000000000815260040180806020018281038252602c815260200180613393602c913960400191505060405180910390fd5b610fc0565b33600960006101000a81548173ffffffffffffffffffffffffffffffffffffffff021916908373ffffffffffffffffffffffffffffffffffffffff1602179055505b8060086000600960009054906101000a900473ffffffffffffffffffffffffffffffffffffffff1673ffffffffffffffffffffffffffffffffffffffff1673ffffffffffffffffffffffffffffffffffffffff1681526020019081526020016000206000828254039250508190555080600860008473ffffffffffffffffffffffffffffffffffffffff1673ffffffffffffffffffffffffffffffffffffffff168152602001908152602001600020600082825401925050819055506000600960006101000a81548173ffffffffffffffffffffffffffffffffffffffff021916908373ffffffffffffffffffffffffffffffffffffffff1602179055505050565b6110ca6132f1565b6110d26132f1565b6110dc8484611770565b90506110e66132f1565b611100826000600281106110f657fe5b6020020151611901565b905061110a6132f1565b6111248360016002811061111a57fe5b6020020151611901565b905061112e6132cf565b8260006002811061113b57fe5b60200201518160006004811061114d57fe5b6020020181815250508260016002811061116357fe5b60200201518160016004811061117557fe5b6020020181815250508160006002811061118b57fe5b60200201518160026004811061119d57fe5b602002018181525050816001600281106111b357fe5b6020020151816003600481106111c557fe5b602002018181525050600060408460808460066107d05a03fa905080600081146111ee576111f0565bfe5b5080611264576040517f08c379a00000000000000000000000000000000000000000000000000000000081526004018080602001828103825260178152602001807f424c533a20626e206164642063616c6c206661696c656400000000000000000081525060200191505060405180910390fd5b839550505050505092915050565b60008160006002811061128157fe5b60200201518360006002811061129357fe5b60200201351490508080156112c95750816001600281106112b057fe5b6020020151836001600281106112c257fe5b6020020135145b905092915050565b60008060008451905060008111611333576040517f08c379a000000000000000000000000000000000000000000000000000000000815260040180806020018281038252602181526020018061341f6021913960400191505060405180910390fd5b8351811461138c576040517f08c379a00000000000000000000000000000000000000000000000000000000081526004018080602001828103825260358152602001806133ea6035913960400191505060405180910390fd5b600060066001830102905060608167ffffffffffffffff811180156113b057600080fd5b506040519080825280602002602001820160405280156113df5781602001602082028036833780820191505090505b509050876000600281106113ef57fe5b60200201518160008151811061140157fe5b6020026020010181815250508760016002811061141a57fe5b60200201518160018151811061142c57fe5b6020026020010181815250507f198e9393920d483a7260bfb731fb5d25f1aa493335a9e71297e485b7aef312c28160028151811061146657fe5b6020026020010181815250507f1800deef121f1e76426a00665e5c4479674322d4f75edadd46debd5cd992f6ed816003815181106114a057fe5b6020026020010181815250507f275dc4a288d1afb3cbb1ac09187524c7db36395df7be3b99e673b13a075a65ec816004815181106114da57fe5b6020026020010181815250507f1d9befcd05a5323e6da4d435f3b617cdb3af83285c2df711ef39c01571827f9d8160058151811061151457fe5b60200260200101818152505060005b838110156116c95786818151811061153757fe5b602002602001015160006002811061154b57fe5b6020020151826006808402018151811061156157fe5b60200260200101818152505086818151811061157957fe5b602002602001015160016002811061158d57fe5b60200201518260076006840201815181106115a457fe5b6020026020010181815250508781815181106115bc57fe5b60200260200101516001600481106115d057fe5b60200201518260086006840201815181106115e757fe5b6020026020010181815250508781815181106115ff57fe5b602002602001015160006004811061161357fe5b602002015182600960068402018151811061162a57fe5b60200260200101818152505087818151811061164257fe5b602002602001015160036004811061165657fe5b602002015182600a60068402018151811061166d57fe5b60200260200101818152505087818151811061168557fe5b602002602001015160026004811061169957fe5b602002015182600b6006840201815181106116b057fe5b6020026020010181815250508080600101915050611523565b506116d2613353565b60006116dd85611fa9565b90506020826020860260208601600885fa95508561170657600080965096505050505050611728565b60008260006001811061171557fe5b6020020151141560019650965050505050505b935093915050565b60005b600481101561176b5781816004811061174857fe5b602002015183826004811061175957fe5b01819055508080600101915050611733565b505050565b6117786132f1565b60606117848484611fc9565b90506000806000806018850177ffffffffffffffffffffffffffffffffffffffffffffffff815116935060308601905077ffffffffffffffffffffffffffffffffffffffffffffffff81511694507f30644e72e131a029b85045b68181585d97816a916871ca8d3c208c16d87cfd47857f30644e72e131a029b85045b68181585d97816a916871ca8d3c208c16d87cfd477801000000000000000000000000000000000000000000000000870908925060488601905077ffffffffffffffffffffffffffffffffffffffffffffffff815116935060608601905077ffffffffffffffffffffffffffffffffffffffffffffffff81511694507f30644e72e131a029b85045b68181585d97816a916871ca8d3c208c16d87cfd47857f30644e72e131a029b85045b68181585d97816a916871ca8d3c208c16d87cfd4778010000000000000000000000000000000000000000000000008709089150506040518060400160405280838152602001828152509550505050505092915050565b6119096132f1565b7f30644e72e131a029b85045b68181585d97816a916871ca8d3c208c16d87cfd478210611981576040517f08c379a00000000000000000000000000000000000000000000000000000000081526004018080602001828103825260238152602001806134406023913960400191505060405180910390fd5b60008290506000611991826123d9565b91505060007f30644e72e131a029b85045b68181585d97816a916871ca8d3c208c16d87cfd47806119be57fe5b83840990507f30644e72e131a029b85045b68181585d97816a916871ca8d3c208c16d87cfd47806119eb57fe5b60048208905060007f30644e72e131a029b85045b68181585d97816a916871ca8d3c208c16d87cfd4780611a1b57fe5b77b3c4d79d41a91759a9e4c7e359b6b89eaec68e62effffffd8509905060007f30644e72e131a029b85045b68181585d97816a916871ca8d3c208c16d87cfd4780611a6257fe5b8383099050611a708161241b565b90507f30644e72e131a029b85045b68181585d97816a916871ca8d3c208c16d87cfd4780611a9a57fe5b82830991507f30644e72e131a029b85045b68181585d97816a916871ca8d3c208c16d87cfd4780611ac757fe5b81830991507f30644e72e131a029b85045b68181585d97816a916871ca8d3c208c16d87cfd4780611af457fe5b82860991507f30644e72e131a029b85045b68181585d97816a916871ca8d3c208c16d87cfd4780611b2157fe5b827f30644e72e131a029b85045b68181585d97816a916871ca8d3c208c16d87cfd47037759e26bcea0d48bacd4f263f1acdb5c4f5763473177fffffe0894507f30644e72e131a029b85045b68181585d97816a916871ca8d3c208c16d87cfd4780611b8857fe5b85860991507f30644e72e131a029b85045b68181585d97816a916871ca8d3c208c16d87cfd4780611bb557fe5b85830991507f30644e72e131a029b85045b68181585d97816a916871ca8d3c208c16d87cfd4780611be257fe5b6003830891506000611bf3836123d9565b80925081945050508015611c4e5784611c2c57827f30644e72e131a029b85045b68181585d97816a916871ca8d3c208c16d87cfd470392505b6040518060400160405280878152602001848152509650505050505050611fa4565b7f30644e72e131a029b85045b68181585d97816a916871ca8d3c208c16d87cfd4780611c7657fe5b600187087f30644e72e131a029b85045b68181585d97816a916871ca8d3c208c16d87cfd470395507f30644e72e131a029b85045b68181585d97816a916871ca8d3c208c16d87cfd4780611cc657fe5b86870992507f30644e72e131a029b85045b68181585d97816a916871ca8d3c208c16d87cfd4780611cf357fe5b86840992507f30644e72e131a029b85045b68181585d97816a916871ca8d3c208c16d87cfd4780611d2057fe5b600384089250611d2f836123d9565b80925081945050508015611d8a5784611d6857827f30644e72e131a029b85045b68181585d97816a916871ca8d3c208c16d87cfd470392505b6040518060400160405280878152602001848152509650505050505050611fa4565b7f30644e72e131a029b85045b68181585d97816a916871ca8d3c208c16d87cfd4780611db257fe5b84850995507f30644e72e131a029b85045b68181585d97816a916871ca8d3c208c16d87cfd4780611ddf57fe5b86870995507f30644e72e131a029b85045b68181585d97816a916871ca8d3c208c16d87cfd4780611e0c57fe5b82870995507f30644e72e131a029b85045b68181585d97816a916871ca8d3c208c16d87cfd4780611e3957fe5b82870995507f30644e72e131a029b85045b68181585d97816a916871ca8d3c208c16d87cfd4780611e6657fe5b6001870895507f30644e72e131a029b85045b68181585d97816a916871ca8d3c208c16d87cfd4780611e9457fe5b86870992507f30644e72e131a029b85045b68181585d97816a916871ca8d3c208c16d87cfd4780611ec157fe5b86840992507f30644e72e131a029b85045b68181585d97816a916871ca8d3c208c16d87cfd4780611eee57fe5b600384089250611efd836123d9565b809250819450505080611f5b576040517f08c379a00000000000000000000000000000000000000000000000000000000081526004018080602001828103825260228152602001806134ba6022913960400191505060405180910390fd5b84611f8657827f30644e72e131a029b85045b68181585d97816a916871ca8d3c208c16d87cfd470392505b60405180604001604052808781526020018481525096505050505050505b919050565b60008061afc8905060006184d09050600184018102820192505050919050565b606060008251905060606004604083602001010167ffffffffffffffff81118015611ff357600080fd5b506040519080825280601f01601f1916602001820160405280156120265781602001600182028036833780820191505090505b50905060608067ffffffffffffffff8111801561204257600080fd5b506040519080825280601f01601f1916602001820160405280156120755781602001600182028036833780820191505090505b5090506060820160005b8481101561209d57602081018701518183015260208101905061207f565b508381019050600081536001810190506060815360018101905060008153600181019050868152602081019050602081535060006002836040518082805190602001908083835b6020831061210757805182526020820191506020810190506020830392506120e4565b6001836020036101000a038019825116818451168082178552505050505050905001915050602060405180830381855afa158015612149573d6000803e3d6000fd5b5050506040513d602081101561215e57600080fd5b8101908080519060200190929190505050905060006042945084845281602085015260016040850153876041850152602060416020018501536002846040518082805190602001908083835b602083106121cd57805182526020820191506020810190506020830392506121aa565b6001836020036101000a038019825116818451168082178552505050505050905001915050602060405180830381855afa15801561220f573d6000803e3d6000fd5b5050506040513d602081101561222457600080fd5b810190808051906020019092919050505090508060208401528082188060208601526002604086015388604186015260206041602001860153506002846040518082805190602001908083835b602083106122945780518252602082019150602081019050602083039250612271565b6001836020036101000a038019825116818451168082178552505050505050905001915050602060405180830381855afa1580156122d6573d6000803e3d6000fd5b5050506040513d60208110156122eb57600080fd5b810190808051906020019092919050505090508060408401528082188060208601526003604086015388604186015260206041602001860153506002846040518082805190602001908083835b6020831061235b5780518252602082019150602081019050602083039250612338565b6001836020036101000a038019825116818451168082178552505050505050905001915050602060405180830381855afa15801561239d573d6000803e3d6000fd5b5050506040513d60208110156123b257600080fd5b81019080805190602001909291905050509050806060840152829550505050505092915050565b6000806123e58361242d565b9150827f30644e72e131a029b85045b68181585d97816a916871ca8d3c208c16d87cfd478061241057fe5b838409149050915091565b600061242682612b75565b9050919050565b60007f30644e72e131a029b85045b68181585d97816a916871ca8d3c208c16d87cfd478083840991508083830981838209828283098385830984848309858484098684850997508684840987858409945087898a09985087898a09985087898a09985087898a09985087898a09985087878a09985087898a09985087898a09985087898a099850878a8a09985087898a09985087898a09985087898a09985087898a099850878a8a09985087898a09985087898a09985087898a09985087898a09985087898a09985087848a09985087898a09985087898a09985087898a09985087898a09985087898a09985087848a09985087898a09985087898a09985087898a099850878a8a09985087898a09985087898a09985087898a09985087898a09985087848a09985087898a09985087898a09985087898a09985087898a09985087898a099850878a8a09985087898a09985087898a09985087898a09985087898a09985087878a09985087898a09985087898a09985087898a09985087898a09985087898a09985087898a09985087898a09985087818a09985087898a09985087898a09985087898a09985087898a09985087898a09985087898a09985087898a09985087898a09985087898a09985087898a09985087868a09985087898a09985087898a09985087898a09985087898a09985087878a09985087898a09985087898a09985087898a09985087898a09985087848a09985087898a09985087898a09985087898a09985087898a09985087898a09985087898a09985087898a09985087868a09985087898a09985087898a09985087898a09985087898a09985087898a09985087898a099850878a8a09985087898a09985087898a09985087898a09985087898a09985087898a09985087898a09985087898a09985087828a09985087898a09985087898a09985087898a09985087898a09985087898a09985087818a09985087898a09985087898a09985087898a09985087868a09985087898a09985087898a09985087898a09985087898a09985087898a09985087898a09985087898a09985087898a09985087878a09985087898a09985087898a09985087898a09985087898a09985087898a09985087898a09985087898a09985087898a09985087898a09985087868a09985087898a09985087898a09985087898a09985087878a09985087898a09985087898a09985087898a09985087898a09985087898a09985087898a09985087898a09985087898a09985087828a09985087898a09985087898a09985087898a09985087898a09985087828a09985087898a09985087898a09985087898a09985087898a09985087898a09985087868a09985087898a09985087898a09985087898a09985087848a09985087898a09985087898a09985087898a09985087898a09985087898a09985087898a09985087898a09985087898a09985087898a09985087898a09985087828a09985087898a09985087898a09985087898a09985087898a09985087868a09985087898a09985087898a09985087898a09985087898a09985087898a09985087838a09985087898a09985087898a09985087898a09985087898a09985087898a09985087898a09985087898a09985087828a09985087898a09985087898a099850878a8a09985087898a09985087898a09985087898a09985087898a09985087898a09985087898a09985087898a09985087848a09985087898a09985087898a09985087898a09985087898a09985087898a09985087898a09985087848a09985087898a09985087898a09985087898a09985087898a09985087898a09985087868a09985087898a09985087898a099850878a8a09985087898a09985087898a09985087898a09985087898a09985087898a09985087898a09985087898a09985087818a09985087898a09985087898a09985087898a09985087898a09985087898a09985087898a09985087858a09985087898a09985087898a09985087898a09985087898a09985087898a099850878a8a09985087898a09985087898a09985087898a09985087898a09985087898a09985087898a099850878a8a09985087898a09985087898a09985087898a09985087898a09985087898a09985087878a09985087898a09985087898a09985087898a09985087898a09985087898a09985087898a09985087898a09985087898a09985087898a09985087828a09985087898a09985087898a09985087898a09985087878a09985087898a09985087898a09985087898a09985087878a09985087898a09985087898a09985087898a09985087898a09985087898a09985087898a09985087898a09985087898a09985087858a09985087898a09985087898a09985087898a09985087898a09985087838a09985087898a09985087898a09985087898a09985087898a09985087858a09985087898a09985087898a09985087898a09985087868a09985087898a09985087898a09985087898a09985087898a09985087898a09985087838a09985087898a0998505050505050505050919050565b60007f30644e72e131a029b85045b68181585d97816a916871ca8d3c208c16d87cfd478083840991508083830981838209828283098385830984848309858484098684850997508684840987858409945087898a09985087898a09985087898a09985087898a09985087898a09985087878a09985087898a09985087898a09985087898a099850878a8a09985087898a09985087898a09985087898a09985087898a099850878a8a09985087898a09985087898a09985087898a09985087898a09985087898a09985087848a09985087898a09985087898a09985087898a09985087898a09985087898a09985087848a09985087898a09985087898a09985087898a099850878a8a09985087898a09985087898a09985087898a09985087898a09985087848a09985087898a09985087898a09985087898a09985087898a09985087898a099850878a8a09985087898a09985087898a09985087898a09985087898a09985087878a09985087898a09985087898a09985087898a09985087898a09985087898a09985087898a09985087898a09985087818a09985087898a09985087898a09985087898a09985087898a09985087898a09985087898a09985087898a09985087898a09985087898a09985087898a09985087868a09985087898a09985087898a09985087898a09985087898a09985087878a09985087898a09985087898a09985087898a09985087898a09985087848a09985087898a09985087898a09985087898a09985087898a09985087898a09985087898a09985087898a09985087868a09985087898a09985087898a09985087898a09985087898a09985087898a09985087898a099850878a8a09985087898a09985087898a09985087898a09985087898a09985087898a09985087898a09985087898a09985087828a09985087898a09985087898a09985087898a09985087898a09985087898a09985087818a09985087898a09985087898a09985087898a09985087868a09985087898a09985087898a09985087898a09985087898a09985087898a09985087898a09985087898a09985087898a09985087878a09985087898a09985087898a09985087898a09985087898a09985087898a09985087898a09985087898a09985087898a09985087898a09985087868a09985087898a09985087898a09985087898a09985087878a09985087898a09985087898a09985087898a09985087898a09985087898a09985087898a09985087898a09985087898a09985087828a09985087898a09985087898a09985087898a09985087898a09985087828a09985087898a09985087898a09985087898a09985087898a09985087898a09985087868a09985087898a09985087898a09985087898a09985087848a09985087898a09985087898a09985087898a09985087898a09985087898a09985087898a09985087898a09985087898a09985087898a09985087898a09985087828a09985087898a09985087898a09985087898a09985087898a09985087868a09985087898a09985087898a09985087898a09985087898a09985087898a09985087838a09985087898a09985087898a09985087898a09985087898a09985087898a09985087898a09985087898a09985087828a09985087898a09985087898a099850878a8a09985087898a09985087898a09985087898a09985087898a09985087898a09985087898a09985087898a09985087848a09985087898a09985087898a09985087898a09985087898a09985087898a09985087898a09985087848a09985087898a09985087898a09985087898a09985087898a09985087898a09985087868a09985087898a09985087898a099850878a8a09985087898a09985087898a09985087898a09985087898a09985087898a09985087898a09985087898a09985087818a09985087898a09985087898a09985087898a09985087898a09985087898a09985087898a09985087858a09985087898a09985087898a09985087898a09985087898a09985087898a099850878a8a09985087898a09985087898a09985087898a09985087898a09985087898a09985087898a099850878a8a09985087898a09985087898a09985087898a09985087898a09985087898a09985087878a09985087898a09985087898a09985087898a09985087898a09985087898a09985087898a09985087898a09985087898a09985087898a09985087828a09985087898a09985087898a09985087898a09985087878a09985087898a09985087898a09985087898a09985087878a09985087898a09985087898a09985087898a09985087898a09985087898a09985087898a09985087898a09985087898a09985087858a09985087898a09985087898a09985087898a09985087898a09985087838a09985087898a09985087898a09985087898a09985087898a09985087858a09985087898a09985087898a09985087898a09985087868a09985087898a09985087898a099850878a8a09985087898a09985087898a09985087898a09985087898a09985087898a09985087898a09985087868a0998505050505050505050919050565b6040518060800160405280600490602082028036833780820191505090505090565b6040518060400160405280600290602082028036833780820191505090505090565b8260048101928215613342579160200282015b82811115613341578251825591602001919060010190613326565b5b50905061334f9190613375565b5090565b6040518060200160405280600190602082028036833780820191505090505090565b5b8082111561338e576000816000905550600101613376565b509056fe424c5357616c6c65743a207369676e6572206e6f7420736574206265666f722070726f786965642063616c6c424c5357616c6c65743a206163636f756e742f6d657373616765206c656e677468206d69736d617463682e424c533a206e756d626572206f66207075626c6963206b65797320616e64206d65737361676573206d75737420626520657175616c424c533a206e756d626572206f66207075626c6963206b6579206973207a65726f6d6170546f506f696e7446543a20696e76616c6964206669656c6420656c656d656e74424c5357616c6c65743a20726563697069656e742f6d657373616765206c656e677468206d69736d617463682e424c5357616c6c65743a20616d6f756e742f6d657373616765206c656e677468206d69736d617463682e424c533a20626164206674206d617070696e6720696d706c656d656e746174696f6ea2646970667358221220e91e8354ad1f7ea1ee6a38d5d738dfcd347226f498d0b0d4063ff4bc81fb37ad64736f6c63430007000033",
  "linkReferences": {},
  "deployedLinkReferences": {}
}