{
  "_format": "hh-sol-artifact-1",
  "contractName": "BLSWallet.ovm",
  "sourceName": "contracts/BLSWallet.sol",
  "abi": [
    {
      "inputs": [
        {
          "internalType": "address",
          "name": "aggregator",
          "type": "address"
        },
        {
          "internalType": "contract IERC20",
          "name": "token",
          "type": "address"
        }
      ],
      "stateMutability": "nonpayable",
      "type": "constructor"
    },
    {
      "anonymous": false,
      "inputs": [
        {
          "indexed": false,
          "internalType": "uint256",
          "name": "amount",
          "type": "uint256"
        },
        {
          "indexed": true,
          "internalType": "address",
          "name": "account",
          "type": "address"
        },
        {
          "indexed": false,
          "internalType": "uint256[4]",
          "name": "pubkey",
          "type": "uint256[4]"
        }
      ],
      "name": "DepositReceived",
      "type": "event"
    },
    {
      "anonymous": false,
      "inputs": [
        {
          "indexed": false,
          "internalType": "uint256",
          "name": "amount",
          "type": "uint256"
        },
        {
          "indexed": true,
          "internalType": "address",
          "name": "account",
          "type": "address"
        }
      ],
      "name": "WithdrawSent",
      "type": "event"
    },
    {
      "inputs": [
        {
          "internalType": "address",
          "name": "account",
          "type": "address"
        }
      ],
      "name": "balanceOf",
      "outputs": [
        {
          "internalType": "uint256",
          "name": "",
          "type": "uint256"
        }
      ],
      "stateMutability": "view",
      "type": "function"
    },
    {
      "inputs": [
        {
          "internalType": "uint256[4]",
          "name": "blsPubKey",
          "type": "uint256[4]"
        },
        {
          "internalType": "uint256",
          "name": "amount",
          "type": "uint256"
        }
      ],
      "name": "deposit",
      "outputs": [],
      "stateMutability": "nonpayable",
      "type": "function"
    },
    {
      "inputs": [],
      "name": "senderKeyExists",
      "outputs": [
        {
          "internalType": "bool",
          "name": "",
          "type": "bool"
        }
      ],
      "stateMutability": "pure",
      "type": "function"
    },
    {
      "inputs": [
        {
          "internalType": "address",
          "name": "recipient",
          "type": "address"
        },
        {
          "internalType": "uint256",
          "name": "amount",
          "type": "uint256"
        }
      ],
      "name": "transfer",
      "outputs": [],
      "stateMutability": "nonpayable",
      "type": "function"
    },
    {
      "inputs": [
        {
          "internalType": "uint256[2]",
          "name": "signature",
          "type": "uint256[2]"
        },
        {
          "internalType": "address[]",
          "name": "fromAccounts",
          "type": "address[]"
        },
        {
          "internalType": "uint256[2][]",
          "name": "messages",
          "type": "uint256[2][]"
        },
        {
          "internalType": "address[]",
          "name": "recipients",
          "type": "address[]"
        },
        {
          "internalType": "uint256[]",
          "name": "amounts",
          "type": "uint256[]"
        }
      ],
      "name": "transferBatch",
      "outputs": [],
      "stateMutability": "nonpayable",
      "type": "function"
    },
    {
      "inputs": [],
      "name": "withdraw",
      "outputs": [],
      "stateMutability": "nonpayable",
      "type": "function"
    }
  ],
  "bytecode": "0x608060405263feedbee5604051602001808263ffffffff1660e01b815260040191505060405160208183030381529060405280519060200120600262000044620001e9565b50506040518060800160405280600081526020016000815260200160008152602001600081525060039060046200007d92919062000250565b506000600960006101000a8162000093620002a0565b8173ffffffffffffffffffffffffffffffffffffffff021916908373ffffffffffffffffffffffffffffffffffffffff16021790620000d1620001e9565b505050348015620000ec57600080620000e962000305565b50505b50604051620040c9380380620040c9833981810160405260408110156200011d576000806200011a62000305565b50505b81019080805190602001909291908051906020019092919050505081600160006101000a816200014c620002a0565b8173ffffffffffffffffffffffffffffffffffffffff021916908373ffffffffffffffffffffffffffffffffffffffff160217906200018a620001e9565b505050806000806101000a81620001a0620002a0565b8173ffffffffffffffffffffffffffffffffffffffff021916908373ffffffffffffffffffffffffffffffffffffffff16021790620001de620001e9565b50505050506200039f565b6322bd64c0598160e01b8152836004820152846024820152600081604483336000905af158600e01573d6000803e3d6000fd5b3d6001141558600a015760016000f35b60005b60408110156200024b576000818301526020810190506200022f565b505050565b82600481019282156200028d579160200282015b828111156200028c578251826200027a620001e9565b50509160200191906001019062000264565b5b5090506200029c919062000375565b5090565b6303daa959598160e01b8152836004820152602081602483336000905af158600e01573d6000803e3d6000fd5b3d6001141558600a015760016000f35b8051935060005b60408110156200030057600081830152602081019050620002e4565b505050565b632a2a7adb598160e01b8152600481016020815285602082015260005b868110156200034257808601518160408401015260208101905062000322565b506020828760640184336000905af158600e01573d6000803e3d6000fd5b3d6001141558600a015760016000f35b505050565b5b808211156200039b576000816000906200038f620001e9565b50505060010162000376565b5090565b613d1a80620003af6000396000f3fe608060405234801561001957600080610016613705565b50505b506004361061006b5760003560e01c806334d07dea146100795780633ccfd60b146102705780636101e6e91461027a57806370a082311461029a5780639af66c39146102fb578063a9059cbb14610373575b600080610076613705565b50505b61026e600480360360c081101561009857600080610095613705565b50505b8101908080604001909192919290803590602001906401000000008111156100c8576000806100c5613705565b50505b8201836020820111156100e3576000806100e0613705565b50505b8035906020019184602083028401116401000000008311171561010e5760008061010b613705565b50505b90919293919293908035906020019064010000000081111561013857600080610135613705565b50505b82018360208201111561015357600080610150613705565b50505b8035906020019184604083028401116401000000008311171561017e5760008061017b613705565b50505b9091929391929390803590602001906401000000008111156101a8576000806101a5613705565b50505b8201836020820111156101c3576000806101c0613705565b50505b803590602001918460208302840111640100000000831117156101ee576000806101eb613705565b50505b90919293919293908035906020019064010000000081111561021857600080610215613705565b50505b82018360208201111561023357600080610230613705565b50505b8035906020019184602083028401116401000000008311171561025e5760008061025b613705565b50505b90919293919293905050506103ca565b005b610278610b81565b005b610282610e22565b60405180821515815260200191505060405180910390f35b6102e5600480360360208110156102b9576000806102b6613705565b50505b81019080803573ffffffffffffffffffffffffffffffffffffffff169060200190929190505050610e27565b6040518082815260200191505060405180910390f35b610371600480360360a081101561031a57600080610317613705565b50505b8101908080608001906004806020026040519081016040528092919082600460200280828437600081840152601f19601f820116905080830192505050505050919291929080359060200190929190505050610e77565b005b6103c8600480360360408110156103925760008061038f613705565b50505b81019080803573ffffffffffffffffffffffffffffffffffffffff16906020019092919080359060200190929190505050611141565b005b60016000906103d7613773565b906101000a900473ffffffffffffffffffffffffffffffffffffffff1673ffffffffffffffffffffffffffffffffffffffff165a6104136137d6565b73ffffffffffffffffffffffffffffffffffffffff161461043c57600080610439613705565b50505b60006040518060400160405280601981526020017f7472616e7366657228616464726573732c75696e743235362900000000000000815250905060008989905090508088889050146104e2576040517f08c379a000000000000000000000000000000000000000000000000000000000815260040180806020018281038252602b815260200180613bfd602b9139604001915050604051809103906104df613705565b50505b808686905014610546576040517f08c379a000000000000000000000000000000000000000000000000000000000815260040180806020018281038252602d815260200180613ca1602d913960400191505060405180910390610543613705565b50505b8084849050146105aa576040517f08c379a000000000000000000000000000000000000000000000000000000000815260040180806020018281038252602a815260200180613cce602a9139604001915050604051809103906105a7613705565b50505b60008167ffffffffffffffff811180156105cc576000806105c9613705565b50505b5060405190808252806020026020018201604052801561060657816020015b6105f3613833565b8152602001906001900390816105eb5790505b5090506000805b83811015610a2457600760008e8e8481811061062557fe5b9050602002013573ffffffffffffffffffffffffffffffffffffffff1673ffffffffffffffffffffffffffffffffffffffff1673ffffffffffffffffffffffffffffffffffffffff1681526020019081526020016000206004806020026040519081016040528092919082600480156106ba576020028201915b816106a8613773565b8152602001906001019080831161069f575b50505050508382815181106106cb57fe5b60200260200101819052506000858a8a848181106106e557fe5b9050602002013573ffffffffffffffffffffffffffffffffffffffff1689898581811061070e57fe5b90506020020135604051602401808373ffffffffffffffffffffffffffffffffffffffff16815260200182815260200192505050604051602081830303815290604052906040518082805190602001908083835b602083106107855780518252602082019150602081019050602083039250610762565b6001836020036101000a03801982511681845116808217855250505050505090500191505060405180910390207bffffffffffffffffffffffffffffffffffffffffffffffffffffffff19166020820180517bffffffffffffffffffffffffffffffffffffffffffffffffffffffff838183161783525050505090506000818051906020012090506000610841600261081c613773565b8360405160200180828152602001915050604051602081830303815290604052611428565b905061085e8e8e8681811061085257fe5b905060400201826115db565b15610a14578f8f8581811061086f57fe5b9050602002013573ffffffffffffffffffffffffffffffffffffffff16600960006101000a8161089d613773565b8173ffffffffffffffffffffffffffffffffffffffff021916908373ffffffffffffffffffffffffffffffffffffffff160217906108d9613855565b50505060005a63996d79a5598160e01b8152602081600483336000905af158600e01573d6000803e3d6000fd5b3d6001141558600a015760016000f35b8051925060005b60408110156109375760008183015260208101905061091d565b50505073ffffffffffffffffffffffffffffffffffffffff16846040518082805190602001908083835b602083106109845780518252602082019150602081019050602083039250610961565b6001836020036101000a0380198251168184511680821785525050505050509050019150506000604051808303816000865a6109be6138ba565b5050505050509150503d80600081146109f3576040519150601f19603f3d011682016040523d82523d6000602084013e6109f8565b606091505b5050905080610a08576000610a0b565b60015b60ff1686019550505b505050808060010191505061060d565b50600080610ae78f6002806020026040519081016040528092919082600260200280828437600081840152601f19601f820116905080830192505050505050858e8e808060200260200160405190810160405280939291908181526020016000905b82821015610add578484839050604002016002806020026040519081016040528092919082600260200280828437600081840152601f19601f82011690508083019250505050505081526020019060010190610a86565b505050505061163a565b91509150808015610af55750815b610b70576040517f08c379a00000000000000000000000000000000000000000000000000000000081526004018080602001828103825260208152602001807f424c5357616c6c65743a20416c6c2073696773206e6f7420766572696669656481525060200191505060405180910390610b6d613705565b50505b505050505050505050505050505050565b6000600860005a610b906137d6565b73ffffffffffffffffffffffffffffffffffffffff1673ffffffffffffffffffffffffffffffffffffffff168152602001908152602001600020610bd2613773565b9050610c68600760005a610be46137d6565b73ffffffffffffffffffffffffffffffffffffffff1673ffffffffffffffffffffffffffffffffffffffff1681526020019081526020016000206003600480602002604051908101604052809291908260048015610c5e576020028201915b81610c4c613773565b81526020019060010190808311610c43575b5050505050611ac0565b6000600860005a610c776137d6565b73ffffffffffffffffffffffffffffffffffffffff1673ffffffffffffffffffffffffffffffffffffffff1681526020019081526020016000208190610cbb613855565b505050600080610cc9613773565b906101000a900473ffffffffffffffffffffffffffffffffffffffff1673ffffffffffffffffffffffffffffffffffffffff1663a9059cbb5a610d0a6137d6565b836040518363ffffffff1660e01b8152600401808373ffffffffffffffffffffffffffffffffffffffff1681526020018281526020019250505060206040518083038160008780610d596139ba565b158015610d6e57600080610d6b613705565b50505b505a610d786138ba565b505050505050158015610d98573d6000803e3d6000610d95613705565b50505b505050506040513d6020811015610db757600080610db4613705565b50505b8101908080519060200190929190505050505a610dd26137d6565b73ffffffffffffffffffffffffffffffffffffffff167fc762785058f810bb52a40d90cf5020feb05ba04f54ffe353272d1c684cc35c9e826040518082815260200191505060405180910390a250565b600090565b6000600860008373ffffffffffffffffffffffffffffffffffffffff1673ffffffffffffffffffffffffffffffffffffffff168152602001908152602001600020610e70613773565b9050919050565b600080610e82613773565b906101000a900473ffffffffffffffffffffffffffffffffffffffff1673ffffffffffffffffffffffffffffffffffffffff166323b872dd5a610ec36137d6565b5a63996d79a5598160e01b8152602081600483336000905af158600e01573d6000803e3d6000fd5b3d6001141558600a015760016000f35b8051925060005b6040811015610f1c57600081830152602081019050610f02565b505050846040518463ffffffff1660e01b8152600401808473ffffffffffffffffffffffffffffffffffffffff1681526020018373ffffffffffffffffffffffffffffffffffffffff168152602001828152602001935050505060206040518083038160008780610f8b6139ba565b158015610fa057600080610f9d613705565b50505b505a610faa6138ba565b505050505050158015610fca573d6000803e3d6000610fc7613705565b50505b505050506040513d6020811015610fe957600080610fe6613705565b50505b81019080805190602001909291905050505081600760005a6110096137d6565b73ffffffffffffffffffffffffffffffffffffffff1673ffffffffffffffffffffffffffffffffffffffff168152602001908152602001600020906004611051929190613a1d565b5080600860005a6110606137d6565b73ffffffffffffffffffffffffffffffffffffffff1673ffffffffffffffffffffffffffffffffffffffff168152602001908152602001600020600082826110a6613773565b0192505081906110b4613855565b5050505a6110c06137d6565b73ffffffffffffffffffffffffffffffffffffffff167f029d867c88345e0034448f03ef59534dab9fb565491a5a159a038ed92aadfb6f82846040518083815260200182600460200280838360005b8381101561112a57808201518184015260208101905061110f565b505050509050019250505060405180910390a25050565b5a63996d79a5598160e01b8152602081600483336000905af158600e01573d6000803e3d6000fd5b3d6001141558600a015760016000f35b8051925060005b604081101561119a57600081830152602081019050611180565b50505073ffffffffffffffffffffffffffffffffffffffff165a6111bc6137d6565b73ffffffffffffffffffffffffffffffffffffffff16141561129557600073ffffffffffffffffffffffffffffffffffffffff1660096000906111fd613773565b906101000a900473ffffffffffffffffffffffffffffffffffffffff1673ffffffffffffffffffffffffffffffffffffffff161415611290576040517f08c379a000000000000000000000000000000000000000000000000000000000815260040180806020018281038252602c815260200180613bd1602c91396040019150506040518091039061128d613705565b50505b6112ef565b5a61129e6137d6565b600960006101000a816112af613773565b8173ffffffffffffffffffffffffffffffffffffffff021916908373ffffffffffffffffffffffffffffffffffffffff160217906112eb613855565b5050505b80600860006009600090611301613773565b906101000a900473ffffffffffffffffffffffffffffffffffffffff1673ffffffffffffffffffffffffffffffffffffffff1673ffffffffffffffffffffffffffffffffffffffff16815260200190815260200160002060008282611364613773565b039250508190611372613855565b50505080600860008473ffffffffffffffffffffffffffffffffffffffff1673ffffffffffffffffffffffffffffffffffffffff168152602001908152602001600020600082826113c1613773565b0192505081906113cf613855565b5050506000600960006101000a816113e5613773565b8173ffffffffffffffffffffffffffffffffffffffff021916908373ffffffffffffffffffffffffffffffffffffffff16021790611421613855565b5050505050565b611430613a66565b600061143c8484611b09565b9050600061145a8260006002811061145057fe5b6020020151611c9a565b905060006114788360016002811061146e57fe5b6020020151611c9a565b9050611482613833565b8260006002811061148f57fe5b6020020151816000600481106114a157fe5b602002018181525050826001600281106114b757fe5b6020020151816001600481106114c957fe5b602002018181525050816000600281106114df57fe5b6020020151816002600481106114f157fe5b6020020181815250508160016002811061150757fe5b60200201518160036004811061151957fe5b602002018181525050600060408460808460066107d05a03611539613a88565b50505050509050806000811461154e57611550565bfe5b50806115cd576040517f08c379a00000000000000000000000000000000000000000000000000000000081526004018080602001828103825260178152602001807f424c533a20626e206164642063616c6c206661696c6564000000000000000000815250602001915050604051809103906115ca613705565b50505b839550505050505092915050565b6000816000600281106115ea57fe5b6020020151836000600281106115fc57fe5b602002013514905080801561163257508160016002811061161957fe5b60200201518360016002811061162b57fe5b6020020135145b905092915050565b600080600084519050600081116116a5576040517f08c379a0000000000000000000000000000000000000000000000000000000008152600401808060200182810382526021815260200180613c5d60219139604001915050604051809103906116a2613705565b50505b83518114611707576040517f08c379a0000000000000000000000000000000000000000000000000000000008152600401808060200182810382526035815260200180613c286035913960400191505060405180910390611704613705565b50505b600060066001830102905060008167ffffffffffffffff8111801561173457600080611731613705565b50505b506040519080825280602002602001820160405280156117635781602001602082028036833780820191505090505b5090508760006002811061177357fe5b60200201518160008151811061178557fe5b6020026020010181815250508760016002811061179e57fe5b6020020151816001815181106117b057fe5b6020026020010181815250507f198e9393920d483a7260bfb731fb5d25f1aa493335a9e71297e485b7aef312c2816002815181106117ea57fe5b6020026020010181815250507f1800deef121f1e76426a00665e5c4479674322d4f75edadd46debd5cd992f6ed8160038151811061182457fe5b6020026020010181815250507f275dc4a288d1afb3cbb1ac09187524c7db36395df7be3b99e673b13a075a65ec8160048151811061185e57fe5b6020026020010181815250507f1d9befcd05a5323e6da4d435f3b617cdb3af83285c2df711ef39c01571827f9d8160058151811061189857fe5b60200260200101818152505060005b83811015611a4d578681815181106118bb57fe5b60200260200101516000600281106118cf57fe5b602002015182600680840201815181106118e557fe5b6020026020010181815250508681815181106118fd57fe5b602002602001015160016002811061191157fe5b602002015182600760068402018151811061192857fe5b60200260200101818152505087818151811061194057fe5b602002602001015160016004811061195457fe5b602002015182600860068402018151811061196b57fe5b60200260200101818152505087818151811061198357fe5b602002602001015160006004811061199757fe5b60200201518260096006840201815181106119ae57fe5b6020026020010181815250508781815181106119c657fe5b60200260200101516003600481106119da57fe5b602002015182600a6006840201815181106119f157fe5b602002602001018181525050878181518110611a0957fe5b6020026020010151600260048110611a1d57fe5b602002015182600b600684020181518110611a3457fe5b60200260200101818152505080806001019150506118a7565b50611a56613b88565b6000611a6185612354565b90506020826020860260208601600885611a79613a88565b5050505050955085611a9657600080965096505050505050611ab8565b600082600060018110611aa557fe5b6020020151141560019650965050505050505b935093915050565b60005b6004811015611b0457818160048110611ad857fe5b6020020151838260048110611ae957fe5b018190611af4613855565b5050508080600101915050611ac3565b505050565b611b11613a66565b6000611b1d8484612374565b90506000806000806018850177ffffffffffffffffffffffffffffffffffffffffffffffff815116935060308601905077ffffffffffffffffffffffffffffffffffffffffffffffff81511694507f30644e72e131a029b85045b68181585d97816a916871ca8d3c208c16d87cfd47857f30644e72e131a029b85045b68181585d97816a916871ca8d3c208c16d87cfd477801000000000000000000000000000000000000000000000000870908925060488601905077ffffffffffffffffffffffffffffffffffffffffffffffff815116935060608601905077ffffffffffffffffffffffffffffffffffffffffffffffff81511694507f30644e72e131a029b85045b68181585d97816a916871ca8d3c208c16d87cfd47857f30644e72e131a029b85045b68181585d97816a916871ca8d3c208c16d87cfd4778010000000000000000000000000000000000000000000000008709089150506040518060400160405280838152602001828152509550505050505092915050565b611ca2613a66565b7f30644e72e131a029b85045b68181585d97816a916871ca8d3c208c16d87cfd478210611d23576040517f08c379a0000000000000000000000000000000000000000000000000000000008152600401808060200182810382526023815260200180613c7e6023913960400191505060405180910390611d20613705565b50505b60008290506000611d338261280f565b91505060007f30644e72e131a029b85045b68181585d97816a916871ca8d3c208c16d87cfd4780611d6057fe5b83840990507f30644e72e131a029b85045b68181585d97816a916871ca8d3c208c16d87cfd4780611d8d57fe5b60048208905060007f30644e72e131a029b85045b68181585d97816a916871ca8d3c208c16d87cfd4780611dbd57fe5b77b3c4d79d41a91759a9e4c7e359b6b89eaec68e62effffffd8509905060007f30644e72e131a029b85045b68181585d97816a916871ca8d3c208c16d87cfd4780611e0457fe5b8383099050611e1281612851565b90507f30644e72e131a029b85045b68181585d97816a916871ca8d3c208c16d87cfd4780611e3c57fe5b82830991507f30644e72e131a029b85045b68181585d97816a916871ca8d3c208c16d87cfd4780611e6957fe5b81830991507f30644e72e131a029b85045b68181585d97816a916871ca8d3c208c16d87cfd4780611e9657fe5b82860991507f30644e72e131a029b85045b68181585d97816a916871ca8d3c208c16d87cfd4780611ec357fe5b827f30644e72e131a029b85045b68181585d97816a916871ca8d3c208c16d87cfd47037759e26bcea0d48bacd4f263f1acdb5c4f5763473177fffffe0894507f30644e72e131a029b85045b68181585d97816a916871ca8d3c208c16d87cfd4780611f2a57fe5b85860991507f30644e72e131a029b85045b68181585d97816a916871ca8d3c208c16d87cfd4780611f5757fe5b85830991507f30644e72e131a029b85045b68181585d97816a916871ca8d3c208c16d87cfd4780611f8457fe5b6003830891506000611f958361280f565b80925081945050508015611ff05784611fce57827f30644e72e131a029b85045b68181585d97816a916871ca8d3c208c16d87cfd470392505b604051806040016040528087815260200184815250965050505050505061234f565b7f30644e72e131a029b85045b68181585d97816a916871ca8d3c208c16d87cfd478061201857fe5b600187087f30644e72e131a029b85045b68181585d97816a916871ca8d3c208c16d87cfd470395507f30644e72e131a029b85045b68181585d97816a916871ca8d3c208c16d87cfd478061206857fe5b86870992507f30644e72e131a029b85045b68181585d97816a916871ca8d3c208c16d87cfd478061209557fe5b86840992507f30644e72e131a029b85045b68181585d97816a916871ca8d3c208c16d87cfd47806120c257fe5b6003840892506120d18361280f565b8092508194505050801561212c578461210a57827f30644e72e131a029b85045b68181585d97816a916871ca8d3c208c16d87cfd470392505b604051806040016040528087815260200184815250965050505050505061234f565b7f30644e72e131a029b85045b68181585d97816a916871ca8d3c208c16d87cfd478061215457fe5b84850995507f30644e72e131a029b85045b68181585d97816a916871ca8d3c208c16d87cfd478061218157fe5b86870995507f30644e72e131a029b85045b68181585d97816a916871ca8d3c208c16d87cfd47806121ae57fe5b82870995507f30644e72e131a029b85045b68181585d97816a916871ca8d3c208c16d87cfd47806121db57fe5b82870995507f30644e72e131a029b85045b68181585d97816a916871ca8d3c208c16d87cfd478061220857fe5b6001870895507f30644e72e131a029b85045b68181585d97816a916871ca8d3c208c16d87cfd478061223657fe5b86870992507f30644e72e131a029b85045b68181585d97816a916871ca8d3c208c16d87cfd478061226357fe5b86840992507f30644e72e131a029b85045b68181585d97816a916871ca8d3c208c16d87cfd478061229057fe5b60038408925061229f8361280f565b809250819450505080612306576040517f08c379a0000000000000000000000000000000000000000000000000000000008152600401808060200182810382526022815260200180613cf86022913960400191505060405180910390612303613705565b50505b8461233157827f30644e72e131a029b85045b68181585d97816a916871ca8d3c208c16d87cfd470392505b60405180604001604052808781526020018481525096505050505050505b919050565b60008061afc8905060006184d09050600184018102820192505050919050565b606060008251905060006004604083602001010167ffffffffffffffff811180156123a7576000806123a4613705565b50505b506040519080825280601f01601f1916602001820160405280156123da5781602001600182028036833780820191505090505b5090506000606067ffffffffffffffff81118015612400576000806123fd613705565b50505b506040519080825280601f01601f1916602001820160405280156124335781602001600182028036833780820191505090505b5090506060820160005b8481101561245b57602081018701518183015260208101905061243d565b508381019050600081536001810190506060815360018101905060008153600181019050868152602081019050602081535060006002836040518082805190602001908083835b602083106124c557805182526020820191506020810190506020830392506124a2565b6001836020036101000a038019825116818451168082178552505050505050905001915050602060405180830381855a6124fd613a88565b505050505015801561251c573d6000803e3d6000612519613705565b50505b5050506040513d602081101561253a57600080612537613705565b50505b8101908080519060200190929190505050905060006042945084845281602085015260016040850153876041850152602060416020018501536002846040518082805190602001908083835b602083106125a95780518252602082019150602081019050602083039250612586565b6001836020036101000a038019825116818451168082178552505050505050905001915050602060405180830381855a6125e1613a88565b5050505050158015612600573d6000803e3d60006125fd613705565b50505b5050506040513d602081101561261e5760008061261b613705565b50505b810190808051906020019092919050505090508060208401528082188060208601526002604086015388604186015260206041602001860153506002846040518082805190602001908083835b6020831061268e578051825260208201915060208101905060208303925061266b565b6001836020036101000a038019825116818451168082178552505050505050905001915050602060405180830381855a6126c6613a88565b50505050501580156126e5573d6000803e3d60006126e2613705565b50505b5050506040513d602081101561270357600080612700613705565b50505b810190808051906020019092919050505090508060408401528082188060208601526003604086015388604186015260206041602001860153506002846040518082805190602001908083835b602083106127735780518252602082019150602081019050602083039250612750565b6001836020036101000a038019825116818451168082178552505050505050905001915050602060405180830381855a6127ab613a88565b50505050501580156127ca573d6000803e3d60006127c7613705565b50505b5050506040513d60208110156127e8576000806127e5613705565b50505b81019080805190602001909291905050509050806060840152829550505050505092915050565b60008061281b83612863565b9150827f30644e72e131a029b85045b68181585d97816a916871ca8d3c208c16d87cfd478061284657fe5b838409149050915091565b600061285c82612fab565b9050919050565b60007f30644e72e131a029b85045b68181585d97816a916871ca8d3c208c16d87cfd478083840991508083830981838209828283098385830984848309858484098684850997508684840987858409945087898a09985087898a09985087898a09985087898a09985087898a09985087878a09985087898a09985087898a09985087898a099850878a8a09985087898a09985087898a09985087898a09985087898a099850878a8a09985087898a09985087898a09985087898a09985087898a09985087898a09985087848a09985087898a09985087898a09985087898a09985087898a09985087898a09985087848a09985087898a09985087898a09985087898a099850878a8a09985087898a09985087898a09985087898a09985087898a09985087848a09985087898a09985087898a09985087898a09985087898a09985087898a099850878a8a09985087898a09985087898a09985087898a09985087898a09985087878a09985087898a09985087898a09985087898a09985087898a09985087898a09985087898a09985087898a09985087818a09985087898a09985087898a09985087898a09985087898a09985087898a09985087898a09985087898a09985087898a09985087898a09985087898a09985087868a09985087898a09985087898a09985087898a09985087898a09985087878a09985087898a09985087898a09985087898a09985087898a09985087848a09985087898a09985087898a09985087898a09985087898a09985087898a09985087898a09985087898a09985087868a09985087898a09985087898a09985087898a09985087898a09985087898a09985087898a099850878a8a09985087898a09985087898a09985087898a09985087898a09985087898a09985087898a09985087898a09985087828a09985087898a09985087898a09985087898a09985087898a09985087898a09985087818a09985087898a09985087898a09985087898a09985087868a09985087898a09985087898a09985087898a09985087898a09985087898a09985087898a09985087898a09985087898a09985087878a09985087898a09985087898a09985087898a09985087898a09985087898a09985087898a09985087898a09985087898a09985087898a09985087868a09985087898a09985087898a09985087898a09985087878a09985087898a09985087898a09985087898a09985087898a09985087898a09985087898a09985087898a09985087898a09985087828a09985087898a09985087898a09985087898a09985087898a09985087828a09985087898a09985087898a09985087898a09985087898a09985087898a09985087868a09985087898a09985087898a09985087898a09985087848a09985087898a09985087898a09985087898a09985087898a09985087898a09985087898a09985087898a09985087898a09985087898a09985087898a09985087828a09985087898a09985087898a09985087898a09985087898a09985087868a09985087898a09985087898a09985087898a09985087898a09985087898a09985087838a09985087898a09985087898a09985087898a09985087898a09985087898a09985087898a09985087898a09985087828a09985087898a09985087898a099850878a8a09985087898a09985087898a09985087898a09985087898a09985087898a09985087898a09985087898a09985087848a09985087898a09985087898a09985087898a09985087898a09985087898a09985087898a09985087848a09985087898a09985087898a09985087898a09985087898a09985087898a09985087868a09985087898a09985087898a099850878a8a09985087898a09985087898a09985087898a09985087898a09985087898a09985087898a09985087898a09985087818a09985087898a09985087898a09985087898a09985087898a09985087898a09985087898a09985087858a09985087898a09985087898a09985087898a09985087898a09985087898a099850878a8a09985087898a09985087898a09985087898a09985087898a09985087898a09985087898a099850878a8a09985087898a09985087898a09985087898a09985087898a09985087898a09985087878a09985087898a09985087898a09985087898a09985087898a09985087898a09985087898a09985087898a09985087898a09985087898a09985087828a09985087898a09985087898a09985087898a09985087878a09985087898a09985087898a09985087898a09985087878a09985087898a09985087898a09985087898a09985087898a09985087898a09985087898a09985087898a09985087898a09985087858a09985087898a09985087898a09985087898a09985087898a09985087838a09985087898a09985087898a09985087898a09985087898a09985087858a09985087898a09985087898a09985087898a09985087868a09985087898a09985087898a09985087898a09985087898a09985087898a09985087838a09985087898a0998505050505050505050919050565b60007f30644e72e131a029b85045b68181585d97816a916871ca8d3c208c16d87cfd478083840991508083830981838209828283098385830984848309858484098684850997508684840987858409945087898a09985087898a09985087898a09985087898a09985087898a09985087878a09985087898a09985087898a09985087898a099850878a8a09985087898a09985087898a09985087898a09985087898a099850878a8a09985087898a09985087898a09985087898a09985087898a09985087898a09985087848a09985087898a09985087898a09985087898a09985087898a09985087898a09985087848a09985087898a09985087898a09985087898a099850878a8a09985087898a09985087898a09985087898a09985087898a09985087848a09985087898a09985087898a09985087898a09985087898a09985087898a099850878a8a09985087898a09985087898a09985087898a09985087898a09985087878a09985087898a09985087898a09985087898a09985087898a09985087898a09985087898a09985087898a09985087818a09985087898a09985087898a09985087898a09985087898a09985087898a09985087898a09985087898a09985087898a09985087898a09985087898a09985087868a09985087898a09985087898a09985087898a09985087898a09985087878a09985087898a09985087898a09985087898a09985087898a09985087848a09985087898a09985087898a09985087898a09985087898a09985087898a09985087898a09985087898a09985087868a09985087898a09985087898a09985087898a09985087898a09985087898a09985087898a099850878a8a09985087898a09985087898a09985087898a09985087898a09985087898a09985087898a09985087898a09985087828a09985087898a09985087898a09985087898a09985087898a09985087898a09985087818a09985087898a09985087898a09985087898a09985087868a09985087898a09985087898a09985087898a09985087898a09985087898a09985087898a09985087898a09985087898a09985087878a09985087898a09985087898a09985087898a09985087898a09985087898a09985087898a09985087898a09985087898a09985087898a09985087868a09985087898a09985087898a09985087898a09985087878a09985087898a09985087898a09985087898a09985087898a09985087898a09985087898a09985087898a09985087898a09985087828a09985087898a09985087898a09985087898a09985087898a09985087828a09985087898a09985087898a09985087898a09985087898a09985087898a09985087868a09985087898a09985087898a09985087898a09985087848a09985087898a09985087898a09985087898a09985087898a09985087898a09985087898a09985087898a09985087898a09985087898a09985087898a09985087828a09985087898a09985087898a09985087898a09985087898a09985087868a09985087898a09985087898a09985087898a09985087898a09985087898a09985087838a09985087898a09985087898a09985087898a09985087898a09985087898a09985087898a09985087898a09985087828a09985087898a09985087898a099850878a8a09985087898a09985087898a09985087898a09985087898a09985087898a09985087898a09985087898a09985087848a09985087898a09985087898a09985087898a09985087898a09985087898a09985087898a09985087848a09985087898a09985087898a09985087898a09985087898a09985087898a09985087868a09985087898a09985087898a099850878a8a09985087898a09985087898a09985087898a09985087898a09985087898a09985087898a09985087898a09985087818a09985087898a09985087898a09985087898a09985087898a09985087898a09985087898a09985087858a09985087898a09985087898a09985087898a09985087898a09985087898a099850878a8a09985087898a09985087898a09985087898a09985087898a09985087898a09985087898a099850878a8a09985087898a09985087898a09985087898a09985087898a09985087898a09985087878a09985087898a09985087898a09985087898a09985087898a09985087898a09985087898a09985087898a09985087898a09985087898a09985087828a09985087898a09985087898a09985087898a09985087878a09985087898a09985087898a09985087898a09985087878a09985087898a09985087898a09985087898a09985087898a09985087898a09985087898a09985087898a09985087898a09985087858a09985087898a09985087898a09985087898a09985087898a09985087838a09985087898a09985087898a09985087898a09985087898a09985087858a09985087898a09985087898a09985087898a09985087868a09985087898a09985087898a099850878a8a09985087898a09985087898a09985087898a09985087898a09985087898a09985087898a09985087868a0998505050505050505050919050565b632a2a7adb598160e01b8152600481016020815285602082015260005b86811015613740578086015181604084010152602081019050613722565b506020828760640184336000905af158600e01573d6000803e3d6000fd5b3d6001141558600a015760016000f35b505050565b6303daa959598160e01b8152836004820152602081602483336000905af158600e01573d6000803e3d6000fd5b3d6001141558600a015760016000f35b8051935060005b60408110156137d1576000818301526020810190506137b7565b505050565b6373509064598160e01b8152602081600483336000905af158600e01573d6000803e3d6000fd5b3d6001141558600a015760016000f35b8051935060005b604081101561382e57600081830152602081019050613814565b505050565b6040518060800160405280600490602082028036833780820191505090505090565b6322bd64c0598160e01b8152836004820152846024820152600081604483336000905af158600e01573d6000803e3d6000fd5b3d6001141558600a015760016000f35b60005b60408110156138b55760008183015260208101905061389b565b505050565b6385979f76598160e01b81526138f9565b6000819050818311156138dc578290505b92915050565b6000819050818310156138f3578290505b92915050565b836004820152846024820152606060448201528760648201526084810160005b89811015613934578089015181830152602081019050613919565b506060828a60a40184336000905af158600e01573d6000803e3d6000fd5b3d6001141558600a015760016000f35b815160408301513d6000853e8c8c82606087013350600060045af150596139898e3d6138e2565b8d0161399581876138cb565b5b828110156139ad5760008152602081019050613996565b50839e5050505050505050565b638435035b598160e01b8152836004820152602081602483336000905af158600e01573d6000803e3d6000fd5b3d6001141558600a015760016000f35b8051935060005b6040811015613a18576000818301526020810190506139fe565b505050565b8260048101928215613a55579160200282015b82811115613a5457825182613a43613855565b505091602001919060010190613a30565b5b509050613a629190613baa565b5090565b6040518060400160405280600290602082028036833780820191505090505090565b638540661f598160e01b8152613ac7565b600081905081831115613aaa578290505b92915050565b600081905081831015613ac1578290505b92915050565b836004820152846024820152606060448201528660648201526084810160005b88811015613b02578088015181830152602081019050613ae7565b506060828960a40184336000905af158600e01573d6000803e3d6000fd5b3d6001141558600a015760016000f35b815160408301513d6000853e8b8b82606087013350600060045af15059613b578d3d613ab0565b8c01613b638187613a99565b5b82811015613b7b5760008152602081019050613b64565b50839d5050505050505050565b6040518060200160405280600190602082028036833780820191505090505090565b5b80821115613bcc57600081600090613bc1613855565b505050600101613bab565b509056fe424c5357616c6c65743a207369676e6572206e6f7420736574206265666f722070726f786965642063616c6c424c5357616c6c65743a206163636f756e742f6d657373616765206c656e677468206d69736d617463682e424c533a206e756d626572206f66207075626c6963206b65797320616e64206d65737361676573206d75737420626520657175616c424c533a206e756d626572206f66207075626c6963206b6579206973207a65726f6d6170546f506f696e7446543a20696e76616c6964206669656c6420656c656d656e74424c5357616c6c65743a20726563697069656e742f6d657373616765206c656e677468206d69736d617463682e424c5357616c6c65743a20616d6f756e742f6d657373616765206c656e677468206d69736d617463682e424c533a20626164206674206d617070696e6720696d706c656d656e746174696f6e",
  "linkReferences": {},
  "deployedLinkReferences": {}
}