{
  "_format": "hh-sol-artifact-1",
  "contractName": "VerificationGateway",
  "sourceName": "contracts/VerificationGateway.sol",
  "abi": [
    {
      "anonymous": false,
      "inputs": [
        {
          "indexed": true,
          "internalType": "address",
          "name": "wallet",
          "type": "address"
        },
        {
          "indexed": true,
          "internalType": "bytes32",
          "name": "publicKeyHash",
          "type": "bytes32"
        },
        {
          "indexed": false,
          "internalType": "uint256[4]",
          "name": "publicKey",
          "type": "uint256[4]"
        }
      ],
      "name": "WalletCreated",
      "type": "event"
    },
    {
      "inputs": [
        {
          "internalType": "bytes32",
          "name": "publicKeyHash",
          "type": "bytes32"
        },
        {
          "internalType": "uint256[2]",
          "name": "signature",
          "type": "uint256[2]"
        },
        {
          "internalType": "address",
          "name": "contractAddress",
          "type": "address"
        },
        {
          "internalType": "bytes4",
          "name": "methodID",
          "type": "bytes4"
        },
        {
          "internalType": "bytes",
          "name": "encodedParams",
          "type": "bytes"
        }
      ],
      "name": "blsCall",
      "outputs": [],
      "stateMutability": "nonpayable",
      "type": "function"
    },
    {
      "inputs": [
        {
          "internalType": "uint256[4]",
          "name": "publicKey",
          "type": "uint256[4]"
        },
        {
          "internalType": "uint256[2]",
          "name": "signature",
          "type": "uint256[2]"
        },
        {
          "internalType": "address",
          "name": "contractAddress",
          "type": "address"
        },
        {
          "internalType": "bytes4",
          "name": "methodID",
          "type": "bytes4"
        },
        {
          "internalType": "bytes",
          "name": "encodedParams",
          "type": "bytes"
        }
      ],
      "name": "blsCallCreate",
      "outputs": [],
      "stateMutability": "nonpayable",
      "type": "function"
    },
    {
      "inputs": [
        {
          "internalType": "bytes32[]",
          "name": "publicKeyHashes",
          "type": "bytes32[]"
        },
        {
          "internalType": "uint256[2]",
          "name": "signature",
          "type": "uint256[2]"
        },
        {
          "internalType": "address[]",
          "name": "contractAddresses",
          "type": "address[]"
        },
        {
          "internalType": "bytes4[]",
          "name": "methodIDs",
          "type": "bytes4[]"
        },
        {
          "internalType": "bytes[]",
          "name": "encodedParamSets",
          "type": "bytes[]"
        }
      ],
      "name": "blsCallMany",
      "outputs": [],
      "stateMutability": "nonpayable",
      "type": "function"
    },
    {
      "inputs": [
        {
          "internalType": "bytes32",
          "name": "hash",
          "type": "bytes32"
        }
      ],
      "name": "walletCrossCheck",
      "outputs": [],
      "stateMutability": "view",
      "type": "function"
    },
    {
      "inputs": [
        {
          "internalType": "bytes32",
          "name": "",
          "type": "bytes32"
        }
      ],
      "name": "walletFromHash",
      "outputs": [
        {
          "internalType": "contract BLSWallet",
          "name": "",
          "type": "address"
        }
      ],
      "stateMutability": "view",
      "type": "function"
    }
  ],
  "bytecode": "0x608060405263feedbee56040516020016200001b919062000063565b604051602081830303815290604052805190602001206000553480156200004157600080fd5b50620000b1565b6200005d620000578262000080565b62000090565b82525050565b600062000071828462000048565b60048201915081905092915050565b600063ffffffff82169050919050565b60006200009d82620000a4565b9050919050565b60008160e01b9050919050565b6146de80620000c16000396000f3fe608060405234801561001057600080fd5b50600436106100575760003560e01c8063190e322d1461005c578063470c3046146100785780637bc4c1fe146100a857806389e93efc146100c4578063a5bafba6146100e0575b600080fd5b61007660048036038101906100719190613109565b6100fc565b005b610092600480360381019061008d91906132ae565b61060c565b60405161009f9190613a15565b60405180910390f35b6100c260048036038101906100bd9190613300565b61063f565b005b6100de60048036038101906100d991906131f1565b6108a5565b005b6100fa60048036038101906100f591906132ae565b610b0d565b005b6000868690509050808585905014610149576040517f08c379a000000000000000000000000000000000000000000000000000000000815260040161014090613a50565b60405180910390fd5b80838390501461018e576040517f08c379a000000000000000000000000000000000000000000000000000000000815260040161018590613ad0565b60405180910390fd5b808a8a9050146101d3576040517f08c379a00000000000000000000000000000000000000000000000000000000081526004016101ca90613b30565b60405180910390fd5b60608167ffffffffffffffff811180156101ec57600080fd5b5060405190808252806020026020018201604052801561022657816020015b610213612d38565b81526020019060019003908161020b5790505b50905060608267ffffffffffffffff8111801561024257600080fd5b5060405190808252806020026020018201604052801561027c57816020015b610269612d5a565b8152602001906001900390816102615790505b50905060005b838110156105a05760008d8d8381811061029857fe5b905060200201359050600160008281526020019081526020016000206004806020026040519081016040528092919082600480156102eb576020028201915b8154815260200190600101908083116102d7575b50505050508483815181106102fc57fe5b60200260200101819052506104486002600083815260200190815260200160002060009054906101000a900473ffffffffffffffffffffffffffffffffffffffff1673ffffffffffffffffffffffffffffffffffffffff1663affed0e06040518163ffffffff1660e01b815260040160206040518083038186803b15801561038357600080fd5b505afa158015610397573d6000803e3d6000fd5b505050506040513d601f19601f820116820180604052508101906103bb91906133bb565b8c8c858181106103c757fe5b90506020020160208101906103dc91906130e0565b8b8b868181106103e857fe5b90506020020160208101906103fd9190613392565b8a8a8781811061040957fe5b905060200281019061041b9190613b70565b60405160200161042d93929190613910565b60405160208183030381529060405280519060200120610b7b565b83838151811061045457fe5b6020026020010181905250600260008f8f8581811061046f57fe5b90506020020135815260200190815260200160002060009054906101000a900473ffffffffffffffffffffffffffffffffffffffff1673ffffffffffffffffffffffffffffffffffffffff1663f51b80cf8c8c858181106104cc57fe5b90506020020160208101906104e191906130e0565b8b8b868181106104ed57fe5b90506020020160208101906105029190613392565b8a8a8781811061050e57fe5b90506020028101906105209190613b70565b6040518563ffffffff1660e01b815260040161053f949392919061399f565b602060405180830381600087803b15801561055957600080fd5b505af115801561056d573d6000803e3d6000fd5b505050506040513d601f19601f820116820180604052508101906105919190613285565b50508080600101915050610282565b506000806105af8c8585610bc3565b915091508080156105bd5750815b6105fc576040517f08c379a00000000000000000000000000000000000000000000000000000000081526004016105f390613a90565b60405180910390fd5b5050505050505050505050505050565b60026020528060005260406000206000915054906101000a900473ffffffffffffffffffffffffffffffffffffffff1681565b60006002600088815260200190815260200160002060009054906101000a900473ffffffffffffffffffffffffffffffffffffffff1690506000806107bb886002806020026040519081016040528092919082600260200280828437600081840152601f19601f820116905080830192505050505050600160008c81526020019081526020016000206004806020026040519081016040528092919082600480156106ff576020028201915b8154815260200190600101908083116106eb575b50505050506107b68673ffffffffffffffffffffffffffffffffffffffff1663affed0e06040518163ffffffff1660e01b815260040160206040518083038186803b15801561074d57600080fd5b505afa158015610761573d6000803e3d6000fd5b505050506040513d601f19601f8201168201806040525081019061078591906133bb565b8b8b8b8b60405160200161079b93929190613910565b60405160208183030381529060405280519060200120610b7b565b610ff6565b915091508080156107c95750815b610808576040517f08c379a00000000000000000000000000000000000000000000000000000000081526004016107ff90613a70565b60405180910390fd5b8273ffffffffffffffffffffffffffffffffffffffff1663f51b80cf888888886040518563ffffffff1660e01b8152600401610847949392919061399f565b602060405180830381600087803b15801561086157600080fd5b505af1158015610875573d6000803e3d6000fd5b505050506040513d601f19601f820116820180604052508101906108999190613285565b50505050505050505050565b6000866040516020016108b891906138f5565b604051602081830303815290604052805190602001209050600073ffffffffffffffffffffffffffffffffffffffff166002600083815260200190815260200160002060009054906101000a900473ffffffffffffffffffffffffffffffffffffffff1673ffffffffffffffffffffffffffffffffffffffff161415610af657866001600083815260200190815260200160002090600461095a929190612d7c565b5060405161096790612dbc565b604051809103906000f080158015610983573d6000803e3d6000fd5b506002600083815260200190815260200160002060006101000a81548173ffffffffffffffffffffffffffffffffffffffff021916908373ffffffffffffffffffffffffffffffffffffffff1602179055506002600082815260200190815260200160002060009054906101000a900473ffffffffffffffffffffffffffffffffffffffff1673ffffffffffffffffffffffffffffffffffffffff16639498bd71826040518263ffffffff1660e01b8152600401610a4191906139fa565b600060405180830381600087803b158015610a5b57600080fd5b505af1158015610a6f573d6000803e3d6000fd5b50505050806002600083815260200190815260200160002060009054906101000a900473ffffffffffffffffffffffffffffffffffffffff1673ffffffffffffffffffffffffffffffffffffffff167fb65a6d7c4b2ea016740a09090e34933cc4058cd2788e5c9dfc7a6bf97214353289604051610aed91906139df565b60405180910390a35b610b0481878787878761063f565b50505050505050565b6002600082815260200190815260200160002060009054906101000a900473ffffffffffffffffffffffffffffffffffffffff1673ffffffffffffffffffffffffffffffffffffffff163373ffffffffffffffffffffffffffffffffffffffff1614610b7857600080fd5b50565b610b83612d5a565b6000469050610bb960005482878787604051602001610ba59493929190613951565b6040516020818303038152906040526111c0565b9150509392505050565b60008060008451905060008111610c0f576040517f08c379a0000000000000000000000000000000000000000000000000000000008152600401610c0690613af0565b60405180910390fd5b83518114610c52576040517f08c379a0000000000000000000000000000000000000000000000000000000008152600401610c4990613ab0565b60405180910390fd5b600060066001830102905060608167ffffffffffffffff81118015610c7657600080fd5b50604051908082528060200260200182016040528015610ca55781602001602082028036833780820191505090505b50905087600060028110610cb557fe5b602002015181600081518110610cc757fe5b60200260200101818152505087600160028110610ce057fe5b602002015181600181518110610cf257fe5b6020026020010181815250507f198e9393920d483a7260bfb731fb5d25f1aa493335a9e71297e485b7aef312c281600281518110610d2c57fe5b6020026020010181815250507f1800deef121f1e76426a00665e5c4479674322d4f75edadd46debd5cd992f6ed81600381518110610d6657fe5b6020026020010181815250507f275dc4a288d1afb3cbb1ac09187524c7db36395df7be3b99e673b13a075a65ec81600481518110610da057fe5b6020026020010181815250507f1d9befcd05a5323e6da4d435f3b617cdb3af83285c2df711ef39c01571827f9d81600581518110610dda57fe5b60200260200101818152505060005b83811015610f8f57868181518110610dfd57fe5b6020026020010151600060028110610e1157fe5b60200201518260068084020181518110610e2757fe5b602002602001018181525050868181518110610e3f57fe5b6020026020010151600160028110610e5357fe5b6020020151826007600684020181518110610e6a57fe5b602002602001018181525050878181518110610e8257fe5b6020026020010151600160048110610e9657fe5b6020020151826008600684020181518110610ead57fe5b602002602001018181525050878181518110610ec557fe5b6020026020010151600060048110610ed957fe5b6020020151826009600684020181518110610ef057fe5b602002602001018181525050878181518110610f0857fe5b6020026020010151600360048110610f1c57fe5b602002015182600a600684020181518110610f3357fe5b602002602001018181525050878181518110610f4b57fe5b6020026020010151600260048110610f5f57fe5b602002015182600b600684020181518110610f7657fe5b6020026020010181815250508080600101915050610de9565b50610f98612dc9565b6000610fa38561133d565b90506020826020860260208601600885fa955085610fcc57600080965096505050505050610fee565b600082600060018110610fdb57fe5b6020020151141560019650965050505050505b935093915050565b600080611001612deb565b6040518061018001604052808760006002811061101a57fe5b602002015181526020018760016002811061103157fe5b602002015181526020017f198e9393920d483a7260bfb731fb5d25f1aa493335a9e71297e485b7aef312c281526020017f1800deef121f1e76426a00665e5c4479674322d4f75edadd46debd5cd992f6ed81526020017f275dc4a288d1afb3cbb1ac09187524c7db36395df7be3b99e673b13a075a65ec81526020017f1d9befcd05a5323e6da4d435f3b617cdb3af83285c2df711ef39c01571827f9d8152602001856000600281106110e057fe5b60200201518152602001856001600281106110f757fe5b602002015181526020018660016004811061110e57fe5b602002015181526020018660006004811061112557fe5b602002015181526020018660036004811061113c57fe5b602002015181526020018660026004811061115357fe5b60200201518152509050611165612dc9565b6000611171600261133d565b9050600060208361018086600886fa9050806111975760008095509550505050506111b8565b6000836000600181106111a657fe5b60200201511415600195509550505050505b935093915050565b6111c8612d5a565b6111d0612d5a565b6111da848461135d565b90506111e4612d5a565b6111fe826000600281106111f457fe5b60200201516114ee565b9050611208612d5a565b6112228360016002811061121857fe5b60200201516114ee565b905061122c612d38565b8260006002811061123957fe5b60200201518160006004811061124b57fe5b6020020181815250508260016002811061126157fe5b60200201518160016004811061127357fe5b6020020181815250508160006002811061128957fe5b60200201518160026004811061129b57fe5b602002018181525050816001600281106112b157fe5b6020020151816003600481106112c357fe5b602002018181525050600060408460808460066107d05a03fa905080600081146112ec576112ee565bfe5b508061132f576040517f08c379a000000000000000000000000000000000000000000000000000000000815260040161132690613a30565b60405180910390fd5b839550505050505092915050565b60008061afc8905060006184d09050600184018102820192505050919050565b611365612d5a565b60606113718484611b6a565b90506000806000806018850177ffffffffffffffffffffffffffffffffffffffffffffffff815116935060308601905077ffffffffffffffffffffffffffffffffffffffffffffffff81511694507f30644e72e131a029b85045b68181585d97816a916871ca8d3c208c16d87cfd47857f30644e72e131a029b85045b68181585d97816a916871ca8d3c208c16d87cfd477801000000000000000000000000000000000000000000000000870908925060488601905077ffffffffffffffffffffffffffffffffffffffffffffffff815116935060608601905077ffffffffffffffffffffffffffffffffffffffffffffffff81511694507f30644e72e131a029b85045b68181585d97816a916871ca8d3c208c16d87cfd47857f30644e72e131a029b85045b68181585d97816a916871ca8d3c208c16d87cfd4778010000000000000000000000000000000000000000000000008709089150506040518060400160405280838152602001828152509550505050505092915050565b6114f6612d5a565b7f30644e72e131a029b85045b68181585d97816a916871ca8d3c208c16d87cfd478210611558576040517f08c379a000000000000000000000000000000000000000000000000000000000815260040161154f90613b10565b60405180910390fd5b6000829050600061156882611e42565b91505060007f30644e72e131a029b85045b68181585d97816a916871ca8d3c208c16d87cfd478061159557fe5b83840990507f30644e72e131a029b85045b68181585d97816a916871ca8d3c208c16d87cfd47806115c257fe5b60048208905060007f30644e72e131a029b85045b68181585d97816a916871ca8d3c208c16d87cfd47806115f257fe5b77b3c4d79d41a91759a9e4c7e359b6b89eaec68e62effffffd8509905060007f30644e72e131a029b85045b68181585d97816a916871ca8d3c208c16d87cfd478061163957fe5b838309905061164781611e84565b90507f30644e72e131a029b85045b68181585d97816a916871ca8d3c208c16d87cfd478061167157fe5b82830991507f30644e72e131a029b85045b68181585d97816a916871ca8d3c208c16d87cfd478061169e57fe5b81830991507f30644e72e131a029b85045b68181585d97816a916871ca8d3c208c16d87cfd47806116cb57fe5b82860991507f30644e72e131a029b85045b68181585d97816a916871ca8d3c208c16d87cfd47806116f857fe5b827f30644e72e131a029b85045b68181585d97816a916871ca8d3c208c16d87cfd47037759e26bcea0d48bacd4f263f1acdb5c4f5763473177fffffe0894507f30644e72e131a029b85045b68181585d97816a916871ca8d3c208c16d87cfd478061175f57fe5b85860991507f30644e72e131a029b85045b68181585d97816a916871ca8d3c208c16d87cfd478061178c57fe5b85830991507f30644e72e131a029b85045b68181585d97816a916871ca8d3c208c16d87cfd47806117b957fe5b60038308915060006117ca83611e42565b80925081945050508015611825578461180357827f30644e72e131a029b85045b68181585d97816a916871ca8d3c208c16d87cfd470392505b6040518060400160405280878152602001848152509650505050505050611b65565b7f30644e72e131a029b85045b68181585d97816a916871ca8d3c208c16d87cfd478061184d57fe5b600187087f30644e72e131a029b85045b68181585d97816a916871ca8d3c208c16d87cfd470395507f30644e72e131a029b85045b68181585d97816a916871ca8d3c208c16d87cfd478061189d57fe5b86870992507f30644e72e131a029b85045b68181585d97816a916871ca8d3c208c16d87cfd47806118ca57fe5b86840992507f30644e72e131a029b85045b68181585d97816a916871ca8d3c208c16d87cfd47806118f757fe5b60038408925061190683611e42565b80925081945050508015611961578461193f57827f30644e72e131a029b85045b68181585d97816a916871ca8d3c208c16d87cfd470392505b6040518060400160405280878152602001848152509650505050505050611b65565b7f30644e72e131a029b85045b68181585d97816a916871ca8d3c208c16d87cfd478061198957fe5b84850995507f30644e72e131a029b85045b68181585d97816a916871ca8d3c208c16d87cfd47806119b657fe5b86870995507f30644e72e131a029b85045b68181585d97816a916871ca8d3c208c16d87cfd47806119e357fe5b82870995507f30644e72e131a029b85045b68181585d97816a916871ca8d3c208c16d87cfd4780611a1057fe5b82870995507f30644e72e131a029b85045b68181585d97816a916871ca8d3c208c16d87cfd4780611a3d57fe5b6001870895507f30644e72e131a029b85045b68181585d97816a916871ca8d3c208c16d87cfd4780611a6b57fe5b86870992507f30644e72e131a029b85045b68181585d97816a916871ca8d3c208c16d87cfd4780611a9857fe5b86840992507f30644e72e131a029b85045b68181585d97816a916871ca8d3c208c16d87cfd4780611ac557fe5b600384089250611ad483611e42565b809250819450505080611b1c576040517f08c379a0000000000000000000000000000000000000000000000000000000008152600401611b1390613b50565b60405180910390fd5b84611b4757827f30644e72e131a029b85045b68181585d97816a916871ca8d3c208c16d87cfd470392505b60405180604001604052808781526020018481525096505050505050505b919050565b606060008251905060606004604083602001010167ffffffffffffffff81118015611b9457600080fd5b506040519080825280601f01601f191660200182016040528015611bc75781602001600182028036833780820191505090505b50905060608067ffffffffffffffff81118015611be357600080fd5b506040519080825280601f01601f191660200182016040528015611c165781602001600182028036833780820191505090505b5090506060820160005b84811015611c3e576020810187015181830152602081019050611c20565b50838101905060008153600181019050606081536001810190506000815360018101905086815260208101905060208153506000600283604051611c82919061393a565b602060405180830381855afa158015611c9f573d6000803e3d6000fd5b5050506040513d601f19601f82011682018060405250810190611cc291906132d7565b90506000604294508484528160208501526001604085015387604185015260206041602001850153600284604051611cfa919061393a565b602060405180830381855afa158015611d17573d6000803e3d6000fd5b5050506040513d601f19601f82011682018060405250810190611d3a91906132d7565b9050806020840152808218806020860152600260408601538860418601526020604160200186015350600284604051611d73919061393a565b602060405180830381855afa158015611d90573d6000803e3d6000fd5b5050506040513d601f19601f82011682018060405250810190611db391906132d7565b9050806040840152808218806020860152600360408601538860418601526020604160200186015350600284604051611dec919061393a565b602060405180830381855afa158015611e09573d6000803e3d6000fd5b5050506040513d601f19601f82011682018060405250810190611e2c91906132d7565b9050806060840152829550505050505092915050565b600080611e4e83611e96565b9150827f30644e72e131a029b85045b68181585d97816a916871ca8d3c208c16d87cfd4780611e7957fe5b838409149050915091565b6000611e8f826125de565b9050919050565b60007f30644e72e131a029b85045b68181585d97816a916871ca8d3c208c16d87cfd478083840991508083830981838209828283098385830984848309858484098684850997508684840987858409945087898a09985087898a09985087898a09985087898a09985087898a09985087878a09985087898a09985087898a09985087898a099850878a8a09985087898a09985087898a09985087898a09985087898a099850878a8a09985087898a09985087898a09985087898a09985087898a09985087898a09985087848a09985087898a09985087898a09985087898a09985087898a09985087898a09985087848a09985087898a09985087898a09985087898a099850878a8a09985087898a09985087898a09985087898a09985087898a09985087848a09985087898a09985087898a09985087898a09985087898a09985087898a099850878a8a09985087898a09985087898a09985087898a09985087898a09985087878a09985087898a09985087898a09985087898a09985087898a09985087898a09985087898a09985087898a09985087818a09985087898a09985087898a09985087898a09985087898a09985087898a09985087898a09985087898a09985087898a09985087898a09985087898a09985087868a09985087898a09985087898a09985087898a09985087898a09985087878a09985087898a09985087898a09985087898a09985087898a09985087848a09985087898a09985087898a09985087898a09985087898a09985087898a09985087898a09985087898a09985087868a09985087898a09985087898a09985087898a09985087898a09985087898a09985087898a099850878a8a09985087898a09985087898a09985087898a09985087898a09985087898a09985087898a09985087898a09985087828a09985087898a09985087898a09985087898a09985087898a09985087898a09985087818a09985087898a09985087898a09985087898a09985087868a09985087898a09985087898a09985087898a09985087898a09985087898a09985087898a09985087898a09985087898a09985087878a09985087898a09985087898a09985087898a09985087898a09985087898a09985087898a09985087898a09985087898a09985087898a09985087868a09985087898a09985087898a09985087898a09985087878a09985087898a09985087898a09985087898a09985087898a09985087898a09985087898a09985087898a09985087898a09985087828a09985087898a09985087898a09985087898a09985087898a09985087828a09985087898a09985087898a09985087898a09985087898a09985087898a09985087868a09985087898a09985087898a09985087898a09985087848a09985087898a09985087898a09985087898a09985087898a09985087898a09985087898a09985087898a09985087898a09985087898a09985087898a09985087828a09985087898a09985087898a09985087898a09985087898a09985087868a09985087898a09985087898a09985087898a09985087898a09985087898a09985087838a09985087898a09985087898a09985087898a09985087898a09985087898a09985087898a09985087898a09985087828a09985087898a09985087898a099850878a8a09985087898a09985087898a09985087898a09985087898a09985087898a09985087898a09985087898a09985087848a09985087898a09985087898a09985087898a09985087898a09985087898a09985087898a09985087848a09985087898a09985087898a09985087898a09985087898a09985087898a09985087868a09985087898a09985087898a099850878a8a09985087898a09985087898a09985087898a09985087898a09985087898a09985087898a09985087898a09985087818a09985087898a09985087898a09985087898a09985087898a09985087898a09985087898a09985087858a09985087898a09985087898a09985087898a09985087898a09985087898a099850878a8a09985087898a09985087898a09985087898a09985087898a09985087898a09985087898a099850878a8a09985087898a09985087898a09985087898a09985087898a09985087898a09985087878a09985087898a09985087898a09985087898a09985087898a09985087898a09985087898a09985087898a09985087898a09985087898a09985087828a09985087898a09985087898a09985087898a09985087878a09985087898a09985087898a09985087898a09985087878a09985087898a09985087898a09985087898a09985087898a09985087898a09985087898a09985087898a09985087898a09985087858a09985087898a09985087898a09985087898a09985087898a09985087838a09985087898a09985087898a09985087898a09985087898a09985087858a09985087898a09985087898a09985087898a09985087868a09985087898a09985087898a09985087898a09985087898a09985087898a09985087838a09985087898a0998505050505050505050919050565b60007f30644e72e131a029b85045b68181585d97816a916871ca8d3c208c16d87cfd478083840991508083830981838209828283098385830984848309858484098684850997508684840987858409945087898a09985087898a09985087898a09985087898a09985087898a09985087878a09985087898a09985087898a09985087898a099850878a8a09985087898a09985087898a09985087898a09985087898a099850878a8a09985087898a09985087898a09985087898a09985087898a09985087898a09985087848a09985087898a09985087898a09985087898a09985087898a09985087898a09985087848a09985087898a09985087898a09985087898a099850878a8a09985087898a09985087898a09985087898a09985087898a09985087848a09985087898a09985087898a09985087898a09985087898a09985087898a099850878a8a09985087898a09985087898a09985087898a09985087898a09985087878a09985087898a09985087898a09985087898a09985087898a09985087898a09985087898a09985087898a09985087818a09985087898a09985087898a09985087898a09985087898a09985087898a09985087898a09985087898a09985087898a09985087898a09985087898a09985087868a09985087898a09985087898a09985087898a09985087898a09985087878a09985087898a09985087898a09985087898a09985087898a09985087848a09985087898a09985087898a09985087898a09985087898a09985087898a09985087898a09985087898a09985087868a09985087898a09985087898a09985087898a09985087898a09985087898a09985087898a099850878a8a09985087898a09985087898a09985087898a09985087898a09985087898a09985087898a09985087898a09985087828a09985087898a09985087898a09985087898a09985087898a09985087898a09985087818a09985087898a09985087898a09985087898a09985087868a09985087898a09985087898a09985087898a09985087898a09985087898a09985087898a09985087898a09985087898a09985087878a09985087898a09985087898a09985087898a09985087898a09985087898a09985087898a09985087898a09985087898a09985087898a09985087868a09985087898a09985087898a09985087898a09985087878a09985087898a09985087898a09985087898a09985087898a09985087898a09985087898a09985087898a09985087898a09985087828a09985087898a09985087898a09985087898a09985087898a09985087828a09985087898a09985087898a09985087898a09985087898a09985087898a09985087868a09985087898a09985087898a09985087898a09985087848a09985087898a09985087898a09985087898a09985087898a09985087898a09985087898a09985087898a09985087898a09985087898a09985087898a09985087828a09985087898a09985087898a09985087898a09985087898a09985087868a09985087898a09985087898a09985087898a09985087898a09985087898a09985087838a09985087898a09985087898a09985087898a09985087898a09985087898a09985087898a09985087898a09985087828a09985087898a09985087898a099850878a8a09985087898a09985087898a09985087898a09985087898a09985087898a09985087898a09985087898a09985087848a09985087898a09985087898a09985087898a09985087898a09985087898a09985087898a09985087848a09985087898a09985087898a09985087898a09985087898a09985087898a09985087868a09985087898a09985087898a099850878a8a09985087898a09985087898a09985087898a09985087898a09985087898a09985087898a09985087898a09985087818a09985087898a09985087898a09985087898a09985087898a09985087898a09985087898a09985087858a09985087898a09985087898a09985087898a09985087898a09985087898a099850878a8a09985087898a09985087898a09985087898a09985087898a09985087898a09985087898a099850878a8a09985087898a09985087898a09985087898a09985087898a09985087898a09985087878a09985087898a09985087898a09985087898a09985087898a09985087898a09985087898a09985087898a09985087898a09985087898a09985087828a09985087898a09985087898a09985087898a09985087878a09985087898a09985087898a09985087898a09985087878a09985087898a09985087898a09985087898a09985087898a09985087898a09985087898a09985087898a09985087898a09985087858a09985087898a09985087898a09985087898a09985087898a09985087838a09985087898a09985087898a09985087898a09985087898a09985087858a09985087898a09985087898a09985087898a09985087868a09985087898a09985087898a099850878a8a09985087898a09985087898a09985087898a09985087898a09985087898a09985087898a09985087868a0998505050505050505050919050565b6040518060800160405280600490602082028036833780820191505090505090565b6040518060400160405280600290602082028036833780820191505090505090565b8260048101928215612dab579160200282015b82811115612daa578235825591602001919060010190612d8f565b5b509050612db89190612e0e565b5090565b6108a380613e0683390190565b6040518060200160405280600190602082028036833780820191505090505090565b604051806101800160405280600c90602082028036833780820191505090505090565b5b80821115612e27576000816000905550600101612e0f565b5090565b600081359050612e3a81613d92565b92915050565b60008083601f840112612e5257600080fd5b8235905067ffffffffffffffff811115612e6b57600080fd5b602083019150836020820283011115612e8357600080fd5b9250929050565b60008083601f840112612e9c57600080fd5b8235905067ffffffffffffffff811115612eb557600080fd5b602083019150836020820283011115612ecd57600080fd5b9250929050565b60008083601f840112612ee657600080fd5b8235905067ffffffffffffffff811115612eff57600080fd5b602083019150836020820283011115612f1757600080fd5b9250929050565b60008083601f840112612f3057600080fd5b8235905067ffffffffffffffff811115612f4957600080fd5b602083019150836020820283011115612f6157600080fd5b9250929050565b600081905082602060020282011115612f8057600080fd5b92915050565b600082601f830112612f9757600080fd5b6002612faa612fa582613bf4565b613bc7565b91508183856020840282011115612fc057600080fd5b60005b83811015612ff05781612fd688826130b6565b845260208401935060208301925050600181019050612fc3565b5050505092915050565b60008190508260206004028201111561301257600080fd5b92915050565b60008151905061302781613da9565b92915050565b60008135905061303c81613dc0565b92915050565b60008151905061305181613dc0565b92915050565b60008135905061306681613dd7565b92915050565b60008083601f84011261307e57600080fd5b8235905067ffffffffffffffff81111561309757600080fd5b6020830191508360018202830111156130af57600080fd5b9250929050565b6000813590506130c581613dee565b92915050565b6000815190506130da81613dee565b92915050565b6000602082840312156130f257600080fd5b600061310084828501612e2b565b91505092915050565b600080600080600080600080600060c08a8c03121561312757600080fd5b60008a013567ffffffffffffffff81111561314157600080fd5b61314d8c828d01612e8a565b995099505060206131608c828d01612f86565b97505060608a013567ffffffffffffffff81111561317d57600080fd5b6131898c828d01612e40565b965096505060808a013567ffffffffffffffff8111156131a857600080fd5b6131b48c828d01612ed4565b945094505060a08a013567ffffffffffffffff8111156131d357600080fd5b6131df8c828d01612f1e565b92509250509295985092959850929598565b600080600080600080610120878903121561320b57600080fd5b600061321989828a01612ffa565b965050608061322a89828a01612f68565b95505060c061323b89828a01612e2b565b94505060e061324c89828a01613057565b93505061010087013567ffffffffffffffff81111561326a57600080fd5b61327689828a0161306c565b92509250509295509295509295565b60006020828403121561329757600080fd5b60006132a584828501613018565b91505092915050565b6000602082840312156132c057600080fd5b60006132ce8482850161302d565b91505092915050565b6000602082840312156132e957600080fd5b60006132f784828501613042565b91505092915050565b60008060008060008060c0878903121561331957600080fd5b600061332789828a0161302d565b965050602061333889828a01612f68565b955050606061334989828a01612e2b565b945050608061335a89828a01613057565b93505060a087013567ffffffffffffffff81111561337757600080fd5b61338389828a0161306c565b92509250509295509295509295565b6000602082840312156133a457600080fd5b60006133b284828501613057565b91505092915050565b6000602082840312156133cd57600080fd5b60006133db848285016130cb565b91505092915050565b6133ed81613c4e565b82525050565b6134046133ff82613c4e565b613d32565b82525050565b61341660808383613cf0565b5050565b61342660808383613cf0565b5050565b61343381613c6c565b82525050565b61344a61344582613c6c565b613d44565b82525050565b61345981613c76565b82525050565b61347061346b82613c76565b613d4e565b82525050565b60006134828385613c21565b935061348f838584613cf0565b61349883613d74565b840190509392505050565b60006134af8385613c32565b93506134bc838584613cf0565b82840190509392505050565b60006134d382613c16565b6134dd8185613c32565b93506134ed818560208601613cff565b80840191505092915050565b61350281613ccc565b82525050565b6000613515601783613c3d565b91507f424c533a20626e206164642063616c6c206661696c65640000000000000000006000830152602082019050919050565b6000613555603983613c3d565b91507f566572696669636174696f6e476174657761793a206d6574686f644944732f6360008301527f6f6e747261637473206c656e677468206d69736d617463682e000000000000006020830152604082019050919050565b60006135bb602583613c3d565b91507f566572696669636174696f6e476174657761793a20736967206e6f742076657260008301527f69666965640000000000000000000000000000000000000000000000000000006020830152604082019050919050565b6000613621602a83613c3d565b91507f566572696669636174696f6e476174657761793a20416c6c2073696773206e6f60008301527f74207665726966696564000000000000000000000000000000000000000000006020830152604082019050919050565b6000613687603583613c3d565b91507f424c533a206e756d626572206f66207075626c6963206b65797320616e64206d60008301527f65737361676573206d75737420626520657175616c00000000000000000000006020830152604082019050919050565b60006136ed604083613c3d565b91507f566572696669636174696f6e476174657761793a20656e636f6465645061726160008301527f6d536574732f636f6e747261637473206c656e677468206d69736d617463682e6020830152604082019050919050565b6000613753602183613c3d565b91507f424c533a206e756d626572206f66207075626c6963206b6579206973207a657260008301527f6f000000000000000000000000000000000000000000000000000000000000006020830152604082019050919050565b60006137b9602383613c3d565b91507f6d6170546f506f696e7446543a20696e76616c6964206669656c6420656c656d60008301527f656e7400000000000000000000000000000000000000000000000000000000006020830152604082019050919050565b600061381f603d83613c3d565b91507f566572696669636174696f6e476174657761793a207075626c69634b6579486160008301527f73682f636f6e747261637473206c656e677468206d69736d617463682e0000006020830152604082019050919050565b6000613885602283613c3d565b91507f424c533a20626164206674206d617070696e6720696d706c656d656e7461746960008301527f6f6e0000000000000000000000000000000000000000000000000000000000006020830152604082019050919050565b6138ef6138ea82613cc2565b613d6a565b82525050565b6000613901828461341a565b60808201915081905092915050565b600061391c828661345f565b60048201915061392d8284866134a3565b9150819050949350505050565b600061394682846134c8565b915081905092915050565b600061395d82876138de565b60208201915061396d82866138de565b60208201915061397d82856133f3565b60148201915061398d8284613439565b60208201915081905095945050505050565b60006060820190506139b460008301876133e4565b6139c16020830186613450565b81810360408301526139d4818486613476565b905095945050505050565b60006080820190506139f4600083018461340a565b92915050565b6000602082019050613a0f600083018461342a565b92915050565b6000602082019050613a2a60008301846134f9565b92915050565b60006020820190508181036000830152613a4981613508565b9050919050565b60006020820190508181036000830152613a6981613548565b9050919050565b60006020820190508181036000830152613a89816135ae565b9050919050565b60006020820190508181036000830152613aa981613614565b9050919050565b60006020820190508181036000830152613ac98161367a565b9050919050565b60006020820190508181036000830152613ae9816136e0565b9050919050565b60006020820190508181036000830152613b0981613746565b9050919050565b60006020820190508181036000830152613b29816137ac565b9050919050565b60006020820190508181036000830152613b4981613812565b9050919050565b60006020820190508181036000830152613b6981613878565b9050919050565b60008083356001602003843603038112613b8957600080fd5b80840192508235915067ffffffffffffffff821115613ba757600080fd5b602083019250600182023603831315613bbf57600080fd5b509250929050565b6000604051905081810181811067ffffffffffffffff82111715613bea57600080fd5b8060405250919050565b600067ffffffffffffffff821115613c0b57600080fd5b602082029050919050565b600081519050919050565b600082825260208201905092915050565b600081905092915050565b600082825260208201905092915050565b6000613c5982613ca2565b9050919050565b60008115159050919050565b6000819050919050565b60007fffffffff0000000000000000000000000000000000000000000000000000000082169050919050565b600073ffffffffffffffffffffffffffffffffffffffff82169050919050565b6000819050919050565b6000613cd782613cde565b9050919050565b6000613ce982613ca2565b9050919050565b82818337600083830152505050565b60005b83811015613d1d578082015181840152602081019050613d02565b83811115613d2c576000848401525b50505050565b6000613d3d82613d58565b9050919050565b6000819050919050565b6000819050919050565b6000613d6382613d85565b9050919050565b6000819050919050565b6000601f19601f8301169050919050565b60008160601b9050919050565b613d9b81613c4e565b8114613da657600080fd5b50565b613db281613c60565b8114613dbd57600080fd5b50565b613dc981613c6c565b8114613dd457600080fd5b50565b613de081613c76565b8114613deb57600080fd5b50565b613df781613cc2565b8114613e0257600080fd5b5056fe608060405234801561001057600080fd5b50610883806100206000396000f3fe608060405234801561001057600080fd5b506004361061004c5760003560e01c80635e7e3416146100515780639498bd711461006f578063affed0e01461008b578063f51b80cf146100a9575b600080fd5b6100596100d9565b6040516100669190610648565b60405180910390f35b61008960048036038101906100849190610484565b6100df565b005b610093610218565b6040516100a091906106a3565b60405180910390f35b6100c360048036038101906100be919061041d565b61021e565b6040516100d0919061062d565b60405180910390f35b60015481565b600060019054906101000a900460ff16806100fe57506100fd610366565b5b80610114575060008054906101000a900460ff16155b610153576040517f08c379a000000000000000000000000000000000000000000000000000000000815260040161014a90610683565b60405180910390fd5b60008060019054906101000a900460ff1615905080156101a3576001600060016101000a81548160ff02191690831515021790555060016000806101000a81548160ff0219169083151502179055505b8160018190555033600060026101000a81548173ffffffffffffffffffffffffffffffffffffffff021916908373ffffffffffffffffffffffffffffffffffffffff160217905550600060028190555080156102145760008060016101000a81548160ff0219169083151502179055505b5050565b60025481565b60008060029054906101000a900473ffffffffffffffffffffffffffffffffffffffff1673ffffffffffffffffffffffffffffffffffffffff163373ffffffffffffffffffffffffffffffffffffffff161461027957600080fd5b6060838360405160200161028e9291906105ee565b60405160208183030381529060405290508473ffffffffffffffffffffffffffffffffffffffff16816040516102c49190610616565b6000604051808303816000865af19150503d8060008114610301576040519150601f19603f3d011682016040523d82523d6000602084013e610306565b606091505b5050809250508161034c576040517f08c379a000000000000000000000000000000000000000000000000000000000815260040161034390610663565b60405180910390fd5b600260008154809291906001019190505550509392505050565b600061037130610377565b15905090565b600080823b905060008111915050919050565b60008135905061039981610808565b92915050565b6000813590506103ae8161081f565b92915050565b6000813590506103c381610836565b92915050565b600082601f8301126103da57600080fd5b81356103ed6103e8826106eb565b6106be565b9150808252602083016020830185838301111561040957600080fd5b6104148382846107bc565b50505092915050565b60008060006060848603121561043257600080fd5b60006104408682870161038a565b9350506020610451868287016103b4565b925050604084013567ffffffffffffffff81111561046e57600080fd5b61047a868287016103c9565b9150509250925092565b60006020828403121561049657600080fd5b60006104a48482850161039f565b91505092915050565b6104b681610750565b82525050565b6104c58161075c565b82525050565b6104dc6104d782610766565b6107fe565b82525050565b60006104ed82610717565b6104f78185610722565b93506105078185602086016107cb565b80840191505092915050565b600061052060308361072d565b91507f424c5357616c6c65743a20616374696f6e206661696c656420746f2063616c6c60008301527f20656e636f64656446756e6374696f6e000000000000000000000000000000006020830152604082019050919050565b6000610586602e8361072d565b91507f496e697469616c697a61626c653a20636f6e747261637420697320616c72656160008301527f647920696e697469616c697a65640000000000000000000000000000000000006020830152604082019050919050565b6105e8816107b2565b82525050565b60006105fa82856104cb565b60048201915061060a82846104e2565b91508190509392505050565b600061062282846104e2565b915081905092915050565b600060208201905061064260008301846104ad565b92915050565b600060208201905061065d60008301846104bc565b92915050565b6000602082019050818103600083015261067c81610513565b9050919050565b6000602082019050818103600083015261069c81610579565b9050919050565b60006020820190506106b860008301846105df565b92915050565b6000604051905081810181811067ffffffffffffffff821117156106e157600080fd5b8060405250919050565b600067ffffffffffffffff82111561070257600080fd5b601f19601f8301169050602081019050919050565b600081519050919050565b600081905092915050565b600082825260208201905092915050565b600061074982610792565b9050919050565b60008115159050919050565b6000819050919050565b60007fffffffff0000000000000000000000000000000000000000000000000000000082169050919050565b600073ffffffffffffffffffffffffffffffffffffffff82169050919050565b6000819050919050565b82818337600083830152505050565b60005b838110156107e95780820151818401526020810190506107ce565b838111156107f8576000848401525b50505050565b6000819050919050565b6108118161073e565b811461081c57600080fd5b50565b6108288161075c565b811461083357600080fd5b50565b61083f81610766565b811461084a57600080fd5b5056fea26469706673582212201279f823f60621d7ce048c0ec5da764c0a826235c6d6608dcee3e355c5daa92a64736f6c63430007000033a2646970667358221220e4e7041fdf65ceda296802c2f43908c3e6d7e4cc26b3783762a03f9749a6844a64736f6c63430007000033",
  "linkReferences": {},
  "deployedLinkReferences": {}
}