{
  "_format": "hh-sol-artifact-1",
  "contractName": "VerificationGateway",
  "sourceName": "contracts/VerificationGateway.sol",
  "abi": [
    {
      "anonymous": false,
      "inputs": [
        {
          "indexed": true,
          "internalType": "address",
          "name": "wallet",
          "type": "address"
        },
        {
          "indexed": true,
          "internalType": "bytes32",
          "name": "publicKeyHash",
          "type": "bytes32"
        },
        {
          "indexed": false,
          "internalType": "uint256[4]",
          "name": "publicKey",
          "type": "uint256[4]"
        }
      ],
      "name": "WalletCreated",
      "type": "event"
    },
    {
      "inputs": [
        {
          "internalType": "bytes32",
          "name": "publicKeyHash",
          "type": "bytes32"
        },
        {
          "internalType": "uint256[2]",
          "name": "signature",
          "type": "uint256[2]"
        },
        {
          "internalType": "address",
          "name": "contractAddress",
          "type": "address"
        },
        {
          "internalType": "bytes4",
          "name": "methodID",
          "type": "bytes4"
        },
        {
          "internalType": "bytes",
          "name": "encodedParams",
          "type": "bytes"
        }
      ],
      "name": "blsCall",
      "outputs": [],
      "stateMutability": "nonpayable",
      "type": "function"
    },
    {
      "inputs": [
        {
          "internalType": "uint256[4]",
          "name": "publicKey",
          "type": "uint256[4]"
        },
        {
          "internalType": "uint256[2]",
          "name": "signature",
          "type": "uint256[2]"
        },
        {
          "internalType": "address",
          "name": "contractAddress",
          "type": "address"
        },
        {
          "internalType": "bytes4",
          "name": "methodID",
          "type": "bytes4"
        },
        {
          "internalType": "bytes",
          "name": "encodedParams",
          "type": "bytes"
        }
      ],
      "name": "blsCallCreate",
      "outputs": [],
      "stateMutability": "nonpayable",
      "type": "function"
    },
    {
      "inputs": [
        {
          "internalType": "bytes32[]",
          "name": "publicKeyHashes",
          "type": "bytes32[]"
        },
        {
          "internalType": "uint256[2]",
          "name": "signature",
          "type": "uint256[2]"
        },
        {
          "internalType": "address[]",
          "name": "contractAddresses",
          "type": "address[]"
        },
        {
          "internalType": "bytes4[]",
          "name": "methodIDs",
          "type": "bytes4[]"
        },
        {
          "internalType": "bytes[]",
          "name": "encodedParamSets",
          "type": "bytes[]"
        }
      ],
      "name": "blsCallMany",
      "outputs": [],
      "stateMutability": "nonpayable",
      "type": "function"
    },
    {
      "inputs": [
        {
          "internalType": "bytes32",
          "name": "hash",
          "type": "bytes32"
        }
      ],
      "name": "walletCrossCheck",
      "outputs": [],
      "stateMutability": "view",
      "type": "function"
    },
    {
      "inputs": [
        {
          "internalType": "bytes32",
          "name": "",
          "type": "bytes32"
        }
      ],
      "name": "walletFromHash",
      "outputs": [
        {
          "internalType": "contract BLSWallet",
          "name": "",
          "type": "address"
        }
      ],
      "stateMutability": "view",
      "type": "function"
    }
  ],
  "bytecode": "0x608060405263feedbee56040516020016200001b919062000150565b6040516020818303038152906040528051906020012060006200003d6200005e565b5050348015620000575760008062000054620000c5565b50505b506200019e565b6322bd64c0598160e01b8152836004820152846024820152600081604483336000905af158600e01573d6000803e3d6000fd5b3d6001141558600a015760016000f35b60005b6040811015620000c057600081830152602081019050620000a4565b505050565b632a2a7adb598160e01b8152600481016020815285602082015260005b8681101562000102578086015181604084010152602081019050620000e2565b506020828760640184336000905af158600e01573d6000803e3d6000fd5b3d6001141558600a015760016000f35b505050565b6200014a62000144826200016d565b6200017d565b82525050565b60006200015e828462000135565b60048201915081905092915050565b600063ffffffff82169050919050565b60006200018a8262000191565b9050919050565b60008160e01b9050919050565b61563380620001ae6000396000f3fe60806040523480156200001c576000806200001962003310565b50505b5060043610620000695760003560e01c8063190e322d1462000079578063470c304614620000995780637bc4c1fe14620000cf57806389e93efc14620000ef578063a5bafba6146200010f575b6000806200007662003310565b50505b62000097600480360381019062000091919062003cec565b6200012f565b005b620000b76004803603810190620000b1919062003f07565b62000738565b604051620000c69190620044b9565b60405180910390f35b620000ed6004803603810190620000e7919062003f3e565b62000774565b005b6200010d600480360381019062000107919062003e1a565b62000a68565b005b6200012d600480360381019062000127919062003f07565b62000d53565b005b60008686905090508085859050146200018a576040517f08c379a00000000000000000000000000000000000000000000000000000000081526004016200017690620044d6565b604051809103906200018762003310565b50505b808383905014620001dd576040517f08c379a0000000000000000000000000000000000000000000000000000000008152600401620001c9906200453c565b60405180910390620001da62003310565b50505b808a8a90501462000230576040517f08c379a00000000000000000000000000000000000000000000000000000000081526004016200021c906200455e565b604051809103906200022d62003310565b50505b60008167ffffffffffffffff8111801562000255576000806200025262003310565b50505b506040519080825280602002602001820160405280156200029357816020015b6200027f62003380565b815260200190600190039081620002755790505b50905060008267ffffffffffffffff81118015620002bb57600080620002b862003310565b50505b50604051908082528060200260200182016040528015620002f957816020015b620002e5620033a2565b815260200190600190039081620002db5790505b50905060005b83811015620006bb5760008d8d838181106200031757fe5b9050602002013590506001600082815260200190815260200160002060048060200260405190810160405280929190826004801562000375576020028201915b8162000362620033c4565b8152602001906001019080831162000357575b50505050508483815181106200038757fe5b60200260200101819052506200051a60026000838152602001908152602001600020600090620003b6620033c4565b906101000a900473ffffffffffffffffffffffffffffffffffffffff1673ffffffffffffffffffffffffffffffffffffffff1663affed0e06040518163ffffffff1660e01b815260040160206040518083038186806200041562003429565b1580156200042d576000806200042a62003310565b50505b505a620004396200348e565b50505050501580156200045b573d6000803e3d60006200045862003310565b50505b505050506040513d601f19601f8201168201806040525081019062000481919062004029565b8c8c858181106200048e57fe5b9050602002016020810190620004a5919062003cb5565b8b8b86818110620004b257fe5b9050602002016020810190620004c9919062003ff2565b8a8a87818110620004d657fe5b9050602002810190620004ea919062004580565b604051602001620004fe93929190620043b5565b6040516020818303038152906040528051906020012062000de0565b8383815181106200052757fe5b6020026020010181905250600260008f8f858181106200054357fe5b90506020020135815260200190815260200160002060009062000565620033c4565b906101000a900473ffffffffffffffffffffffffffffffffffffffff1673ffffffffffffffffffffffffffffffffffffffff1663f51b80cf8c8c85818110620005aa57fe5b9050602002016020810190620005c1919062003cb5565b8b8b86818110620005ce57fe5b9050602002016020810190620005e5919062003ff2565b8a8a87818110620005f257fe5b905060200281019062000606919062004580565b6040518563ffffffff1660e01b815260040162000627949392919062004439565b602060405180830381600087806200063e62003429565b15801562000656576000806200065362003310565b50505b505a6200066262003599565b50505050505015801562000685573d6000803e3d60006200068262003310565b50505b505050506040513d601f19601f82011682018060405250810190620006ab919062003ed0565b50508080600101915050620002ff565b50600080620006cc8c858562000e41565b91509150808015620006db5750815b62000728576040517f08c379a000000000000000000000000000000000000000000000000000000000815260040162000714906200451a565b604051809103906200072562003310565b50505b5050505050505050505050505050565b60026020528060005260406000206000915062000754620033c4565b906101000a900473ffffffffffffffffffffffffffffffffffffffff1681565b60006002600088815260200190815260200160002060009062000796620033c4565b906101000a900473ffffffffffffffffffffffffffffffffffffffff1690506000806200093b886002806020026040519081016040528092919082600260200280828437600081840152601f19601f820116905080830192505050505050600160008c815260200190815260200160002060048060200260405190810160405280929190826004801562000849576020028201915b8162000836620033c4565b815260200190600101908083116200082b575b5050505050620009358673ffffffffffffffffffffffffffffffffffffffff1663affed0e06040518163ffffffff1660e01b815260040160206040518083038186806200089562003429565b158015620008ad57600080620008aa62003310565b50505b505a620008b96200348e565b5050505050158015620008db573d6000803e3d6000620008d862003310565b50505b505050506040513d601f19601f8201168201806040525081019062000901919062004029565b8b8b8b8b6040516020016200091993929190620043b5565b6040516020818303038152906040528051906020012062000de0565b620012f8565b915091508080156200094a5750815b62000997576040517f08c379a00000000000000000000000000000000000000000000000000000000081526004016200098390620044f8565b604051809103906200099462003310565b50505b8273ffffffffffffffffffffffffffffffffffffffff1663f51b80cf888888886040518563ffffffff1660e01b8152600401620009d8949392919062004439565b60206040518083038160008780620009ef62003429565b15801562000a075760008062000a0462003310565b50505b505a62000a1362003599565b50505050505015801562000a36573d6000803e3d600062000a3362003310565b50505b505050506040513d601f19601f8201168201806040525081019062000a5c919062003ed0565b50505050505050505050565b60008660405160200162000a7d919062004398565b604051602081830303815290604052805190602001209050600073ffffffffffffffffffffffffffffffffffffffff166002600083815260200190815260200160002060009062000acd620033c4565b906101000a900473ffffffffffffffffffffffffffffffffffffffff1673ffffffffffffffffffffffffffffffffffffffff16141562000d3a57866001600083815260200190815260200160002090600462000b2b929190620036a4565b5060405162000b3a90620036f4565b60405180910390600062000b4d62003702565b50508015801562000b6d573d6000803e3d600062000b6a62003310565b50505b506002600083815260200190815260200160002060006101000a8162000b92620033c4565b8173ffffffffffffffffffffffffffffffffffffffff021916908373ffffffffffffffffffffffffffffffffffffffff1602179062000bd062003794565b5050506002600082815260200190815260200160002060009062000bf3620033c4565b906101000a900473ffffffffffffffffffffffffffffffffffffffff1673ffffffffffffffffffffffffffffffffffffffff16639498bd71826040518263ffffffff1660e01b815260040162000c4a91906200449c565b6000604051808303816000878062000c6162003429565b15801562000c795760008062000c7662003310565b50505b505a62000c8562003599565b50505050505015801562000ca8573d6000803e3d600062000ca562003310565b50505b50505050806002600083815260200190815260200160002060009062000ccd620033c4565b906101000a900473ffffffffffffffffffffffffffffffffffffffff1673ffffffffffffffffffffffffffffffffffffffff167fb65a6d7c4b2ea016740a09090e34933cc4058cd2788e5c9dfc7a6bf9721435328960405162000d3191906200447f565b60405180910390a35b62000d4a81878787878762000774565b50505050505050565b6002600082815260200190815260200160002060009062000d73620033c4565b906101000a900473ffffffffffffffffffffffffffffffffffffffff1673ffffffffffffffffffffffffffffffffffffffff165a62000db1620037fb565b73ffffffffffffffffffffffffffffffffffffffff161462000ddd5760008062000dda62003310565b50505b50565b62000dea620033a2565b60005a62000df76200385a565b905062000e37600062000e09620033c4565b8287878760405160200162000e229493929190620043e3565b604051602081830303815290604052620014d9565b9150509392505050565b6000806000845190506000811162000eb0576040517f08c379a0000000000000000000000000000000000000000000000000000000008152600401808060200182810382526021815260200180620055cd602191396040019150506040518091039062000ead62003310565b50505b8351811462000f16576040517f08c379a000000000000000000000000000000000000000000000000000000000815260040180806020018281038252603581526020018062005598603591396040019150506040518091039062000f1362003310565b50505b600060066001830102905060008167ffffffffffffffff8111801562000f465760008062000f4362003310565b50505b5060405190808252806020026020018201604052801562000f765781602001602082028036833780820191505090505b5090508760006002811062000f8757fe5b60200201518160008151811062000f9a57fe5b6020026020010181815250508760016002811062000fb457fe5b60200201518160018151811062000fc757fe5b6020026020010181815250507f198e9393920d483a7260bfb731fb5d25f1aa493335a9e71297e485b7aef312c2816002815181106200100257fe5b6020026020010181815250507f1800deef121f1e76426a00665e5c4479674322d4f75edadd46debd5cd992f6ed816003815181106200103d57fe5b6020026020010181815250507f275dc4a288d1afb3cbb1ac09187524c7db36395df7be3b99e673b13a075a65ec816004815181106200107857fe5b6020026020010181815250507f1d9befcd05a5323e6da4d435f3b617cdb3af83285c2df711ef39c01571827f9d81600581518110620010b357fe5b60200260200101818152505060005b838110156200127c57868181518110620010d857fe5b6020026020010151600060028110620010ed57fe5b602002015182600680840201815181106200110457fe5b6020026020010181815250508681815181106200111d57fe5b60200260200101516001600281106200113257fe5b60200201518260076006840201815181106200114a57fe5b6020026020010181815250508781815181106200116357fe5b60200260200101516001600481106200117857fe5b60200201518260086006840201815181106200119057fe5b602002602001018181525050878181518110620011a957fe5b6020026020010151600060048110620011be57fe5b6020020151826009600684020181518110620011d657fe5b602002602001018181525050878181518110620011ef57fe5b60200260200101516003600481106200120457fe5b602002015182600a6006840201815181106200121c57fe5b6020026020010181815250508781815181106200123557fe5b60200260200101516002600481106200124a57fe5b602002015182600b6006840201815181106200126257fe5b6020026020010181815250508080600101915050620010c2565b5062001287620038b9565b60006200129485620016a7565b90506020826020860260208601600885620012ae6200348e565b5050505050955085620012cd57600080965096505050505050620012f0565b600082600060018110620012dd57fe5b6020020151141560019650965050505050505b935093915050565b6000806000604051806101800160405280876000600281106200131757fe5b60200201518152602001876001600281106200132f57fe5b602002015181526020017f198e9393920d483a7260bfb731fb5d25f1aa493335a9e71297e485b7aef312c281526020017f1800deef121f1e76426a00665e5c4479674322d4f75edadd46debd5cd992f6ed81526020017f275dc4a288d1afb3cbb1ac09187524c7db36395df7be3b99e673b13a075a65ec81526020017f1d9befcd05a5323e6da4d435f3b617cdb3af83285c2df711ef39c01571827f9d815260200185600060028110620013df57fe5b6020020151815260200185600160028110620013f757fe5b60200201518152602001866001600481106200140f57fe5b60200201518152602001866000600481106200142757fe5b60200201518152602001866003600481106200143f57fe5b60200201518152602001866002600481106200145757fe5b602002015181525090506200146b620038b9565b6000620014796002620016a7565b9050600060208361018086600886620014916200348e565b5050505050905080620014af576000809550955050505050620014d1565b600083600060018110620014bf57fe5b60200201511415600195509550505050505b935093915050565b620014e3620033a2565b6000620014f18484620016c7565b9050600062001512826000600281106200150757fe5b60200201516200185c565b9050600062001533836001600281106200152857fe5b60200201516200185c565b90506200153f62003380565b826000600281106200154d57fe5b6020020151816000600481106200156057fe5b602002018181525050826001600281106200157757fe5b6020020151816001600481106200158a57fe5b60200201818152505081600060028110620015a157fe5b602002015181600260048110620015b457fe5b60200201818152505081600160028110620015cb57fe5b602002015181600360048110620015de57fe5b602002018181525050600060408460808460066107d05a03620016006200348e565b505050505090508060008114620016175762001619565bfe5b508062001699576040517f08c379a00000000000000000000000000000000000000000000000000000000081526004018080602001828103825260178152602001807f424c533a20626e206164642063616c6c206661696c6564000000000000000000815250602001915050604051809103906200169662003310565b50505b839550505050505092915050565b60008061afc8905060006184d09050600184018102820192505050919050565b620016d1620033a2565b6000620016df848462001f48565b90506000806000806018850177ffffffffffffffffffffffffffffffffffffffffffffffff815116935060308601905077ffffffffffffffffffffffffffffffffffffffffffffffff81511694507f30644e72e131a029b85045b68181585d97816a916871ca8d3c208c16d87cfd47857f30644e72e131a029b85045b68181585d97816a916871ca8d3c208c16d87cfd477801000000000000000000000000000000000000000000000000870908925060488601905077ffffffffffffffffffffffffffffffffffffffffffffffff815116935060608601905077ffffffffffffffffffffffffffffffffffffffffffffffff81511694507f30644e72e131a029b85045b68181585d97816a916871ca8d3c208c16d87cfd47857f30644e72e131a029b85045b68181585d97816a916871ca8d3c208c16d87cfd4778010000000000000000000000000000000000000000000000008709089150506040518060400160405280838152602001828152509550505050505092915050565b62001866620033a2565b7f30644e72e131a029b85045b68181585d97816a916871ca8d3c208c16d87cfd478210620018eb576040517f08c379a0000000000000000000000000000000000000000000000000000000008152600401808060200182810382526023815260200180620055ee6023913960400191505060405180910390620018e862003310565b50505b60008290506000620018fd8262002415565b91505060007f30644e72e131a029b85045b68181585d97816a916871ca8d3c208c16d87cfd47806200192b57fe5b83840990507f30644e72e131a029b85045b68181585d97816a916871ca8d3c208c16d87cfd47806200195957fe5b60048208905060007f30644e72e131a029b85045b68181585d97816a916871ca8d3c208c16d87cfd47806200198a57fe5b77b3c4d79d41a91759a9e4c7e359b6b89eaec68e62effffffd8509905060007f30644e72e131a029b85045b68181585d97816a916871ca8d3c208c16d87cfd4780620019d257fe5b8383099050620019e2816200245a565b90507f30644e72e131a029b85045b68181585d97816a916871ca8d3c208c16d87cfd478062001a0d57fe5b82830991507f30644e72e131a029b85045b68181585d97816a916871ca8d3c208c16d87cfd478062001a3b57fe5b81830991507f30644e72e131a029b85045b68181585d97816a916871ca8d3c208c16d87cfd478062001a6957fe5b82860991507f30644e72e131a029b85045b68181585d97816a916871ca8d3c208c16d87cfd478062001a9757fe5b827f30644e72e131a029b85045b68181585d97816a916871ca8d3c208c16d87cfd47037759e26bcea0d48bacd4f263f1acdb5c4f5763473177fffffe0894507f30644e72e131a029b85045b68181585d97816a916871ca8d3c208c16d87cfd478062001aff57fe5b85860991507f30644e72e131a029b85045b68181585d97816a916871ca8d3c208c16d87cfd478062001b2d57fe5b85830991507f30644e72e131a029b85045b68181585d97816a916871ca8d3c208c16d87cfd478062001b5b57fe5b600383089150600062001b6e8362002415565b8092508194505050801562001bcc578462001ba957827f30644e72e131a029b85045b68181585d97816a916871ca8d3c208c16d87cfd470392505b604051806040016040528087815260200184815250965050505050505062001f43565b7f30644e72e131a029b85045b68181585d97816a916871ca8d3c208c16d87cfd478062001bf557fe5b600187087f30644e72e131a029b85045b68181585d97816a916871ca8d3c208c16d87cfd470395507f30644e72e131a029b85045b68181585d97816a916871ca8d3c208c16d87cfd478062001c4657fe5b86870992507f30644e72e131a029b85045b68181585d97816a916871ca8d3c208c16d87cfd478062001c7457fe5b86840992507f30644e72e131a029b85045b68181585d97816a916871ca8d3c208c16d87cfd478062001ca257fe5b60038408925062001cb38362002415565b8092508194505050801562001d11578462001cee57827f30644e72e131a029b85045b68181585d97816a916871ca8d3c208c16d87cfd470392505b604051806040016040528087815260200184815250965050505050505062001f43565b7f30644e72e131a029b85045b68181585d97816a916871ca8d3c208c16d87cfd478062001d3a57fe5b84850995507f30644e72e131a029b85045b68181585d97816a916871ca8d3c208c16d87cfd478062001d6857fe5b86870995507f30644e72e131a029b85045b68181585d97816a916871ca8d3c208c16d87cfd478062001d9657fe5b82870995507f30644e72e131a029b85045b68181585d97816a916871ca8d3c208c16d87cfd478062001dc457fe5b82870995507f30644e72e131a029b85045b68181585d97816a916871ca8d3c208c16d87cfd478062001df257fe5b6001870895507f30644e72e131a029b85045b68181585d97816a916871ca8d3c208c16d87cfd478062001e2157fe5b86870992507f30644e72e131a029b85045b68181585d97816a916871ca8d3c208c16d87cfd478062001e4f57fe5b86840992507f30644e72e131a029b85045b68181585d97816a916871ca8d3c208c16d87cfd478062001e7d57fe5b60038408925062001e8e8362002415565b80925081945050508062001ef9576040517f08c379a000000000000000000000000000000000000000000000000000000000815260040180806020018281038252602281526020018062005611602291396040019150506040518091039062001ef662003310565b50505b8462001f2557827f30644e72e131a029b85045b68181585d97816a916871ca8d3c208c16d87cfd470392505b60405180604001604052808781526020018481525096505050505050505b919050565b606060008251905060006004604083602001010167ffffffffffffffff8111801562001f7e5760008062001f7b62003310565b50505b506040519080825280601f01601f19166020018201604052801562001fb25781602001600182028036833780820191505090505b5090506000606067ffffffffffffffff8111801562001fdb5760008062001fd862003310565b50505b506040519080825280601f01601f1916602001820160405280156200200f5781602001600182028036833780820191505090505b5090506060820160005b848110156200203957602081018701518183015260208101905062002019565b508381019050600081536001810190506060815360018101905060008153600181019050868152602081019050602081535060006002836040518082805190602001908083835b60208310620020a5578051825260208201915060208101905060208303925062002080565b6001836020036101000a038019825116818451168082178552505050505050905001915050602060405180830381855a620020df6200348e565b505050505015801562002101573d6000803e3d6000620020fe62003310565b50505b5050506040513d602081101562002122576000806200211f62003310565b50505b8101908080519060200190929190505050905060006042945084845281602085015260016040850153876041850152602060416020018501536002846040518082805190602001908083835b602083106200219357805182526020820191506020810190506020830392506200216e565b6001836020036101000a038019825116818451168082178552505050505050905001915050602060405180830381855a620021cd6200348e565b5050505050158015620021ef573d6000803e3d6000620021ec62003310565b50505b5050506040513d602081101562002210576000806200220d62003310565b50505b810190808051906020019092919050505090508060208401528082188060208601526002604086015388604186015260206041602001860153506002846040518082805190602001908083835b602083106200228257805182526020820191506020810190506020830392506200225d565b6001836020036101000a038019825116818451168082178552505050505050905001915050602060405180830381855a620022bc6200348e565b5050505050158015620022de573d6000803e3d6000620022db62003310565b50505b5050506040513d6020811015620022ff57600080620022fc62003310565b50505b810190808051906020019092919050505090508060408401528082188060208601526003604086015388604186015260206041602001860153506002846040518082805190602001908083835b602083106200237157805182526020820191506020810190506020830392506200234c565b6001836020036101000a038019825116818451168082178552505050505050905001915050602060405180830381855a620023ab6200348e565b5050505050158015620023cd573d6000803e3d6000620023ca62003310565b50505b5050506040513d6020811015620023ee57600080620023eb62003310565b50505b81019080805190602001909291905050509050806060840152829550505050505092915050565b60008062002423836200246e565b9150827f30644e72e131a029b85045b68181585d97816a916871ca8d3c208c16d87cfd47806200244f57fe5b838409149050915091565b6000620024678262002bb6565b9050919050565b60007f30644e72e131a029b85045b68181585d97816a916871ca8d3c208c16d87cfd478083840991508083830981838209828283098385830984848309858484098684850997508684840987858409945087898a09985087898a09985087898a09985087898a09985087898a09985087878a09985087898a09985087898a09985087898a099850878a8a09985087898a09985087898a09985087898a09985087898a099850878a8a09985087898a09985087898a09985087898a09985087898a09985087898a09985087848a09985087898a09985087898a09985087898a09985087898a09985087898a09985087848a09985087898a09985087898a09985087898a099850878a8a09985087898a09985087898a09985087898a09985087898a09985087848a09985087898a09985087898a09985087898a09985087898a09985087898a099850878a8a09985087898a09985087898a09985087898a09985087898a09985087878a09985087898a09985087898a09985087898a09985087898a09985087898a09985087898a09985087898a09985087818a09985087898a09985087898a09985087898a09985087898a09985087898a09985087898a09985087898a09985087898a09985087898a09985087898a09985087868a09985087898a09985087898a09985087898a09985087898a09985087878a09985087898a09985087898a09985087898a09985087898a09985087848a09985087898a09985087898a09985087898a09985087898a09985087898a09985087898a09985087898a09985087868a09985087898a09985087898a09985087898a09985087898a09985087898a09985087898a099850878a8a09985087898a09985087898a09985087898a09985087898a09985087898a09985087898a09985087898a09985087828a09985087898a09985087898a09985087898a09985087898a09985087898a09985087818a09985087898a09985087898a09985087898a09985087868a09985087898a09985087898a09985087898a09985087898a09985087898a09985087898a09985087898a09985087898a09985087878a09985087898a09985087898a09985087898a09985087898a09985087898a09985087898a09985087898a09985087898a09985087898a09985087868a09985087898a09985087898a09985087898a09985087878a09985087898a09985087898a09985087898a09985087898a09985087898a09985087898a09985087898a09985087898a09985087828a09985087898a09985087898a09985087898a09985087898a09985087828a09985087898a09985087898a09985087898a09985087898a09985087898a09985087868a09985087898a09985087898a09985087898a09985087848a09985087898a09985087898a09985087898a09985087898a09985087898a09985087898a09985087898a09985087898a09985087898a09985087898a09985087828a09985087898a09985087898a09985087898a09985087898a09985087868a09985087898a09985087898a09985087898a09985087898a09985087898a09985087838a09985087898a09985087898a09985087898a09985087898a09985087898a09985087898a09985087898a09985087828a09985087898a09985087898a099850878a8a09985087898a09985087898a09985087898a09985087898a09985087898a09985087898a09985087898a09985087848a09985087898a09985087898a09985087898a09985087898a09985087898a09985087898a09985087848a09985087898a09985087898a09985087898a09985087898a09985087898a09985087868a09985087898a09985087898a099850878a8a09985087898a09985087898a09985087898a09985087898a09985087898a09985087898a09985087898a09985087818a09985087898a09985087898a09985087898a09985087898a09985087898a09985087898a09985087858a09985087898a09985087898a09985087898a09985087898a09985087898a099850878a8a09985087898a09985087898a09985087898a09985087898a09985087898a09985087898a099850878a8a09985087898a09985087898a09985087898a09985087898a09985087898a09985087878a09985087898a09985087898a09985087898a09985087898a09985087898a09985087898a09985087898a09985087898a09985087898a09985087828a09985087898a09985087898a09985087898a09985087878a09985087898a09985087898a09985087898a09985087878a09985087898a09985087898a09985087898a09985087898a09985087898a09985087898a09985087898a09985087898a09985087858a09985087898a09985087898a09985087898a09985087898a09985087838a09985087898a09985087898a09985087898a09985087898a09985087858a09985087898a09985087898a09985087898a09985087868a09985087898a09985087898a09985087898a09985087898a09985087898a09985087838a09985087898a0998505050505050505050919050565b60007f30644e72e131a029b85045b68181585d97816a916871ca8d3c208c16d87cfd478083840991508083830981838209828283098385830984848309858484098684850997508684840987858409945087898a09985087898a09985087898a09985087898a09985087898a09985087878a09985087898a09985087898a09985087898a099850878a8a09985087898a09985087898a09985087898a09985087898a099850878a8a09985087898a09985087898a09985087898a09985087898a09985087898a09985087848a09985087898a09985087898a09985087898a09985087898a09985087898a09985087848a09985087898a09985087898a09985087898a099850878a8a09985087898a09985087898a09985087898a09985087898a09985087848a09985087898a09985087898a09985087898a09985087898a09985087898a099850878a8a09985087898a09985087898a09985087898a09985087898a09985087878a09985087898a09985087898a09985087898a09985087898a09985087898a09985087898a09985087898a09985087818a09985087898a09985087898a09985087898a09985087898a09985087898a09985087898a09985087898a09985087898a09985087898a09985087898a09985087868a09985087898a09985087898a09985087898a09985087898a09985087878a09985087898a09985087898a09985087898a09985087898a09985087848a09985087898a09985087898a09985087898a09985087898a09985087898a09985087898a09985087898a09985087868a09985087898a09985087898a09985087898a09985087898a09985087898a09985087898a099850878a8a09985087898a09985087898a09985087898a09985087898a09985087898a09985087898a09985087898a09985087828a09985087898a09985087898a09985087898a09985087898a09985087898a09985087818a09985087898a09985087898a09985087898a09985087868a09985087898a09985087898a09985087898a09985087898a09985087898a09985087898a09985087898a09985087898a09985087878a09985087898a09985087898a09985087898a09985087898a09985087898a09985087898a09985087898a09985087898a09985087898a09985087868a09985087898a09985087898a09985087898a09985087878a09985087898a09985087898a09985087898a09985087898a09985087898a09985087898a09985087898a09985087898a09985087828a09985087898a09985087898a09985087898a09985087898a09985087828a09985087898a09985087898a09985087898a09985087898a09985087898a09985087868a09985087898a09985087898a09985087898a09985087848a09985087898a09985087898a09985087898a09985087898a09985087898a09985087898a09985087898a09985087898a09985087898a09985087898a09985087828a09985087898a09985087898a09985087898a09985087898a09985087868a09985087898a09985087898a09985087898a09985087898a09985087898a09985087838a09985087898a09985087898a09985087898a09985087898a09985087898a09985087898a09985087898a09985087828a09985087898a09985087898a099850878a8a09985087898a09985087898a09985087898a09985087898a09985087898a09985087898a09985087898a09985087848a09985087898a09985087898a09985087898a09985087898a09985087898a09985087898a09985087848a09985087898a09985087898a09985087898a09985087898a09985087898a09985087868a09985087898a09985087898a099850878a8a09985087898a09985087898a09985087898a09985087898a09985087898a09985087898a09985087898a09985087818a09985087898a09985087898a09985087898a09985087898a09985087898a09985087898a09985087858a09985087898a09985087898a09985087898a09985087898a09985087898a099850878a8a09985087898a09985087898a09985087898a09985087898a09985087898a09985087898a099850878a8a09985087898a09985087898a09985087898a09985087898a09985087898a09985087878a09985087898a09985087898a09985087898a09985087898a09985087898a09985087898a09985087898a09985087898a09985087898a09985087828a09985087898a09985087898a09985087898a09985087878a09985087898a09985087898a09985087898a09985087878a09985087898a09985087898a09985087898a09985087898a09985087898a09985087898a09985087898a09985087898a09985087858a09985087898a09985087898a09985087898a09985087898a09985087838a09985087898a09985087898a09985087898a09985087898a09985087858a09985087898a09985087898a09985087898a09985087868a09985087898a09985087898a099850878a8a09985087898a09985087898a09985087898a09985087898a09985087898a09985087898a09985087868a0998505050505050505050919050565b632a2a7adb598160e01b8152600481016020815285602082015260005b868110156200334d5780860151816040840101526020810190506200332d565b506020828760640184336000905af158600e01573d6000803e3d6000fd5b3d6001141558600a015760016000f35b505050565b6040518060800160405280600490602082028036833780820191505090505090565b6040518060400160405280600290602082028036833780820191505090505090565b6303daa959598160e01b8152836004820152602081602483336000905af158600e01573d6000803e3d6000fd5b3d6001141558600a015760016000f35b8051935060005b6040811015620034245760008183015260208101905062003408565b505050565b638435035b598160e01b8152836004820152602081602483336000905af158600e01573d6000803e3d6000fd5b3d6001141558600a015760016000f35b8051935060005b604081101562003489576000818301526020810190506200346d565b505050565b638540661f598160e01b8152620034d0565b600081905081831115620034b2578290505b92915050565b600081905081831015620034ca578290505b92915050565b836004820152846024820152606060448201528660648201526084810160005b888110156200350d578088015181830152602081019050620034f0565b506060828960a40184336000905af158600e01573d6000803e3d6000fd5b3d6001141558600a015760016000f35b815160408301513d6000853e8b8b82606087013350600060045af15059620035648d3d620034b8565b8c01620035728187620034a0565b5b828110156200358c576000815260208101905062003573565b50839d5050505050505050565b6385979f76598160e01b8152620035db565b600081905081831115620035bd578290505b92915050565b600081905081831015620035d5578290505b92915050565b836004820152846024820152606060448201528760648201526084810160005b8981101562003618578089015181830152602081019050620035fb565b506060828a60a40184336000905af158600e01573d6000803e3d6000fd5b3d6001141558600a015760016000f35b815160408301513d6000853e8c8c82606087013350600060045af150596200366f8e3d620035c3565b8d016200367d8187620035ab565b5b828110156200369757600081526020810190506200367e565b50839e5050505050505050565b8260048101928215620036e1579160200282015b82811115620036e057823582620036ce62003794565b505091602001919060010190620036b8565b5b509050620036f09190620038db565b5090565b610d3c806200485c83390190565b6314aa2ff7598160e01b8152600481016020815286602082015260005b878110156200373f5780870151816040840101526020810190506200371f565b506020828860640184336000905af158600e01573d6000803e3d6000fd5b3d6001141558600a015760016000f35b8151965059825b818110156200378d576000815260208101905062003774565b5050505050565b6322bd64c0598160e01b8152836004820152846024820152600081604483336000905af158600e01573d6000803e3d6000fd5b3d6001141558600a015760016000f35b60005b6040811015620037f657600081830152602081019050620037da565b505050565b6373509064598160e01b8152602081600483336000905af158600e01573d6000803e3d6000fd5b3d6001141558600a015760016000f35b8051935060005b6040811015620038555760008183015260208101905062003839565b505050565b6390580256598160e01b8152602081600483336000905af158600e01573d6000803e3d6000fd5b3d6001141558600a015760016000f35b8051935060005b6040811015620038b45760008183015260208101905062003898565b505050565b6040518060200160405280600190602082028036833780820191505090505090565b5b808211156200390157600081600090620038f562003794565b505050600101620038dc565b5090565b60006200391c62003916846200462f565b620045fb565b905080828560208602820111156200393e576000806200393b62003310565b50505b60005b8581101562003972578162003957888262003c87565b84526020840193506020830192505060018101905062003941565b5050509392505050565b6000813590506200398d81620047a2565b92915050565b60008083601f840112620039b157600080620039ae62003310565b50505b8235905067ffffffffffffffff811115620039d657600080620039d362003310565b50505b602083019150836020820283011115620039fa57600080620039f762003310565b50505b9250929050565b60008083601f84011262003a1f5760008062003a1c62003310565b50505b8235905067ffffffffffffffff81111562003a445760008062003a4162003310565b50505b60208301915083602082028301111562003a685760008062003a6562003310565b50505b9250929050565b60008083601f84011262003a8d5760008062003a8a62003310565b50505b8235905067ffffffffffffffff81111562003ab25760008062003aaf62003310565b50505b60208301915083602082028301111562003ad65760008062003ad362003310565b50505b9250929050565b60008083601f84011262003afb5760008062003af862003310565b50505b8235905067ffffffffffffffff81111562003b205760008062003b1d62003310565b50505b60208301915083602082028301111562003b445760008062003b4162003310565b50505b9250929050565b60008190508260206002028201111562003b6f5760008062003b6c62003310565b50505b92915050565b600082601f83011262003b925760008062003b8f62003310565b50505b600262003ba184828562003905565b91505092915050565b60008190508260206004028201111562003bce5760008062003bcb62003310565b50505b92915050565b60008151905062003be581620047c7565b92915050565b60008135905062003bfc81620047ec565b92915050565b60008135905062003c138162004811565b92915050565b60008083601f84011262003c375760008062003c3462003310565b50505b8235905067ffffffffffffffff81111562003c5c5760008062003c5962003310565b50505b60208301915083600182028301111562003c805760008062003c7d62003310565b50505b9250929050565b60008135905062003c988162004836565b92915050565b60008151905062003caf8162004836565b92915050565b60006020828403121562003cd35760008062003cd062003310565b50505b600062003ce3848285016200397c565b91505092915050565b600080600080600080600080600060c08a8c03121562003d165760008062003d1362003310565b50505b60008a013567ffffffffffffffff81111562003d3c5760008062003d3962003310565b50505b62003d4a8c828d0162003a01565b9950995050602062003d5f8c828d0162003b75565b97505060608a013567ffffffffffffffff81111562003d885760008062003d8562003310565b50505b62003d968c828d0162003993565b965096505060808a013567ffffffffffffffff81111562003dc15760008062003dbe62003310565b50505b62003dcf8c828d0162003a6f565b945094505060a08a013567ffffffffffffffff81111562003dfa5760008062003df762003310565b50505b62003e088c828d0162003add565b92509250509295985092959850929598565b600080600080600080610120878903121562003e405760008062003e3d62003310565b50505b600062003e5089828a0162003baa565b965050608062003e6389828a0162003b4b565b95505060c062003e7689828a016200397c565b94505060e062003e8989828a0162003c02565b93505061010087013567ffffffffffffffff81111562003eb35760008062003eb062003310565b50505b62003ec189828a0162003c19565b92509250509295509295509295565b60006020828403121562003eee5760008062003eeb62003310565b50505b600062003efe8482850162003bd4565b91505092915050565b60006020828403121562003f255760008062003f2262003310565b50505b600062003f358482850162003beb565b91505092915050565b60008060008060008060c0878903121562003f635760008062003f6062003310565b50505b600062003f7389828a0162003beb565b965050602062003f8689828a0162003b4b565b955050606062003f9989828a016200397c565b945050608062003fac89828a0162003c02565b93505060a087013567ffffffffffffffff81111562003fd55760008062003fd262003310565b50505b62003fe389828a0162003c19565b92509250509295509295509295565b60006020828403121562004010576000806200400d62003310565b50505b6000620040208482850162003c02565b91505092915050565b60006020828403121562004047576000806200404462003310565b50505b6000620040578482850162003c9e565b91505092915050565b6200406b8162004685565b82525050565b62004086620040808262004685565b6200473c565b82525050565b6200409a608083836200472d565b5050565b620040ac608083836200472d565b5050565b620040bb81620046a5565b82525050565b620040d6620040d082620046a5565b62004750565b82525050565b620040e781620046af565b82525050565b62004102620040fc82620046af565b6200475a565b82525050565b600062004116838562004658565b9350620041258385846200472d565b620041308362004784565b840190509392505050565b600062004149838562004669565b9350620041588385846200472d565b82840190509392505050565b6200416f8162004705565b82525050565b60006200418460398362004674565b91507f566572696669636174696f6e476174657761793a206d6574686f644944732f6360008301527f6f6e747261637473206c656e677468206d69736d617463682e000000000000006020830152604082019050919050565b6000620041ec60258362004674565b91507f566572696669636174696f6e476174657761793a20736967206e6f742076657260008301527f69666965640000000000000000000000000000000000000000000000000000006020830152604082019050919050565b600062004254602a8362004674565b91507f566572696669636174696f6e476174657761793a20416c6c2073696773206e6f60008301527f74207665726966696564000000000000000000000000000000000000000000006020830152604082019050919050565b6000620042bc60408362004674565b91507f566572696669636174696f6e476174657761793a20656e636f6465645061726160008301527f6d536574732f636f6e747261637473206c656e677468206d69736d617463682e6020830152604082019050919050565b600062004324603d8362004674565b91507f566572696669636174696f6e476174657761793a207075626c69634b6579486160008301527f73682f636f6e747261637473206c656e677468206d69736d617463682e0000006020830152604082019050919050565b620043926200438c82620046fb565b62004778565b82525050565b6000620043a682846200409e565b60808201915081905092915050565b6000620043c38286620040ed565b600482019150620043d68284866200413b565b9150819050949350505050565b6000620043f182876200437d565b6020820191506200440382866200437d565b60208201915062004415828562004071565b601482019150620044278284620040c1565b60208201915081905095945050505050565b600060608201905062004450600083018762004060565b6200445f6020830186620040dc565b81810360408301526200447481848662004108565b905095945050505050565b60006080820190506200449660008301846200408c565b92915050565b6000602082019050620044b36000830184620040b0565b92915050565b6000602082019050620044d0600083018462004164565b92915050565b60006020820190508181036000830152620044f18162004175565b9050919050565b600060208201905081810360008301526200451381620041dd565b9050919050565b60006020820190508181036000830152620045358162004245565b9050919050565b600060208201905081810360008301526200455781620042ad565b9050919050565b60006020820190508181036000830152620045798162004315565b9050919050565b60008083356001602003843603038112620045a557600080620045a262003310565b50505b80840192508235915067ffffffffffffffff821115620045cf57600080620045cc62003310565b50505b602083019250600182023603831315620045f357600080620045f062003310565b50505b509250929050565b6000604051905081810181811067ffffffffffffffff8211171562004625576200462462004782565b5b8060405250919050565b600067ffffffffffffffff8211156200464d576200464c62004782565b5b602082029050919050565b600082825260208201905092915050565b600081905092915050565b600082825260208201905092915050565b60006200469282620046db565b9050919050565b60008115159050919050565b6000819050919050565b60007fffffffff0000000000000000000000000000000000000000000000000000000082169050919050565b600073ffffffffffffffffffffffffffffffffffffffff82169050919050565b6000819050919050565b6000620047128262004719565b9050919050565b60006200472682620046db565b9050919050565b82818337600083830152505050565b6000620047498262004764565b9050919050565b6000819050919050565b6000819050919050565b6000620047718262004795565b9050919050565b6000819050919050565bfe5b6000601f19601f8301169050919050565b60008160601b9050919050565b620047ad8162004685565b8114620047c457600080620047c162003310565b50505b50565b620047d28162004699565b8114620047e957600080620047e662003310565b50505b50565b620047f781620046a5565b81146200480e576000806200480b62003310565b50505b50565b6200481c81620046af565b811462004833576000806200483062003310565b50505b50565b6200484181620046fb565b811462004858576000806200485562003310565b50505b5056fe60806040523480156100195760008061001661001f565b50505b5061008d565b632a2a7adb598160e01b8152600481016020815285602082015260005b8681101561005a57808601518160408401015260208101905061003c565b506020828760640184336000905af158600e01573d6000803e3d6000fd5b3d6001141558600a015760016000f35b505050565b610ca08061009c6000396000f3fe6080604052348015610019576000806100166104d8565b50505b50600436106100555760003560e01c80635e7e3416146100635780639498bd7114610081578063affed0e01461009d578063f51b80cf146100bb575b6000806100606104d8565b50505b61006b6100eb565b6040516100789190610a67565b60405180910390f35b61009b60048036038101906100969190610900565b6100f8565b005b6100a56102bf565b6040516100b29190610aa2565b60405180910390f35b6100d560048036038101906100d09190610887565b6102cc565b6040516100e29190610a4c565b60405180910390f35b60016100f5610546565b81565b6000600190610105610546565b906101000a900460ff168061011e575061011d610452565b5b8061013b575060008061012f610546565b906101000a900460ff16155b610199576040517f08c379a000000000000000000000000000000000000000000000000000000000815260040180806020018281038252602e815260200180610c72602e9139604001915050604051809103906101966104d8565b50505b6000806001906101a7610546565b906101000a900460ff161590508015610210576001600060016101000a816101cd610546565b8160ff021916908315150217906101e26105a9565b50505060016000806101000a816101f7610546565b8160ff0219169083151502179061020c6105a9565b5050505b816001819061021d6105a9565b5050505a61022961060e565b600060026101000a8161023a610546565b8173ffffffffffffffffffffffffffffffffffffffff021916908373ffffffffffffffffffffffffffffffffffffffff160217906102766105a9565b5050506000600281906102876105a9565b50505080156102bb5760008060016101000a816102a2610546565b8160ff021916908315150217906102b76105a9565b5050505b5050565b60026102c9610546565b81565b6000806002906102da610546565b906101000a900473ffffffffffffffffffffffffffffffffffffffff1673ffffffffffffffffffffffffffffffffffffffff165a61031661060e565b73ffffffffffffffffffffffffffffffffffffffff161461033f5760008061033c6104d8565b50505b60008383604051602001610354929190610a0d565b60405160208183030381529060405290508473ffffffffffffffffffffffffffffffffffffffff168160405161038a9190610a35565b6000604051808303816000865a61039f61066b565b5050505050509150503d80600081146103d4576040519150601f19603f3d011682016040523d82523d6000602084013e6103d9565b606091505b50508092505081610428576040517f08c379a000000000000000000000000000000000000000000000000000000000815260040161041690610a82565b604051809103906104256104d8565b50505b6002600081610435610546565b809291906001019190506104476105a9565b505050509392505050565b60006104b85a63996d79a5598160e01b8152602081600483336000905af158600e01573d6000803e3d6000fd5b3d6001141558600a015760016000f35b8051925060005b60408110156104b057600081830152602081019050610496565b5050506104be565b15905090565b600080826104ca61076b565b905060008111915050919050565b632a2a7adb598160e01b8152600481016020815285602082015260005b868110156105135780860151816040840101526020810190506104f5565b506020828760640184336000905af158600e01573d6000803e3d6000fd5b3d6001141558600a015760016000f35b505050565b6303daa959598160e01b8152836004820152602081602483336000905af158600e01573d6000803e3d6000fd5b3d6001141558600a015760016000f35b8051935060005b60408110156105a45760008183015260208101905061058a565b505050565b6322bd64c0598160e01b8152836004820152846024820152600081604483336000905af158600e01573d6000803e3d6000fd5b3d6001141558600a015760016000f35b60005b6040811015610609576000818301526020810190506105ef565b505050565b6373509064598160e01b8152602081600483336000905af158600e01573d6000803e3d6000fd5b3d6001141558600a015760016000f35b8051935060005b60408110156106665760008183015260208101905061064c565b505050565b6385979f76598160e01b81526106aa565b60008190508183111561068d578290505b92915050565b6000819050818310156106a4578290505b92915050565b836004820152846024820152606060448201528760648201526084810160005b898110156106e55780890151818301526020810190506106ca565b506060828a60a40184336000905af158600e01573d6000803e3d6000fd5b3d6001141558600a015760016000f35b815160408301513d6000853e8c8c82606087013350600060045af1505961073a8e3d610693565b8d01610746818761067c565b5b8281101561075e5760008152602081019050610747565b50839e5050505050505050565b638435035b598160e01b8152836004820152602081602483336000905af158600e01573d6000803e3d6000fd5b3d6001141558600a015760016000f35b8051935060005b60408110156107c9576000818301526020810190506107af565b505050565b60006107e16107dc84610aee565b610abd565b905082815260208101848484011115610802576000806107ff6104d8565b50505b61080d848285610bc3565b509392505050565b60008135905061082481610c11565b92915050565b60008135905061083981610c31565b92915050565b60008135905061084e81610c51565b92915050565b600082601f83011261086e5760008061086b6104d8565b50505b813561087e8482602086016107ce565b91505092915050565b6000806000606084860312156108a5576000806108a26104d8565b50505b60006108b386828701610815565b93505060206108c48682870161083f565b925050604084013567ffffffffffffffff8111156108ea576000806108e76104d8565b50505b6108f686828701610854565b9150509250925092565b60006020828403121561091b576000806109186104d8565b50505b60006109298482850161082a565b91505092915050565b61093b81610b57565b82525050565b61094a81610b63565b82525050565b61096161095c82610b6d565b610c05565b82525050565b600061097282610b1e565b61097c8185610b29565b935061098c818560208601610bd2565b80840191505092915050565b60006109a5603083610b34565b91507f424c5357616c6c65743a20616374696f6e206661696c656420746f2063616c6c60008301527f20656e636f64656446756e6374696f6e000000000000000000000000000000006020830152604082019050919050565b610a0781610bb9565b82525050565b6000610a198285610950565b600482019150610a298284610967565b91508190509392505050565b6000610a418284610967565b915081905092915050565b6000602082019050610a616000830184610932565b92915050565b6000602082019050610a7c6000830184610941565b92915050565b60006020820190508181036000830152610a9b81610998565b9050919050565b6000602082019050610ab760008301846109fe565b92915050565b6000604051905081810181811067ffffffffffffffff82111715610ae457610ae3610c0f565b5b8060405250919050565b600067ffffffffffffffff821115610b0957610b08610c0f565b5b601f19601f8301169050602081019050919050565b600081519050919050565b600081905092915050565b600082825260208201905092915050565b6000610b5082610b99565b9050919050565b60008115159050919050565b6000819050919050565b60007fffffffff0000000000000000000000000000000000000000000000000000000082169050919050565b600073ffffffffffffffffffffffffffffffffffffffff82169050919050565b6000819050919050565b82818337600083830152505050565b60005b83811015610bf0578082015181840152602081019050610bd5565b83811115610bff576000848401525b50505050565b6000819050919050565bfe5b610c1a81610b45565b8114610c2e57600080610c2b6104d8565b50505b50565b610c3a81610b63565b8114610c4e57600080610c4b6104d8565b50505b50565b610c5a81610b6d565b8114610c6e57600080610c6b6104d8565b50505b5056fe496e697469616c697a61626c653a20636f6e747261637420697320616c726561647920696e697469616c697a6564424c533a206e756d626572206f66207075626c6963206b65797320616e64206d65737361676573206d75737420626520657175616c424c533a206e756d626572206f66207075626c6963206b6579206973207a65726f6d6170546f506f696e7446543a20696e76616c6964206669656c6420656c656d656e74424c533a20626164206674206d617070696e6720696d706c656d656e746174696f6e",
  "linkReferences": {},
  "deployedLinkReferences": {}
}