{
  "_format": "hh-sol-artifact-1",
  "contractName": "BLSWallet",
  "sourceName": "contracts/BLSWallet.sol",
  "abi": [
    {
      "inputs": [
        {
          "internalType": "address",
          "name": "contractAddress",
          "type": "address"
        },
        {
          "internalType": "bytes4",
          "name": "methodID",
          "type": "bytes4"
        },
        {
          "internalType": "bytes",
          "name": "encodedParams",
          "type": "bytes"
        }
      ],
      "name": "action",
      "outputs": [
        {
          "internalType": "bool",
          "name": "success",
          "type": "bool"
        }
      ],
      "stateMutability": "nonpayable",
      "type": "function"
    },
    {
      "inputs": [
        {
          "internalType": "bytes32",
          "name": "blsKeyHash",
          "type": "bytes32"
        }
      ],
      "name": "initialize",
      "outputs": [],
      "stateMutability": "nonpayable",
      "type": "function"
    },
    {
      "inputs": [],
      "name": "nonce",
      "outputs": [
        {
          "internalType": "uint256",
          "name": "",
          "type": "uint256"
        }
      ],
      "stateMutability": "view",
      "type": "function"
    },
    {
      "inputs": [
        {
          "internalType": "contract IERC20",
          "name": "token",
          "type": "address"
        },
        {
          "internalType": "address",
          "name": "recipient",
          "type": "address"
        },
        {
          "internalType": "uint256",
          "name": "amount",
          "type": "uint256"
        }
      ],
      "name": "payTokenAmount",
      "outputs": [],
      "stateMutability": "nonpayable",
      "type": "function"
    },
    {
      "inputs": [],
      "name": "publicKeyHash",
      "outputs": [
        {
          "internalType": "bytes32",
          "name": "",
          "type": "bytes32"
        }
      ],
      "stateMutability": "view",
      "type": "function"
    }
  ],
  "bytecode": "0x60806040523480156100195760008061001661001f565b50505b5061008a565b632a2a7adb598160e01b8152600481016020815285602082015260005b8681101561005757808601518282016040015260200161003c565b506020828760640184336000905af158600e01573d6000803e3d6000fd5b3d6001141558600a015760016000f35b505050565b610ad2806100996000396000f3fe608060405234801561001957600080610016610531565b50505b50600436106100705760003560e01c80639498bd71116100595780639498bd71146100b1578063affed0e0146100c4578063f51b80cf146100cc57610070565b80635e7e34161461007e5780637808ad351461009c575b60008061007b610531565b50505b6100866100ec565b6040516100939190610a1f565b60405180910390f35b6100af6100aa366004610930565b6100f9565b005b6100af6100bf36600461090f565b6101ee565b610086610375565b6100df6100da3660046107c9565b61037f565b6040516100939190610a14565b60016100f661059c565b81565b6002600061010561059c565b906101000a90046001600160a01b03166001600160a01b03165a6101276105fc565b6001600160a01b03161461014357600080610140610531565b50505b826001600160a01b031663a9059cbb83836040518363ffffffff1660e01b81526004016101719291906109fb565b60206040518083038160008780610186610642565b15801561019b57600080610198610531565b50505b505a6101a561068e565b5050505050501580156101c5573d6000803e3d60006101c2610531565b50505b50505050604051601f3d908101601f191682016040526101e891908101906108d6565b50505050565b600160006101fa61059c565b906101000a900460ff168061021257506102126104b3565b8061022f575060008061022361059c565b906101000a900460ff16155b6102735760405162461bcd60e51b815260040180806020018281038252602e815260200180610aa4602e913960400191505060405180910390610270610531565b50505b600060018161028061059c565b906101000a900460ff1615905080156102e65760016000610100816102a361059c565b8160ff021916908315150217906102b861077b565b50505060016000806101000a816102cd61059c565b8160ff021916908315150217906102e261077b565b5050505b818060016102f261077b565b5050505a6102fe6105fc565b6000620100008161030d61059c565b816001600160a01b0302191690836001600160a01b031602179061032f61077b565b50505060006002819061034061077b565b5050508015610371576000806101008161035861059c565b8160ff0219169083151502179061036d61077b565b5050505b5050565b60026100f661059c565b600060028161038c61059c565b906101000a90046001600160a01b03166001600160a01b03165a6103ae6105fc565b6001600160a01b0316146103ca576000806103c7610531565b50505b600083836040516020016103df9291906109b3565b6040516020818303038152906040529050846001600160a01b03168160405161040891906109ef565b6000604051808303816000865a61041d61068e565b5050505050509150503d8060008114610452576040513d603f01601f191681016040523d815291503d6000602084013e610457565b606091505b5050809250508161048c5760405162461bcd60e51b815260040161047a90610a28565b60405180910390610489610531565b50505b600260008161049961059c565b916001830191506104a861077b565b505050509392505050565b60006105165a63996d79a5598160e01b8152602081600483336000905af158600e01573d6000803e3d6000fd5b3d6001141558600a015760016000f35b8051925060005b604081101561050e576000828201526020016104f7565b50505061051c565b15905090565b60008082610528610642565b15159392505050565b632a2a7adb598160e01b8152600481016020815285602082015260005b8681101561056957808601518282016040015260200161054e565b506020828760640184336000905af158600e01573d6000803e3d6000fd5b3d6001141558600a015760016000f35b505050565b6303daa959598160e01b8152836004820152602081602483336000905af158600e01573d6000803e3d6000fd5b3d6001141558600a015760016000f35b8051935060005b60408110156105f7576000828201526020016105e0565b505050565b6373509064598160e01b8152602081600483336000905af158600e01573d6000803e3d6000fd5b3d6001141558600a015760016000f35b805160008252935060206105e0565b638435035b598160e01b8152836004820152602081602483336000905af158600e01573d6000803e3d6000fd5b3d6001141558600a015760016000f35b805160008252935060206105e0565b6385979f76598160e01b81526106c1565b80808311156106ab5750815b92915050565b80808310156106ab575090919050565b836004820152846024820152606060448201528760648201526084810160005b898110156106f95780890151828201526020016106e1565b506060828a60a40184336000905af158600e01573d6000803e3d6000fd5b3d6001141558600a015760016000f35b815160408301513d6000853e8c8c82606087013350600060045af1505961074e8e3d6106b1565b8d0161075a818761069f565b5b8281101561076f576000815260200161075b565b50929d50505050505050565b6322bd64c0598160e01b8152836004820152846024820152600081604483336000905af158600e01573d6000803e3d6000fd5b3d6001141558600a015760016000f35b6000815260206105e0565b6000806000606084860312156107e65782836107e3610531565b50505b83356107f181610a85565b92506020848101357fffffffff000000000000000000000000000000000000000000000000000000008116811461082f57838461082c610531565b50505b9250604085013567ffffffffffffffff80821115610854578384610851610531565b50505b818701915087601f83011261087057838461086d610531565b50505b81358181111561087c57fe5b604051601f8201601f191681018501838111828210171561089957fe5b60405281815283820185018a10156108b85785866108b5610531565b50505b81858501868301378585838301015280955050505050509250925092565b6000602082840312156108f05780816108ed610531565b50505b81518015158114610908578182610905610531565b50505b9392505050565b600060208284031215610929578081610926610531565b50505b5035919050565b60008060006060848603121561094d57828361094a610531565b50505b833561095881610a85565b9250602084013561096881610a85565b929592945050506040919091013590565b60008151815b8181101561099a57602081850101518582015260200161097f565b818111156109a85782828601525b509290920192915050565b60007fffffffff00000000000000000000000000000000000000000000000000000000841682526109e76004830184610979565b949350505050565b60006109088284610979565b6001600160a01b03929092168252602082015260400190565b901515815260200190565b90815260200190565b60208082526030908201527f424c5357616c6c65743a20616374696f6e206661696c656420746f2063616c6c60408201527f20656e636f64656446756e6374696f6e00000000000000000000000000000000606082015260800190565b6001600160a01b0381168114610aa0576000806105f7610531565b5056fe496e697469616c697a61626c653a20636f6e747261637420697320616c726561647920696e697469616c697a6564",
  "linkReferences": {},
  "deployedLinkReferences": {}
}