{
  "_format": "hh-sol-artifact-1",
  "contractName": "VerificationGateway",
  "sourceName": "contracts/VerificationGateway.sol",
  "abi": [
    {
      "anonymous": false,
      "inputs": [
        {
          "indexed": true,
          "internalType": "address",
          "name": "wallet",
          "type": "address"
        },
        {
          "indexed": true,
          "internalType": "bytes32",
          "name": "publicKeyHash",
          "type": "bytes32"
        },
        {
          "indexed": false,
          "internalType": "uint256[4]",
          "name": "publicKey",
          "type": "uint256[4]"
        }
      ],
      "name": "WalletCreated",
      "type": "event"
    },
    {
      "inputs": [
        {
          "internalType": "bytes32",
          "name": "callingPublicKeyHash",
          "type": "bytes32"
        },
        {
          "internalType": "uint256[2]",
          "name": "signature",
          "type": "uint256[2]"
        },
        {
          "internalType": "uint256",
          "name": "tokenRewardAmount",
          "type": "uint256"
        },
        {
          "internalType": "address",
          "name": "contractAddress",
          "type": "address"
        },
        {
          "internalType": "bytes4",
          "name": "methodID",
          "type": "bytes4"
        },
        {
          "internalType": "bytes",
          "name": "encodedParams",
          "type": "bytes"
        }
      ],
      "name": "blsCall",
      "outputs": [],
      "stateMutability": "nonpayable",
      "type": "function"
    },
    {
      "inputs": [
        {
          "internalType": "uint256[4]",
          "name": "publicKey",
          "type": "uint256[4]"
        },
        {
          "internalType": "uint256[2]",
          "name": "signature",
          "type": "uint256[2]"
        },
        {
          "internalType": "uint256",
          "name": "tokenRewardAmount",
          "type": "uint256"
        },
        {
          "internalType": "address",
          "name": "contractAddress",
          "type": "address"
        },
        {
          "internalType": "bytes4",
          "name": "methodID",
          "type": "bytes4"
        },
        {
          "internalType": "bytes",
          "name": "encodedParams",
          "type": "bytes"
        }
      ],
      "name": "blsCallCreate",
      "outputs": [],
      "stateMutability": "nonpayable",
      "type": "function"
    },
    {
      "inputs": [
        {
          "internalType": "address",
          "name": "rewardAddress",
          "type": "address"
        },
        {
          "internalType": "uint256[2]",
          "name": "signature",
          "type": "uint256[2]"
        },
        {
          "components": [
            {
              "internalType": "bytes32",
              "name": "publicKeyHash",
              "type": "bytes32"
            },
            {
              "internalType": "uint256",
              "name": "tokenRewardAmount",
              "type": "uint256"
            },
            {
              "internalType": "address",
              "name": "contractAddress",
              "type": "address"
            },
            {
              "internalType": "bytes4",
              "name": "methodID",
              "type": "bytes4"
            },
            {
              "internalType": "bytes",
              "name": "encodedParams",
              "type": "bytes"
            }
          ],
          "internalType": "struct VerificationGateway.TxData[]",
          "name": "txs",
          "type": "tuple[]"
        }
      ],
      "name": "blsCallMany",
      "outputs": [],
      "stateMutability": "nonpayable",
      "type": "function"
    },
    {
      "inputs": [
        {
          "internalType": "uint256",
          "name": "signedNonce",
          "type": "uint256"
        },
        {
          "internalType": "uint256",
          "name": "tokenRewardAmount",
          "type": "uint256"
        },
        {
          "internalType": "bytes32",
          "name": "publicKeyHash",
          "type": "bytes32"
        },
        {
          "internalType": "uint256[2]",
          "name": "signature",
          "type": "uint256[2]"
        },
        {
          "internalType": "address",
          "name": "contractAddress",
          "type": "address"
        },
        {
          "internalType": "bytes4",
          "name": "methodID",
          "type": "bytes4"
        },
        {
          "internalType": "bytes",
          "name": "encodedParams",
          "type": "bytes"
        }
      ],
      "name": "checkSig",
      "outputs": [
        {
          "internalType": "bool",
          "name": "result",
          "type": "bool"
        },
        {
          "internalType": "uint256",
          "name": "nextNonce",
          "type": "uint256"
        }
      ],
      "stateMutability": "view",
      "type": "function"
    },
    {
      "inputs": [
        {
          "internalType": "contract IERC20",
          "name": "token",
          "type": "address"
        }
      ],
      "name": "initialize",
      "outputs": [],
      "stateMutability": "nonpayable",
      "type": "function"
    },
    {
      "inputs": [
        {
          "internalType": "bytes32",
          "name": "hash",
          "type": "bytes32"
        }
      ],
      "name": "walletCrossCheck",
      "outputs": [],
      "stateMutability": "view",
      "type": "function"
    },
    {
      "inputs": [
        {
          "internalType": "bytes32",
          "name": "",
          "type": "bytes32"
        }
      ],
      "name": "walletFromHash",
      "outputs": [
        {
          "internalType": "contract BLSWallet",
          "name": "",
          "type": "address"
        }
      ],
      "stateMutability": "view",
      "type": "function"
    }
  ],
  "bytecode": "0x608060405263feedbee56040516020016200001b91906200012f565b6040516020818303038152906040528051906020012060016200003d6200005e565b5050348015620000575760008062000054620000c2565b50505b5062000147565b6322bd64c0598160e01b8152836004820152846024820152600081604483336000905af158600e01573d6000803e3d6000fd5b3d6001141558600a015760016000f35b60005b6040811015620000bd57600082820152602001620000a4565b505050565b632a2a7adb598160e01b8152600481016020815285602082015260005b86811015620000fc578086015182820160400152602001620000df565b506020828760640184336000905af158600e01573d6000803e3d6000fd5b3d6001141558600a015760016000f35b505050565b60e09190911b6001600160e01b031916815260040190565b61495580620001576000396000f3fe60806040523480156200001c57600080620000196200305c565b50505b5060043610620000935760003560e01c8063981ca7d2116200006e578063981ca7d21462000112578063a5bafba61462000129578063c2d226d21462000140578063c4d66de814620001575762000093565b8063470c304614620000a357806375733b3014620000d25780638000847c14620000eb575b600080620000a06200305c565b50505b620000ba620000b43660046200383b565b6200016e565b604051620000c9919062003b02565b60405180910390f35b620000e9620000e33660046200385f565b6200019d565b005b62000102620000fc36600462003933565b62000530565b604051620000c992919062003ae9565b620000e96200012336600462003737565b620006af565b620000e96200013a3660046200383b565b6200092b565b620000e96200015136600462003669565b6200098c565b620000e96200016836600462003638565b62000fb2565b6003602052806000526040600020600091506200018a620030c9565b906101000a90046001600160a01b031681565b866000806200031a89600260408051908101604052809291908260026020028082843760009201829052508781526002602052604092509050206004608060405190810160405291906080830182845b81620001f8620030c9565b81526020019060010190808311620001ed575050506000888152600360205262000314925060409150206000906200022f620030c9565b906101000a90046001600160a01b03166001600160a01b031663affed0e06040518163ffffffff1660e01b815260040160206040518083038186806200027462003126565b1580156200028c57600080620002896200305c565b50505b505a6200029862003173565b5050505050158015620002ba573d6000803e3d6000620002b76200305c565b50505b50505050604051601f3d908101601f19168201604052620002df91908101906200390d565b8c8c8c8c8c604051602001620002f893929190620039fc565b604051602081830303815290604052805190602001206200112f565b62001192565b91509150808015620003295750815b6200035c5760405162461bcd60e51b8152600401620003489062003b97565b60405180910390620003596200305c565b50505b8715620004425760008381526003602052604090206000906200037e620030c9565b6001600160a01b036101009290920a900416637808ad3560006004620003a3620030c9565b906101000a90046001600160a01b03165a620003be62003269565b8b6040518463ffffffff1660e01b8152600401620003df9392919062003b16565b60006040518083038160008780620003f662003126565b1580156200040e576000806200040b6200305c565b50505b505a6200041a620032b0565b5050505050501580156200043d573d6000803e3d60006200043a6200305c565b50505b505050505b60008381526003602052604090206000906200045d620030c9565b906101000a90046001600160a01b03166001600160a01b031663f51b80cf888888886040518563ffffffff1660e01b8152600401620004a0949392919062003a6e565b60206040518083038160008780620004b762003126565b158015620004cf57600080620004cc6200305c565b50505b505a620004db620032b0565b505050505050158015620004fe573d6000803e3d6000620004fb6200305c565b50505b50505050604051601f3d908101601f19168201604052620005239190810190620037fd565b5050505050505050505050565b6000808080620005c189600260408051908101604052809291908260026020028082843760009201829052508e81526002602052604092509050206004608060405190810160405291906080830182845b816200058c620030c9565b8152602001906001019080831162000581575050505050620003148f8f8d8d8d8d604051602001620002f893929190620039fc565b91509150808015620005d05750815b60008b8152600360205290945060409020600090620005ee620030c9565b906101000a90046001600160a01b03166001600160a01b031663affed0e06040518163ffffffff1660e01b815260040160206040518083038186806200063362003126565b1580156200064b57600080620006486200305c565b50505b505a6200065762003173565b505050505015801562000679573d6000803e3d6000620006766200305c565b50505b50505050604051601f3d908101601f191682016040526200069e91908101906200390d565b925050509850989650505050505050565b600087604051602001620006c49190620039e7565b604051602081830303815290604052805190602001206000818152600360205290915060408120600090620006f8620030c9565b906101000a90046001600160a01b03166001600160a01b031614620007455760405162461bcd60e51b8152600401620007319062003bf4565b60405180910390620007426200305c565b50505b60008181526002602052889060409020620007629160046200337e565b506040516200077190620033cc565b60405180910390600062000784620033da565b505080158015620007a4573d6000803e3d6000620007a16200305c565b50505b506000828152600360205260409020600181620007c0620030c9565b816001600160a01b0302191690836001600160a01b0316021790620007e46200345f565b505050600081815260036020526040902060009062000802620030c9565b906101000a90046001600160a01b03166001600160a01b0316639498bd71826040518263ffffffff1660e01b81526004016200083f919062003af9565b600060405180830381600087806200085662003126565b1580156200086e576000806200086b6200305c565b50505b505a6200087a620032b0565b5050505050501580156200089d573d6000803e3d60006200089a6200305c565b50505b5050506000828152600360205282915060409020600090620008be620030c9565b906101000a90046001600160a01b03166001600160a01b03167fb65a6d7c4b2ea016740a09090e34933cc4058cd2788e5c9dfc7a6bf9721435328a60405162000908919062003ad6565b60405180910390a362000921818888888888886200019d565b5050505050505050565b600081815260036020526040902060009062000946620030c9565b906101000a90046001600160a01b03166001600160a01b03165a6200096a62003269565b6001600160a01b0316146200098957600080620009866200305c565b50505b50565b8060008167ffffffffffffffff81118015620009b257600080620009af6200305c565b50505b50604051908082528060200260200182016040528015620009f057816020015b620009dc620034ae565b815260200190600190039081620009d25790505b50905060008267ffffffffffffffff8111801562000a185760008062000a156200305c565b50505b5060405190808252806020026020018201604052801562000a5657816020015b62000a42620034ca565b81526020019060019003908162000a385790505b5090506000805b8481101562000f2c576002600088888481811062000a7757fe5b905060200281019062000a8b919062003cb7565b6000013581526020019081526020016000206004608060405190810160405291906080830182845b8162000abe620030c9565b8152602001906001019080831162000ab357505050505084828151811062000ae257fe5b60200260200101819052506003600088888481811062000afe57fe5b905060200281019062000b12919062003cb7565b60000135815260200190815260200160002060009062000b31620030c9565b906101000a90046001600160a01b0316915062000cba826001600160a01b031663affed0e06040518163ffffffff1660e01b8152600401602060405180830381868062000b7d62003126565b15801562000b955760008062000b926200305c565b50505b505a62000ba162003173565b505050505015801562000bc3573d6000803e3d600062000bc06200305c565b50505b50505050604051601f3d908101601f1916820160405262000be891908101906200390d565b88888481811062000bf557fe5b905060200281019062000c09919062003cb7565b6020013589898581811062000c1a57fe5b905060200281019062000c2e919062003cb7565b62000c4190606081019060400162003638565b8a8a8681811062000c4e57fe5b905060200281019062000c62919062003cb7565b62000c75906080810190606001620038e5565b8b8b8781811062000c8257fe5b905060200281019062000c96919062003cb7565b62000ca690608081019062003c51565b604051602001620002f893929190620039fc565b83828151811062000cc757fe5b6020026020010181905250600087878381811062000ce157fe5b905060200281019062000cf5919062003cb7565b60200135111562000dd6576001600160a01b038216637808ad356000600462000d1d620030c9565b906101000a90046001600160a01b03168b8a8a8681811062000d3b57fe5b905060200281019062000d4f919062003cb7565b602001356040518463ffffffff1660e01b815260040162000d739392919062003b16565b6000604051808303816000878062000d8a62003126565b15801562000da25760008062000d9f6200305c565b50505b505a62000dae620032b0565b50505050505015801562000dd1573d6000803e3d600062000dce6200305c565b50505b505050505b816001600160a01b031663f51b80cf88888481811062000df257fe5b905060200281019062000e06919062003cb7565b62000e1990606081019060400162003638565b89898581811062000e2657fe5b905060200281019062000e3a919062003cb7565b62000e4d906080810190606001620038e5565b8a8a8681811062000e5a57fe5b905060200281019062000e6e919062003cb7565b62000e7e90608081019062003c51565b6040518563ffffffff1660e01b815260040162000e9f949392919062003a6e565b6020604051808303816000878062000eb662003126565b15801562000ece5760008062000ecb6200305c565b50505b505a62000eda620032b0565b50505050505015801562000efd573d6000803e3d600062000efa6200305c565b50505b50505050604051601f3d908101601f1916820160405262000f229190810190620037fd565b5060010162000a5d565b5060008062000f64896002604080519081016040528092919082600260200280828437600092019190915250889150879050620012ef565b9150915080801562000f735750815b62000fa65760405162461bcd60e51b815260040162000f929062003b3a565b6040518091039062000fa36200305c565b50505b50505050505050505050565b6001600062000fc0620030c9565b906101000a900460ff168062000fdb575062000fdb620016d7565b8062000ffb575060008062000fef620030c9565b906101000a900460ff16155b620010435760405162461bcd60e51b815260040180806020018281038252602e815260200180620048c1602e913960400191505060405180910390620010406200305c565b50505b600060018162001052620030c9565b906101000a900460ff161590508015620010c157600160006101008162001078620030c9565b8160ff021916908315150217906200108f6200345f565b50505060016000806101000a81620010a6620030c9565b8160ff02191690831515021790620010bd6200345f565b5050505b816004600181620010d1620030c9565b816001600160a01b0302191690836001600160a01b0316021790620010f56200345f565b50505080156200112b576000806101008162001110620030c9565b8160ff02191690831515021790620011276200345f565b5050505b5050565b62001139620034ca565b60005a62001146620034e5565b905062001188600162001158620030c9565b82888888886040516020016200117395949392919062003a38565b60405160208183030381529060405262001744565b9695505050505050565b600080600060405161018081016040528087518152602001876001602002015181527f198e9393920d483a7260bfb731fb5d25f1aa493335a9e71297e485b7aef312c260208201527f1800deef121f1e76426a00665e5c4479674322d4f75edadd46debd5cd992f6ed60408201527f275dc4a288d1afb3cbb1ac09187524c7db36395df7be3b99e673b13a075a65ec60608201527f1d9befcd05a5323e6da4d435f3b617cdb3af83285c2df711ef39c01571827f9d608082015260a0018551815260200185600160200201518152602001866001602002015181526020018651815260200160608701518152602001604087015190529050620012946200352c565b6000620012a260026200184c565b9050600060208361018086600886620012ba62003173565b5050505050905080620012d8576000809550955050505050620012e7565b82511515955060019450505050505b935093915050565b60008060008451905060008111620013445760405162461bcd60e51b8152600401808060200182810382526021815260200180620048ef6021913960400191505060405180910390620013416200305c565b50505b83518114620013905760405162461bcd60e51b81526004018080602001828103825260358152602001806200488c60359139604001915050604051809103906200138d6200305c565b50505b6006600182010260008167ffffffffffffffff81118015620013bc57600080620013b96200305c565b50505b50604051908082528060200260200182016040528015620013e7578160200160208202803683370190505b509050875181600081518110620013fa57fe5b60209081029190910101528760016020020151816001815181106200141b57fe5b6020026020010181815250507f198e9393920d483a7260bfb731fb5d25f1aa493335a9e71297e485b7aef312c2816002815181106200145657fe5b6020026020010181815250507f1800deef121f1e76426a00665e5c4479674322d4f75edadd46debd5cd992f6ed816003815181106200149157fe5b6020026020010181815250507f275dc4a288d1afb3cbb1ac09187524c7db36395df7be3b99e673b13a075a65ec81600481518110620014cc57fe5b6020026020010181815250507f1d9befcd05a5323e6da4d435f3b617cdb3af83285c2df711ef39c01571827f9d816005815181106200150757fe5b60200260200101818152505060005b8381101562001671578681815181106200152c57fe5b6020026020010151518282600602600601815181106200154857fe5b6020026020010181815250508681815181106200156157fe5b6020026020010151602001518282600602600701815181106200158057fe5b6020026020010181815250508781815181106200159957fe5b602002602001015160200151828260060260080181518110620015b857fe5b602002602001018181525050878181518110620015d157fe5b602002602001015151828260060260090181518110620015ed57fe5b6020026020010181815250508781815181106200160657fe5b6020026020010151606001518282600602600a01815181106200162557fe5b6020026020010181815250508781815181106200163e57fe5b6020026020010151604001518282600602600b01815181106200165d57fe5b602090810291909101015260010162001516565b506200167c6200352c565b600062001689856200184c565b90506020826020860260208601600885620016a362003173565b5050505050955085620016c257600080965096505050505050620012e7565b815115159a60019a5098505050505050505050565b60006200173e5a63996d79a5598160e01b8152602081600483336000905af158600e01573d6000803e3d6000fd5b3d6001141558600a015760016000f35b8051925060005b604081101562001735576000828201526020016200171c565b5050506200185e565b15905090565b6200174e620034ca565b60006200175c848462001875565b905060006200177282825b60200201516200194f565b905060006200178383600162001767565b90506200178f620034ae565b82518152602083015160208201528151604082015260208201516060820152600060408460808460066107d05a03620017c762003173565b505050505090508060008114620017de57620017e0565bfe5b50806200183e5760405162461bcd60e51b815260206004820152601760248201527f424c533a20626e206164642063616c6c206661696c65640000000000000000006044820152606401604051809103906200183b6200305c565b50505b509193505050505b92915050565b600181016184d00261afc8015b919050565b600080826200186c62003126565b15159392505050565b6200187f620034ca565b60006200188d848462001d58565b9050600080600080601885016001600160c01b03815116935050603085016001600160c01b0381511694506000805160206200486c833981519152856000805160206200486c833981519152600160c01b870908925050604885016001600160c01b03815116935050606085016001600160c01b038151169450506000805160206200486c833981519152846000805160206200486c833981519152600160c01b86090890506040516040818101905291825260208201529695505050505050565b62001959620034ca565b6000805160206200486c8339815191528210620019b35760405162461bcd60e51b8152600401808060200182810382526023815260200180620049106023913960400191505060405180910390620019b06200305c565b50505b816000620019c182620021a5565b91505060006000805160206200486c83398151915280620019de57fe5b83840990506000805160206200486c83398151915260048208905060006000805160206200486c83398151915277b3c4d79d41a91759a9e4c7e359b6b89eaec68e62effffffd8509905060006000805160206200486c833981519152838309905062001a4a81620021d1565b90506000805160206200486c83398151915282830991506000805160206200486c83398151915281830991506000805160206200486c83398151915282860991506000805160206200486c833981519152826000805160206200486c833981519152037759e26bcea0d48bacd4f263f1acdb5c4f5763473177fffffe0894506000805160206200486c83398151915285860991506000805160206200486c83398151915285830991506000805160206200486c833981519152600383089150600062001b1683620021a5565b9093509050801562001b5d578462001b3d57826000805160206200486c8339815191520392505b604051604080820190529586525050602084015250909150620018599050565b6000805160206200486c833981519152600187086000805160206200486c8339815191520395506000805160206200486c8339815191528062001b9c57fe5b86870992506000805160206200486c83398151915286840992506000805160206200486c83398151915260038408925062001bd783620021a5565b9093509050801562001c1d578462001b3d57826000805160206200486c833981519152039250604051604080820190529586525050602084015250909150620018599050565b6000805160206200486c83398151915284850995506000805160206200486c83398151915286870995506000805160206200486c83398151915282870995506000805160206200486c83398151915282870995506000805160206200486c8339815191526001870895506000805160206200486c83398151915286870992506000805160206200486c83398151915286840992506000805160206200486c83398151915260038408925062001cd283620021a5565b90935090508062001d205760405162461bcd60e51b815260040180806020018281038252602281526020018062004933602291396040019150506040518091039062001d1d6200305c565b50505b8462001d3b57826000805160206200486c8339815191520392505b604051604081810190529586525050602084015250909392505050565b606060008251905060006064820167ffffffffffffffff8111801562001d885760008062001d856200305c565b50505b50604051818152601f19601f830116810160200160405290801562001db4576020820181803683370190505b50905060006060604051818152601f19601f830116810160200160405290801562001de6576020820181803683370190505b5090506060820160005b8481101562001e0d57602081018701518282015260200162001df0565b50830160008153600101606081536001016000815360018101879052602101602081535060006002836040518082805190602001908083835b6020831062001e675780518252601f19909201916020918201910162001e46565b6001836020036101000a038019825116818451168082178552505050505050905001915050602060405180830381855a62001ea162003173565b505050505015801562001ec3573d6000803e3d600062001ec06200305c565b50505b5050506040513d602081101562001ee45760008062001ee16200305c565b50505b81019080805160428088526020880182905297509350600092506001915050604085015360418401889052602060618501536002846040518082805190602001908083835b6020831062001f4a5780518252601f19909201916020918201910162001f29565b6001836020036101000a038019825116818451168082178552505050505050905001915050602060405180830381855a62001f8462003173565b505050505015801562001fa6573d6000803e3d600062001fa36200305c565b50505b5050506040513d602081101562001fc75760008062001fc46200305c565b50505b810190808051602087810182905286821890890152935060029250506040860190505360418401889052602060618501536002846040518082805190602001908083835b602083106200202c5780518252601f1990920191602091820191016200200b565b6001836020036101000a038019825116818451168082178552505050505050905001915050602060405180830381855a6200206662003173565b505050505015801562002088573d6000803e3d6000620020856200305c565b50505b5050506040513d6020811015620020a957600080620020a66200305c565b50505b810190808051604087810182905286821860208a01529094506003935087019150505360418401889052602060618501536002846040518082805190602001908083835b602083106200210e5780518252601f199092019160209182019101620020ed565b6001836020036101000a038019825116818451168082178552505050505050905001915050602060405180830381855a6200214862003173565b50505050501580156200216a573d6000803e3d6000620021676200305c565b50505b5050506040513d60208110156200218b57600080620021886200305c565b50505b810190808051606087015250939998505050505050505050565b600080620021b383620021de565b9150826000805160206200486c833981519152838409149050915091565b6000620018468262002914565b60006000805160206200486c8339815191528083840991508083830981838209828283098385830984848309858484098684850997508684840987858409945087898a09985087898a09985087898a09985087898a09985087898a09985087878a09985087898a09985087898a09985087898a099850878a8a09985087898a09985087898a09985087898a09985087898a099850878a8a09985087898a09985087898a09985087898a09985087898a09985087898a09985087848a09985087898a09985087898a09985087898a09985087898a09985087898a09985087848a09985087898a09985087898a09985087898a099850878a8a09985087898a09985087898a09985087898a09985087898a09985087848a09985087898a09985087898a09985087898a09985087898a09985087898a099850878a8a09985087898a09985087898a09985087898a09985087898a09985087878a09985087898a09985087898a09985087898a09985087898a09985087898a09985087898a09985087898a09985087818a09985087898a09985087898a09985087898a09985087898a09985087898a09985087898a09985087898a09985087898a09985087898a09985087898a09985087868a09985087898a09985087898a09985087898a09985087898a09985087878a09985087898a09985087898a09985087898a09985087898a09985087848a09985087898a09985087898a09985087898a09985087898a09985087898a09985087898a09985087898a09985087868a09985087898a09985087898a09985087898a09985087898a09985087898a09985087898a099850878a8a09985087898a09985087898a09985087898a09985087898a09985087898a09985087898a09985087898a09985087828a09985087898a09985087898a09985087898a09985087898a09985087898a09985087818a09985087898a09985087898a09985087898a09985087868a09985087898a09985087898a09985087898a09985087898a09985087898a09985087898a09985087898a09985087898a09985087878a09985087898a09985087898a09985087898a09985087898a09985087898a09985087898a09985087898a09985087898a09985087898a09985087868a09985087898a09985087898a09985087898a09985087878a09985087898a09985087898a09985087898a09985087898a09985087898a09985087898a09985087898a09985087898a09985087828a09985087898a09985087898a09985087898a09985087898a09985087828a09985087898a09985087898a09985087898a09985087898a09985087898a09985087868a09985087898a09985087898a09985087898a09985087848a09985087898a09985087898a09985087898a09985087898a09985087898a09985087898a09985087898a09985087898a09985087898a09985087898a09985087828a09985087898a09985087898a09985087898a09985087898a09985087868a09985087898a09985087898a09985087898a09985087898a09985087898a09985087838a09985087898a09985087898a09985087898a09985087898a09985087898a09985087898a09985087898a09985087828a09985087898a09985087898a099850878a8a09985087898a09985087898a09985087898a09985087898a09985087898a09985087898a09985087898a09985087848a09985087898a09985087898a09985087898a09985087898a09985087898a09985087898a09985087848a09985087898a09985087898a09985087898a09985087898a09985087898a09985087868a09985087898a09985087898a099850878a8a09985087898a09985087898a09985087898a09985087898a09985087898a09985087898a09985087898a09985087818a09985050868889099750868889099750868889099750868889099750868889099750868889099750868489099750868889099750868889099750868889099750868889099750868889099750868989099750868889099750868889099750868889099750868889099750868889099750868889099750868989099750868889099750868889099750868889099750868889099750868889099750868689099750868889099750868889099750868889099750868889099750868889099750868889099750868889099750868889099750868889099750868189099750508587880996508587880996508587880996508585880996508587880996508587880996508587880996508585880996508587880996508587880996508587880996508587880996508587880996508587880996508587880996508587880996508583880996508587880996508587880996508587880996508587880996508581880996508587880996508587880996508587880996508587880996508583880996508587880996508587880996508587880996508584880996508587880996508587880996508587880996508587880996508587880996508581880996505050505050808283099392505050565b60006000805160206200486c8339815191528083840991508083830981838209828283098385830984848309858484098684850997508684840987858409945087898a09985087898a09985087898a09985087898a09985087898a09985087878a09985087898a09985087898a09985087898a099850878a8a09985087898a09985087898a09985087898a09985087898a099850878a8a09985087898a09985087898a09985087898a09985087898a09985087898a09985087848a09985087898a09985087898a09985087898a09985087898a09985087898a09985087848a09985087898a09985087898a09985087898a099850878a8a09985087898a09985087898a09985087898a09985087898a09985087848a09985087898a09985087898a09985087898a09985087898a09985087898a099850878a8a09985087898a09985087898a09985087898a09985087898a09985087878a09985087898a09985087898a09985087898a09985087898a09985087898a09985087898a09985087898a09985087818a09985087898a09985087898a09985087898a09985087898a09985087898a09985087898a09985087898a09985087898a09985087898a09985087898a09985087868a09985087898a09985087898a09985087898a09985087898a09985087878a09985087898a09985087898a09985087898a09985087898a09985087848a09985087898a09985087898a09985087898a09985087898a09985087898a09985087898a09985087898a09985087868a09985087898a09985087898a09985087898a09985087898a09985087898a09985087898a099850878a8a09985087898a09985087898a09985087898a09985087898a09985087898a09985087898a09985087898a09985087828a09985087898a09985087898a09985087898a09985087898a09985087898a09985087818a09985087898a09985087898a09985087898a09985087868a09985087898a09985087898a09985087898a09985087898a09985087898a09985087898a09985087898a09985087898a09985087878a09985087898a09985087898a09985087898a09985087898a09985087898a09985087898a09985087898a09985087898a09985087898a09985087868a09985087898a09985087898a09985087898a09985087878a09985087898a09985087898a09985087898a09985087898a09985087898a09985087898a09985087898a09985087898a09985087828a09985087898a09985087898a09985087898a09985087898a09985087828a09985087898a09985087898a09985087898a09985087898a09985087898a09985087868a09985087898a09985087898a09985087898a09985087848a09985087898a09985087898a09985087898a09985087898a09985087898a09985087898a09985087898a09985087898a09985087898a09985087898a09985087828a09985087898a09985087898a09985087898a09985087898a09985087868a09985087898a09985087898a09985087898a09985087898a09985087898a09985087838a09985087898a09985087898a09985087898a09985087898a09985087898a09985087898a09985087898a09985087828a09985087898a09985087898a099850878a8a09985087898a09985087898a09985087898a09985087898a09985087898a09985087898a09985087898a09985087848a09985087898a09985087898a09985087898a09985087898a09985087898a09985087898a09985087848a09985087898a09985087898a09985087898a09985087898a09985087898a09985087868a09985087898a09985087898a099850878a8a09985087898a09985087898a09985087898a09985087898a09985087898a09985087898a09985087898a09985087818a09985050868889099750868889099750868889099750868889099750868889099750868889099750868489099750868889099750868889099750868889099750868889099750868889099750868989099750868889099750868889099750868889099750868889099750868889099750868889099750868989099750868889099750868889099750868889099750868889099750868889099750868689099750868889099750868889099750868889099750868889099750868889099750868889099750868889099750868889099750868889099750868189099750508587880996508587880996508587880996508585880996508587880996508587880996508587880996508585880996508587880996508587880996508587880996508587880996508587880996508587880996508587880996508587880996508583880996508587880996508587880996508587880996508587880996508581880996505050838586099450838586099450838586099450838586099450838186099450508284850993508284850993508284850993508281850993508284850993508284850993508285850993508284850993508284850993508284850993508284850993508284850993508284850993508281850995945050505050565b632a2a7adb598160e01b8152600481016020815285602082015260005b868110156200309657808601518282016040015260200162003079565b506020828760640184336000905af158600e01573d6000803e3d6000fd5b3d6001141558600a015760016000f35b505050565b6303daa959598160e01b8152836004820152602081602483336000905af158600e01573d6000803e3d6000fd5b3d6001141558600a015760016000f35b8051935060005b604081101562000986576000828201526020016200310d565b638435035b598160e01b8152836004820152602081602483336000905af158600e01573d6000803e3d6000fd5b3d6001141558600a015760016000f35b805160008252935060206200310d565b638540661f598160e01b8152620031a7565b808083111562001846575090919050565b808083101562001846575090919050565b836004820152846024820152606060448201528660648201526084810160005b88811015620031e1578088015182820152602001620031c7565b506060828960a40184336000905af158600e01573d6000803e3d6000fd5b3d6001141558600a015760016000f35b815160408301513d6000853e8b8b82606087013350600060045af15059620032388d3d62003196565b8c0162003246818762003185565b5b828110156200325d576000815260200162003247565b50929c50505050505050565b6373509064598160e01b8152602081600483336000905af158600e01573d6000803e3d6000fd5b3d6001141558600a015760016000f35b805160008252935060206200310d565b6385979f76598160e01b8152836004820152846024820152606060448201528760648201526084810160005b89811015620032f6578089015182820152602001620032dc565b506060828a60a40184336000905af158600e01573d6000803e3d6000fd5b3d6001141558600a015760016000f35b815160408301513d6000853e8c8c82606087013350600060045af150596200334d8e3d62003196565b8d016200335b818762003185565b5b828110156200337257600081526020016200335c565b50929d50505050505050565b8260048101928215620033ba579160200282015b82811115620033ba57823582620033a86200345f565b50509160200191906001019062003392565b50620033c892915062003548565b5090565b610b6b8062003d0183390190565b6314aa2ff7598160e01b8152600481016020815286602082015260005b8781101562003414578087015182820160400152602001620033f7565b506020828860640184336000905af158600e01573d6000803e3d6000fd5b3d6001141558600a015760016000f35b8151965059825b8181101562001127576000815260200162003449565b6322bd64c0598160e01b8152836004820152846024820152600081604483336000905af158600e01573d6000803e3d6000fd5b3d6001141558600a015760016000f35b6000815260206200310d565b6040516080808201604052600490829080368337509192915050565b60405160408082018152600290829080368337509192915050565b6390580256598160e01b8152602081600483336000905af158600e01573d6000803e3d6000fd5b3d6001141558600a015760016000f35b805160008252935060206200310d565b6040516020808201604052600190829080368337509192915050565b80821115620033c857600080826200355f6200345f565b50505060010162003548565b80604081018310156200184657600080620035856200305c565b505092915050565b80357fffffffff00000000000000000000000000000000000000000000000000000000811681146200185957600080620035c66200305c565b5050919050565b60008083601f840112620035ea578182620035e76200305c565b50505b50813567ffffffffffffffff8111156200360d5781826200360a6200305c565b50505b60208301915083602082850101111562003631576000806200362e6200305c565b50505b9250929050565b60006020828403121562003655578081620036526200305c565b50505b8135620036628162003ce2565b9392505050565b600080600080608085870312156200368a578283620036876200305c565b50505b8435620036978162003ce2565b9350620036a886602087016200356b565b9250606085013567ffffffffffffffff80821115620036d0578384620036cd6200305c565b50505b818701915087601f830112620036ef578384620036ec6200305c565b50505b81358181111562003709578485620037066200305c565b50505b886020808302850101111562003728578485620037256200305c565b50505b95989497505060200194505050565b6000806000806000806000610140888a0312156200375e5782836200375b6200305c565b50505b60808801898111156200377a578384620037776200305c565b50505b889750620037898a826200356b565b96505060c0880135945060e0880135620037a38162003ce2565b9350620037b461010089016200358d565b925061012088013567ffffffffffffffff811115620037dc578283620037d96200305c565b50505b620037ea8a828b01620035cd565b989b979a50959850939692959293505050565b6000602082840312156200381a578081620038176200305c565b50505b8151801515811462003662578182620038326200305c565b50509392505050565b60006020828403121562003858578081620038556200305c565b50505b5035919050565b600080600080600080600060e0888a03121562003885578283620038826200305c565b50505b87359650620038988960208a016200356b565b9550606088013594506080880135620038b18162003ce2565b9350620038c160a089016200358d565b925060c088013567ffffffffffffffff811115620037dc578283620037d96200305c565b60006020828403121562003902578081620038ff6200305c565b50505b62003662826200358d565b6000602082840312156200392a578081620039276200305c565b50505b81519392505050565b600080600080600080600080610100898b0312156200395b578081620039586200305c565b50505b8835975060208901359650604089013595506200397c8a60608b016200356b565b945060a08901356200398e8162003ce2565b93506200399e60c08a016200358d565b925060e089013567ffffffffffffffff811115620039c5578182620039c26200305c565b50505b620039d38b828c01620035cd565b999c989b5096995094979396929594505050565b60006080838337608091909101908152919050565b60007fffffffff000000000000000000000000000000000000000000000000000000008516825282846004840137910160040190815292915050565b94855260208501939093526040840191909152606090811b6bffffffffffffffffffffffff191690830152607482015260940190565b60006001600160a01b03861682527fffffffff00000000000000000000000000000000000000000000000000000000851660208301526060604083015282606083015282846080840137818301608090810191909152601f909201601f191601019392505050565b6080818101908383376000815292915050565b9115158252602082015260400190565b90815260200190565b6001600160a01b0391909116815260200190565b6001600160a01b039384168152919092166020820152604081019190915260600190565b6020808252602a908201527f566572696669636174696f6e476174657761793a20416c6c2073696773206e6f60408201527f7420766572696669656400000000000000000000000000000000000000000000606082015260800190565b60208082526035908201527f566572696669636174696f6e476174657761793a20736967206e6f742076657260408201527f69666965642077697468206e6f6e63652b646174610000000000000000000000606082015260800190565b6020808252602b908201527f566572696669636174696f6e476174657761793a2057616c6c657420616c726560408201527f616479206578697374732e000000000000000000000000000000000000000000606082015260800190565b6000808335601e1984360301811262003c7357828362003c706200305c565b50505b83018035915067ffffffffffffffff82111562003c9957828362003c966200305c565b50505b60200191503681900382131562003631576000806200362e6200305c565b60008235609e1983360301811262003cd857818262003cd56200305c565b50505b9190910192915050565b6001600160a01b03811681146200098957600080620009866200305c56fe60806040523480156100195760008061001661001f565b50505b5061008a565b632a2a7adb598160e01b8152600481016020815285602082015260005b8681101561005757808601518282016040015260200161003c565b506020828760640184336000905af158600e01573d6000803e3d6000fd5b3d6001141558600a015760016000f35b505050565b610ad2806100996000396000f3fe608060405234801561001957600080610016610531565b50505b50600436106100705760003560e01c80639498bd71116100595780639498bd71146100b1578063affed0e0146100c4578063f51b80cf146100cc57610070565b80635e7e34161461007e5780637808ad351461009c575b60008061007b610531565b50505b6100866100ec565b6040516100939190610a1f565b60405180910390f35b6100af6100aa366004610930565b6100f9565b005b6100af6100bf36600461090f565b6101ee565b610086610375565b6100df6100da3660046107c9565b61037f565b6040516100939190610a14565b60016100f661059c565b81565b6002600061010561059c565b906101000a90046001600160a01b03166001600160a01b03165a6101276105fc565b6001600160a01b03161461014357600080610140610531565b50505b826001600160a01b031663a9059cbb83836040518363ffffffff1660e01b81526004016101719291906109fb565b60206040518083038160008780610186610642565b15801561019b57600080610198610531565b50505b505a6101a561068e565b5050505050501580156101c5573d6000803e3d60006101c2610531565b50505b50505050604051601f3d908101601f191682016040526101e891908101906108d6565b50505050565b600160006101fa61059c565b906101000a900460ff168061021257506102126104b3565b8061022f575060008061022361059c565b906101000a900460ff16155b6102735760405162461bcd60e51b815260040180806020018281038252602e815260200180610aa4602e913960400191505060405180910390610270610531565b50505b600060018161028061059c565b906101000a900460ff1615905080156102e65760016000610100816102a361059c565b8160ff021916908315150217906102b861077b565b50505060016000806101000a816102cd61059c565b8160ff021916908315150217906102e261077b565b5050505b818060016102f261077b565b5050505a6102fe6105fc565b6000620100008161030d61059c565b816001600160a01b0302191690836001600160a01b031602179061032f61077b565b50505060006002819061034061077b565b5050508015610371576000806101008161035861059c565b8160ff0219169083151502179061036d61077b565b5050505b5050565b60026100f661059c565b600060028161038c61059c565b906101000a90046001600160a01b03166001600160a01b03165a6103ae6105fc565b6001600160a01b0316146103ca576000806103c7610531565b50505b600083836040516020016103df9291906109b3565b6040516020818303038152906040529050846001600160a01b03168160405161040891906109ef565b6000604051808303816000865a61041d61068e565b5050505050509150503d8060008114610452576040513d603f01601f191681016040523d815291503d6000602084013e610457565b606091505b5050809250508161048c5760405162461bcd60e51b815260040161047a90610a28565b60405180910390610489610531565b50505b600260008161049961059c565b916001830191506104a861077b565b505050509392505050565b60006105165a63996d79a5598160e01b8152602081600483336000905af158600e01573d6000803e3d6000fd5b3d6001141558600a015760016000f35b8051925060005b604081101561050e576000828201526020016104f7565b50505061051c565b15905090565b60008082610528610642565b15159392505050565b632a2a7adb598160e01b8152600481016020815285602082015260005b8681101561056957808601518282016040015260200161054e565b506020828760640184336000905af158600e01573d6000803e3d6000fd5b3d6001141558600a015760016000f35b505050565b6303daa959598160e01b8152836004820152602081602483336000905af158600e01573d6000803e3d6000fd5b3d6001141558600a015760016000f35b8051935060005b60408110156105f7576000828201526020016105e0565b505050565b6373509064598160e01b8152602081600483336000905af158600e01573d6000803e3d6000fd5b3d6001141558600a015760016000f35b805160008252935060206105e0565b638435035b598160e01b8152836004820152602081602483336000905af158600e01573d6000803e3d6000fd5b3d6001141558600a015760016000f35b805160008252935060206105e0565b6385979f76598160e01b81526106c1565b80808311156106ab5750815b92915050565b80808310156106ab575090919050565b836004820152846024820152606060448201528760648201526084810160005b898110156106f95780890151828201526020016106e1565b506060828a60a40184336000905af158600e01573d6000803e3d6000fd5b3d6001141558600a015760016000f35b815160408301513d6000853e8c8c82606087013350600060045af1505961074e8e3d6106b1565b8d0161075a818761069f565b5b8281101561076f576000815260200161075b565b50929d50505050505050565b6322bd64c0598160e01b8152836004820152846024820152600081604483336000905af158600e01573d6000803e3d6000fd5b3d6001141558600a015760016000f35b6000815260206105e0565b6000806000606084860312156107e65782836107e3610531565b50505b83356107f181610a85565b92506020848101357fffffffff000000000000000000000000000000000000000000000000000000008116811461082f57838461082c610531565b50505b9250604085013567ffffffffffffffff80821115610854578384610851610531565b50505b818701915087601f83011261087057838461086d610531565b50505b81358181111561087c57fe5b604051601f8201601f191681018501838111828210171561089957fe5b60405281815283820185018a10156108b85785866108b5610531565b50505b81858501868301378585838301015280955050505050509250925092565b6000602082840312156108f05780816108ed610531565b50505b81518015158114610908578182610905610531565b50505b9392505050565b600060208284031215610929578081610926610531565b50505b5035919050565b60008060006060848603121561094d57828361094a610531565b50505b833561095881610a85565b9250602084013561096881610a85565b929592945050506040919091013590565b60008151815b8181101561099a57602081850101518582015260200161097f565b818111156109a85782828601525b509290920192915050565b60007fffffffff00000000000000000000000000000000000000000000000000000000841682526109e76004830184610979565b949350505050565b60006109088284610979565b6001600160a01b03929092168252602082015260400190565b901515815260200190565b90815260200190565b60208082526030908201527f424c5357616c6c65743a20616374696f6e206661696c656420746f2063616c6c60408201527f20656e636f64656446756e6374696f6e00000000000000000000000000000000606082015260800190565b6001600160a01b0381168114610aa0576000806105f7610531565b5056fe496e697469616c697a61626c653a20636f6e747261637420697320616c726561647920696e697469616c697a656430644e72e131a029b85045b68181585d97816a916871ca8d3c208c16d87cfd47424c533a206e756d626572206f66207075626c6963206b65797320616e64206d65737361676573206d75737420626520657175616c496e697469616c697a61626c653a20636f6e747261637420697320616c726561647920696e697469616c697a6564424c533a206e756d626572206f66207075626c6963206b6579206973207a65726f6d6170546f506f696e7446543a20696e76616c6964206669656c6420656c656d656e74424c533a20626164206674206d617070696e6720696d706c656d656e746174696f6e",
  "linkReferences": {},
  "deployedLinkReferences": {}
}